:100000000C940E030C9452030C946D030C94520345
:100010000C9452030C9452030C9452030C9452030C
:100020000C9452030C9485120C9479230C94520373
:100030000C9452030C9452030C9452030C945203EC
:100040000C9452030C9452030C9452030C945203DC
:100050000C945203290014001A0008001500170020
:100060001C0018000C00120013002A00E00004001D
:100070001600070009000A000B000D000E000F001B
:1000800003572800E1001D001B00060019000500B1
:10009000110010003600370052003800E300E20083
:1000A0002B00914501582C001350904200575000EE
:1000B00051004F0035021E021F02200221022202BF
:1000C000230224022502260227022A00E0003A0029
:1000D0003B003C003D003E003F002E002E022F0260
:1000E00030022800E100400041004200430044008B
:1000F00045002D003400340202574B00E300E200BB
:100100002900010001000100010031022D02500010
:100110004F004E0035001E001F002000210022006D
:10012000230024002500260027002A004C003A0066
:100130003B003C003D003E003F002D002E002F0004
:1001400030002800E100400041004200430044002C
:10015000450001003400340202573100E300E000A2
:10016000010001000100010001001350AB00AA00D2
:10017000A900AE00290014001A000800150017009D
:100180001C0018000C00120013002A00E3000400F9
:100190001600070009000A000B000D000E000F00FA
:1001A00004572800E1001D001B000600190005008F
:1001B000110010003600370052003800E000E20065
:1001C0002B00055114502C001050125035005000D7
:1001D00051004F002E021E022F0020022102220297
:1001E0002E0023023402250226022A002F020100DB
:1001F00050004F004B004E002D002D023302300204
:1002000031022800E1000100010001000100890025
:100210003000320024021F0201008700E000E200EB
:100220002B00E30013502C001050890201570100ED
:10023000010001003A003B003C003D003E003F0051
:100240004000410042004300440045000100C25C00
:10025000C55CC75CC95CBF5CC15CBE5CCF5CD05C8C
:10026000D35CA9000100B200C65CC85CCA5C010096
:100270000100BD5C010001004600AA000100010070
:10028000C35C010001000100010001000100010048
:100290000100010032190A00047F3F1F6432146418
:1002A0003214783C1E1E140A052223252628292AEA
:1002B0002C2D2F3032333536383A3B3D3E404243C9
:1002C0004547494A4C4E5051535557595A5C5E6008
:1002D00062646668696B6D6F71737577797B7D7F1A
:1002E00081838587898A8C8E90929496989A9C9E19
:1002F0009FA1A3A5A7A8AAACAEAFB1B3B4B6B8B935
:10030000BBBCBEBFC1C2C3C5C6C7C9CACBCCCDCE9C
:10031000D0D1D2D2D3D4D5D6D7D7D8D9D9DADADB7F
:10032000DBDBDCDCDCDCDCDDDDDDDDDCDCDCDCDC0B
:10033000DBDBDBDADAD9D9D8D7D7D6D5D4D3D2D24A
:10034000D1D0CECDCCCBCAC9C7C6C5C3C2C1BFBE32
:10035000BCBBB9B8B6B4B3B1AFAEACAAA8A7A5A39D
:10036000A19F9E9C9A98969492908E8C8A8987855C
:1003700083817F7D7B79777573716F6D6B6968663B
:100380006462605E5C5A5957555351504E4C4A490D
:1003900047454342403E3D3B3A3836353332302FB5
:1003A0002D2C2A292826252322FFAA7F554000002C
:1003B0000000000000000000000101020304050627
:1003C000080A0C0F1114181C2024292E33393F461B
:1003D0004C535B626A7179818A929AA2AAB2B9C1BE
:1003E000C8CFD5DCE1E7EBF0F4F7FAFCFDFEFFFE49
:1003F000FDFCFAF7F4F0EBE7E1DCD5CFC8C1B9B208
:10040000AAA29A928A8179716A625B534C463F39FB
:10041000332E2924201C1814110F0C0A0806050479
:1004200003020101000000000000000000000001C4
:1004300001010101010101010202020202020202A4
:100440000203030303030303030404040404040476
:10045000050505050506060606060707070707083A
:10046000080808090909090A0A0A0B0B0B0C0C0CED
:100470000D0D0D0E0E0E0F0F0F1010111111121287
:1004800013131414151516161717181819191A1A04
:100490001B1B1C1D1D1E1E1F202021222223242465
:1004A000252626272829292A2B2C2D2D2E2F3031A1
:1004B0003232333435363738393A3B3C3D3E3F40B3
:1004C0004142434445464748494A4C4D4E4F50519E
:1004D0005354555658595A5B5D5E5F616264656658
:1004E00068696B6C6D6F7072737577787A7B7D7EDF
:1004F0008082838587888A8C8E8F91939596989A2F
:100500009C9EA0A2A3A5A7A9ABADAFB1B3B5B7BA46
:10051000BCBEC0C2C4C6C9CBCDCFD1D4D6D8DBDD1A
:10052000DFE2E4E7E9EBEEF0F3F5F8FAFDFF0902AC
:100530003B00020100A03209040000010301010098
:100540000921010100012240000705810308000183
:10055000090401000103000000092101010001223A
:10056000320007058303080001120110010000009A
:1005700008A0202D42000201020301040330000004
:10058000000A034A004A0034003000000016034B02
:10059000005000720065007000750062006C006918
:1005A00000630000000403090405010980A101851E
:1005B0000319012AB700150126B7009501751081AE
:1005C00000C0050C0901A101850419012AA002152A
:1005D0000126A002950175108100C005010906A140
:1005E00001050719E029E715002501950875018126
:1005F000029501750881030507190029FF150026DA
:10060000FF00950675088100050819012905950563
:1006100075019102950175039103C00011241FBE5D
:10062000CFE5D8E0DEBFCDBF04B603FE24C0809185
:10063000550390915603A0915703B091580387300A
:10064000904BA740B04BB9F410925503109256034B
:10065000109257031092580314BE84B7877F84BF4B
:100660000FB6F894A89581B5886181BD11BC0FBE05
:10067000E0E0F8E3099511E0A0E6B0E0E0E5F0E5A0
:1006800002C005900D92A63AB107D9F723E0A6EA79
:10069000B1E001C01D92A535B207E1F70E94D02359
:1006A0000C9426280C940000A82FB92F80E090E02D
:1006B00041E050EA609530E009C02D91822797957E
:1006C000879510F084279527305EC8F36F5FA8F3F5
:1006D0000895EADF8D939D930895CF93CFB7CF937D
:1006E000C395839BE9F7839B0EC0839B0CC0839BC0
:1006F0000AC0839B08C0839B06C0C0912C03C3958E
:10070000C0932C03A6C0DF93C0912B03DD27CD5CE3
:10071000DC4F839B02C0DF91E6CF2F930F931F9393
:1007200000B32FEF03FB20F94F933F9310B34FEF2C
:10073000012703FB21F93BE031C04E7F012F10B3AD
:10074000216028C0102F4D7F2260000000B329C017
:100750004B7F2460012F000010B32BC010B3477FE4
:1007600028602AC04F7E00B320612CC04F7D10B39B
:1007700020622FC04F7B00B3206432C0422700B3F9
:1007800049934FEF0000102713FB20F910B31C70A2
:10079000C9F1297F91F2012703FB21F900B3237FDF
:1007A00089F2315058F1102713FB22F910B3277E3C
:1007B00079F2012703FB23F92F7C81F200B3102784
:1007C00013FB24F92F7971F200C010B3012703FB4A
:1007D00025F92F7359F200C000B3102713FB26F937
:1007E000223040F200C010B3012703FB27F9243068
:1007F00028F64F77206810B30000F9CF10E81ABF31
:1008000000271CC03B503195C31BD04010E81ABFD5
:100810000881033C11F10B3401F120912803198167
:10082000110F1213EDCF4A81441F093659F10D32D1
:1008300011F0013E29F74F7009F0042F00933103A6
:100840003F914F911F910F912F91DF91CAB7C7FD33
:1008500047CFCF91CFBFCF9118952091310322235D
:1008600079F310912F031123C1F53430C2F1309385
:100870002F0320932A0310912B033BE0311B30936D
:100880002B032DC000912F0301303CF50AE54F707A
:1008900049F43091070134FD24C000930701C1E100
:1008A000D3E023C0433049F030911C0334FD19C01C
:1008B00000931C03CDE1D3E018C03091490334FD0F
:1008C00010C000934903CAE4D3E00FC02795A8F4F1
:1008D0005150A9F4220F0000F9CF4AE503C042EDC0
:1008E00001C0432FC4E1D0E032E011B31C60939A01
:1008F00011BB02B320E41CE05F93012756E002BB6A
:10090000279520F4515021F4220FF9CF012756E00A
:1009100000003B5A02BBD0F2279528F4515029F42D
:10092000220F0000F9CF012756E0279502BB20F4E3
:10093000515021F4220FF9CF012756E0299133239A
:1009400002BB21F6037F10913003110FC651D04036
:1009500002BB11F01093280310E81ABF086011B30E
:10096000137F402F437F5F9100C000C002BB11BBCB
:1009700042BB66CF0E94590F89E00C94560F82311A
:1009800020E5920709F464C050F4803922E492070C
:1009900009F459C08031904599F081E0089584317F
:1009A00020E5920709F46FC080F181309845A9F7DE
:1009B00081E00E94E61F882361F00E94D30EEDCFF4
:1009C0000E94D30E0E94E710882339F30E947E1202
:1009D000E4CF0E94590F81E00E94560F20E040E0D2
:1009E00069ED8FEF0E94600C21E040E069ED8FEF30
:1009F0000E94600C22E040E069ED8FEF0E94600CE5
:100A000023E040E069ED8FEF1BC00E94590F81E0A9
:100A10000E94560F20E04FEF65EF89E90E94600CBD
:100A200021E04FEF65EF89E90E94600C22E04FEF73
:100A300065EF89E90E94600C23E04FEF65EF89E9DB
:100A40000E94600CAACF82E00E94E61F8111B5CF00
:100A50000E94590F81E00E94560F20E040E060E0C4
:100A60008FEF0E94600C21E040E060E08FEF0E9479
:100A7000600C22E040E060E08FEF0E94600C23E019
:100A800040E060E0C0CF0E94590F4FE06BE988E77B
:100A90000E94DF0A82CFCF93DF939C013A95211504
:100AA0003F4168F5EC01CC27D170DC01AA27B27078
:100AB000AC01442754709C012227387094FF11C068
:100AC00080E0CD2B09F080E1AB2B09F08062452B53
:100AD00009F08064232B09F08068FB01DF91CF913E
:100AE000099481E0CD2B09F480E0AB2B09F0826002
:100AF000452B09F08460232B81F38860EECFDF91D2
:100B0000CF910895CF93DF93EC01805E9109089710
:100B100020F064E97BE1209711F46AE179E1CE01EC
:100B20000E944B058C2FDF91CF910C949918CF9395
:100B3000DF93EC010E94DF18CE01805E91090897D7
:100B400020F06BE97BE1209711F461E279E1CE01BD
:100B5000DF91CF910C944B0581E008950C94BF0474
:100B600008950C94B0051F93CF93DF9300D000D06D
:100B70001F92CDB7DEB749835A836B833091E7016B
:100B800089819A8131111DC06623B9F02223A9F011
:100B90000E94FC20182F682F89819A810E94A22030
:100BA00069817A81812F0F900F900F900F900F9095
:100BB000DF91CF911F910C947D060E94D120182FB8
:100BC000EFCF0E94FC2069817A81EDCFFC01262FB6
:100BD000408151816281738184810C94B305CF93EC
:100BE000DF93EC0160E00E94E605BE01DF91CF914A
:100BF0000C94B1050E944622811102C00E94EC2291
:100C00000E94F0120C9488080E9454160C948B08D1
:100C100008950C94080681E008950C940B06CF9378
:100C2000C82F0E9409068C2FCF910C940D060895B1
:100C30000E94B41B0E9417062FEB87E299E0215017
:100C400080409040E1F700C000000C949F230F9378
:100C50001F93CF93DF93EC0161E00E94E6058C01C6
:100C6000BE010E94B415BE01C8010E94AE058823D2
:100C7000B9F1BE01C8010E94E011882389F1BE01CB
:100C8000C8010E94FA15882359F1BE01C8010E94CB
:100C90009413882329F1BE01C8010E94D51388232B
:100CA000F9F0BE01C8010E94FA148823C9F0BE0100
:100CB000C8010E946310882399F08A81882339F043
:100CC00001158CE5180751F00E3D1C4579F0CE0159
:100CD000DF91CF911F910F910C94AC050E941806E3
:100CE00080E0DF91CF911F910F9108950E94EC2237
:100CF000F7CF90E080E008950895972F70E02CE002
:100D0000929F600D711D1124FB0190E3899FE00DFE
:100D1000F11D1124EE0FFF1FEC5AFF4F85919491A6
:100D20000895FC01EE0FFF1FEC56FD4F8591949145
:100D30000895CF93DF930E947D060E94A907EC01DE
:100D40008115904508F042C0C11580E4D80708F02D
:100D5000B8C0C03ED10518F5C03CD10508F0A0C010
:100D6000C83AD10570F4C53AD10508F091C0C13038
:100D7000D10501F118F0C430D105E0F4D0E0C0E0B5
:100D800019C0CF3BD105D0F7C85AD0E0CC0FDD1F3A
:100D9000C85FDE4F0990D881C02DD4640BC0C11547
:100DA00020E2D20758F4C11581E0D80718F4C83EF4
:100DB000D10520F7CE01DF91CF910895C11520E331
:100DC000D20708F074C0CE019F706DC0C11585E5D3
:100DD000D80760F5C11524E5D20708F0A0C0C115F9
:100DE00082E5D80750F4C11521E5D20708F46CC09C
:100DF000DC2FCC27C16FD06ADDCF9C2F96959695BE
:100E00009E0123703327C115D34508F079C0C1E096
:100E1000D0E002C0CC0FDD1F2A95E2F720E2929FBE
:100E2000C0011124C82BD92BDC68C4CFC11529E51A
:100E3000D207A8F4C11588E5D80708F075C0C11518
:100E400026E5D20708F09ACF8C2F0E944408C82FBD
:100E5000D0E0DC2FCC27CC27DF71D062ABCFC1151F
:100E60008AE5D80708F465C0CE01905681159042F6
:100E700008F084CF8D2F8F710E944408DD27D06247
:100E800090E0982F882788279F71C82BD92B92CF65
:100E9000C55AD0E0CA5CDE4FC881D0E0D0648ACFAA
:100EA000CE01805C91090E949106EC0183CFCE01B6
:100EB0009927D3FF03C0EC01D86C7CCFEC01D06C38
:100EC00079CFDF70D06A76CFCE01F4E09695879522
:100ED000FA95E1F783709C2F937021E030E002C017
:100EE000220F331F9A95E2F73C68382BC695C695BA
:100EF000C37080E2C89FE0011124C22BD32B5ACFCC
:100F0000C1E0D0E002C0CC0FDD1F2A95E2F720E25D
:100F1000929FC0011124C82BD92BDA684BCFDC2F4C
:100F2000CC27C46FD06A46CFDC2FCC27C06FD06AE5
:100F300041CF8C2F8F700E94440834E0D695C7951E
:100F40003A95E1F7CF70D0E0DC2FCC27D069C82BE1
:100F500031CF82389105B1F1B0F48133910509F4B4
:100F600071C048F48932910509F467C08A3291054D
:100F700009F46DC008958533910509F459C089338A
:100F8000910501F10895833E9105A9F138F4803E61
:100F90009105F9F0823E910549F10895863E91054B
:100FA000A9F1873E9105C9F1843E910519F520917B
:100FB000100321FF1FC080910F0384FD14C087EE32
:100FC00090E0089520910F032370A1F080EE90E04F
:100FD000089520910F0320FD3FC03091100330FF92
:100FE00009C024FF3CC090E080E0089520910F03E9
:100FF00022FDF7CF089520910F0322FD33C03091D9
:10100000100330FDE3CF24FDEECFF4CF20910F038A
:1010100023FFF0CF24FDE7CFD2CF20910F0323FD94
:1010200024C03091100331FFEECF84EE90E008959C
:1010300020910F0325FD1CC0089520910F0325FD6D
:101040001AC0089520910F0326FD18C0089520911D
:101050000F0326FD16C0089589E390E0089583EEFE
:1010600090E0089582EE90E0089586EE90E0089575
:1010700089E290E0089585E390E008958AE290E0A7
:10108000089581E390E0B6CF90910F0392FF06C0E0
:10109000282F28712830F9F4877F846093FF06C0D9
:1010A000282F28712831F1F4877E84612091100364
:1010B00020FF06C0382F38713830D9F4877F81601F
:1010C00021FF06C0282F28712831D1F4877E816145
:1010D00094FD877E0895282F24712430F9F68B7FA4
:1010E0008860DCCF282F2471243101F78B7E886142
:1010F000DDCF382F3171313019F78E7F8860E0CF26
:10110000282F2171213121F78E7E8861E1CF08954A
:101110000C94870808950C948A08E82FF0E0EE0FED
:10112000FF1FE251FD4F808191810895089588E766
:101130008A95F1F70895CF93DF93A5E4B1E049E4F0
:1011400051E0C1E0D0E08D91E82FE295EF70F0E042
:1011500061A98F709E0101C0220F8A95EAF7922F34
:101160009095962391AB82A9822B82AB4A175B079D
:1011700051F7A9E3B1E045E451E0C1E0D0E08D9141
:10118000E82FE295EF70F0E061A98F709E0101C039
:10119000220F8A95EAF7922F9095962391AB82A918
:1011A000822B82AB4A175B0751F71092E70210922D
:1011B000E6021092EF021092EE021092E9021092F3
:1011C000E8021092F1021092F0021092EB021092DB
:1011D000EA021092F3021092F2021092ED021092C3
:1011E000EC021092F5021092F40284E00E9482094F
:1011F000DF91CF910C94FA058F929F92AF92BF929C
:10120000CF92DF92EF92FF920F931F93CF93DF93D2
:1012100005E411E086EEE82E82E0F82E912CAA2457
:10122000A394B12CF80181918F01C82FC295CF7082
:10123000D0E099A98F70650101C0CC0C8A95EAF7BE
:10124000892F8C2989AB8AA98C2C809488218AAB20
:101250000E949708E9E3F1E050E040E030E020E050
:101260006191A62FA295AF70B0E0D0968C9190E0DE
:101270006F7002C0959587956A95E2F780FD3DC035
:10128000C501042E02C0880F991F0A94E2F7282B8B
:10129000392B4F5F5F4F4C30510511F789A98822D8
:1012A00089AA8AA9C82ACAAAF701819191917F01C6
:1012B0002817390729F132973183208381E0982A52
:1012C000F1E009341F0709F0ADCF292D44E06EEE9F
:1012D00072E086EE92E00E9483090E940406892D46
:1012E000DF91CF911F910F91FF90EF90DF90CF9002
:1012F000BF90AF909F908F90089590E080E0C7CF0F
:1013000080E0DDCF0895FF920F931F93CF93DF937B
:10131000F82E092F162FD72FC42F222349F081E052
:101320008093A8010E945E239093A7018093A60159
:101330008091A8018823A1F08091A6019091A70136
:101340000E946A23069760F0EF2DF02FA12FBD2F8A
:1013500090E080E0D0E08C179D0744F01092A80147
:10136000DF91CF911F910F91FF90089521913191BD
:101370002D933D930196EFCFAF92BF92CF92DF9224
:10138000EF92FF920F931F93CF93DF939B01E82F70
:10139000F0E0E25DFB4F31110EC06491762F862F95
:1013A000DF91CF911F910F91FF90EF90DF90CF9041
:1013B000BF90AF900895C32FD0E0E491FE2FEE2EA2
:1013C000F12C46E0649FC00111240FEF10E0B8013A
:1013D0000E94D826AB01822F90E0880F991F25E547
:1013E000249FB001259F700D1124861B970B982F09
:1013F000990F980FB8016C1B7D0B6E9DD0016F9DEE
:10140000B00D7E9DB00D11248B2F939F9001112460
:10141000232F3327B801621B730B6E9D90016F9DC4
:10142000300D7E9D300D1124732F5801A91AB1087B
:10143000AC9E6001AD9ED00CBC9ED00C1124CD2C76
:10144000DD240C191D090E9DE0010F9DD00D1E9D80
:10145000D00D112442305105B1F050F44115510521
:1014600071F04130510569F07E2FEB2F832F09C0B9
:101470004430510579F050F046305105A9F77E2FE0
:10148000ED2F6E2F8DCF7B2F8D2FFBCFE32F7B2F5B
:101490008F2FF7CF7D2FEB2FFBCF0895CF93DF93C7
:1014A000762FE901682F842F0E94BC097983688315
:1014B0008A83DF91CF9108958091F602982F9E7FC5
:1014C00029F4817082608093F60208958635E8F3EE
:1014D00081708465F8CF88E090E00C94B327CF92B8
:1014E000DF92EF92FF926B017C010E945C0AB701D0
:1014F000A60188E090E0FF90EF90DF90CF900C94F1
:10150000D027E6EFF2E083E0808311828FEF8283C1
:101510008383148260817181828193810C946F0A2C
:101520008091F60280FF02C08695089580E00895BC
:101530008091FA02833018F48F5F8093FA026091F1
:10154000F6027091F7028091F8029091F9020C94E2
:101550006F0A8091FA02882319F081508093FA0271
:101560006091F6027091F7028091F8029091F90271
:101570000C946F0A70E00C9402136091E900809162
:10158000F60280FF0AC08091E80023E0829FC0013C
:10159000112485509D4F0C94BA0A8091EA009091D5
:1015A000EB0023E0829FF0011124E550FD4F8917E5
:1015B00050F71182108212828F5F3396F8CF90918C
:1015C000F60290FF14C09091EA002091EB0033E006
:1015D000939FF0011124E550FD4F921710F00C94E9
:1015E000BD0A8183608342839F5F3396F6CF08955F
:1015F000CF93DF9300D01F92CDB7DEB79091F60264
:1016000090FF0AC09E012F5F3F4F0E944E0A4B8100
:1016100069818A810E94DF0A0F900F900F90DF91FD
:10162000CF910895CF93DF93EC01EC81F0E0E75583
:10163000FD4F4491E6EFF2E0628181810E94F80A59
:101640008C818F5F8C83DF91CF910895CF93DF934F
:10165000EC01E6EFF2E0438162818C810E94F80A9E
:101660008C818F5F8C83DF91CF9108950F931F93AF
:10167000CF93DF9300D01F92CDB7DEB78C0180915E
:10168000A90181110AC09E012F5F3F4F4FEF6FEFFD
:101690000E944E0A8A818093A901F80184818130D9
:1016A00069F038F04091A901823009F040E080E013
:1016B00003C08091A90140E060E004C06091A901ED
:1016C00040E080E00E94DF0AF801848190E001960A
:1016D00063E070E00E94EC2684830F900F900F90DF
:1016E000DF91CF911F910F910895AF92BF92CF924A
:1016F000DF92EF92FF920F931F93CF93DF9300D06F
:101700001F92CDB7DEB7182FF62E042FE22E909140
:10171000F60290FF29C0E92FE695AE2FB0E0A75B57
:10172000BE4F8C918093CC019E7F923059F59E01E3
:101730002F5F3F4F812F0E944E0A4B8169818A8122
:101740000E94DF0A1093F702F092F8020093F90268
:10175000EE2051F06091F6027091F7028091F8024C
:101760009091F9020E946F0A0F900F900F90DF91F5
:10177000CF911F910F91FF90EF90DF90CF90BF908E
:10178000AF900895823019F40091F902DBCF8630D2
:1017900019F41091F702D6CF8930D9F3893191F637
:1017A000E9518E2F8170D82EE695F0E0E755FC4F79
:1017B000A590B490C12CBB246091EC00C61618F023
:1017C0000E94BD0ABFCF2C2D30E0A29EC001A39E77
:1017D000900DB29E900D112470E00E94D826812FAA
:1017E000D11013C0860F4091EA00420F532F511DB4
:1017F0009A01220F331F240F351F25503D4F402FD4
:101800006F2D0E944E0AC394D7CF861BECCFE6EF14
:10181000F2E09181282F4381628188E0890F0C9446
:10182000750B81E00C94070CE6EFF2E09181282F14
:101830004381628188EF890F0C94750B81E00C94D1
:10184000140CE6EFF2E0628121E1620F08F46FEF21
:10185000282F438181810C94750B81E00C94210C1D
:10186000E6EFF2E0628121E1621B08F460E0282FDC
:10187000438181810C94750B81E00C94300CE6EF70
:10188000F2E0438121E1420F08F44FEF282F6281FB
:1018900081810C94750B81E00C943F0CE6EFF2E033
:1018A000438121E1421B08F440E0282F62818181BD
:1018B0000C94750B81E00C944E0C20E00C94750B8D
:1018C0009091F60290FF0FC0253068F430E0F901E6
:1018D000EE0FFF1FE20FF31FE550FD4F8183608382
:1018E00042830C94BD0A0895EF92FF921F93CF9309
:1018F000DF93EC0110E0EE24EA94F12C6091EC000F
:10190000161770F00E94BD0A9A818C8190FF27C043
:101910008F5F8C83DF91CF911F91FF90EF9008959F
:101920002091EA00422F410F5527551FCA019A0105
:10193000220F331F280F391F25503D4F70E0C7017C
:101940000E94EC26962F8C814091F9026091F8025A
:10195000199F800D11240E944E0A1F5FCFCF815026
:10196000D8CFAF92BF92CF92DF92EF92FF920F93B8
:101970001F93CF93DF93FC01828101E080FD0FEF85
:1019800010E045E0A42E8091EC001817C8F00E94EA
:10199000BD0A8091AB01013009F055C0811102C030
:1019A0008091EC0081508093AB01DF91CF911F912A
:1019B0000F91FF90EF90DF90CF90BF90AF90089580
:1019C000C091EA00C12ED12CCC0DDD2DD11DCE0150
:1019D000880F991FC80FD91FC550DD4F1982188273
:1019E0001A8234E0E32EF12CB12C8091AB018B0DE7
:1019F00086301CF16A2D0E94CA26892F082E000C01
:101A0000990BC816D90691F48091F9028E9DA00118
:101A10008F9D500D112455954795559547959E01DD
:101A20006091F8028091F7020E944E0AB00EF1E038
:101A3000EF1AF108D1F61F5FA6CF87FFDFCF909195
:101A4000EC00890FDBCF90E001966091EC0070E034
:101A50000E94EC26A8CF0F931F93CF93DF93809122
:101A6000EA009091EB0023E0829FF0011124E55001
:101A7000FD4F891740F1C0E0D3E06091EC00C6173C
:101A800040F10E94BD0A2091E6008091AA01820FD8
:101A90008093AA019091E700920F9093E7001916A6
:101AA00054F4082E000C990B4091EC004150550B5A
:101AB000841795071CF021952093E600DF91CF91C4
:101AC0001F910F9108951182108212828F5F3396B9
:101AD000D0CF0C2F10E070E0C8010E94EC262091BE
:101AE000EA00820F482F50E02091AA01022E000C3C
:101AF000330B02171307BCF02091E700022E000CF5
:101B0000330B201731077CF08D9F90011124255055
:101B10003D4F4091F9026091F8028091F7020E94D6
:101B20004E0ACF5FAACFFA01EE0FFF1FE40FF51F99
:101B3000E550FD4F118210821282F3CF0F931F9355
:101B4000CF93DF938C01FC01848195810196817094
:101B5000992795838483C0E0D5E58091EC00C81770
:101B600030F0DF91CF911F910F910C94BD0A20911D
:101B7000EA00422F4C0F5527551FCA019A01220F28
:101B8000331F280F391F25503D4F8C2F8695F801A4
:101B900044815581840F952F911D81704091F902E8
:101BA0006091F8028D9F802D11240E944E0ACF5F14
:101BB000D4CF0F931F93CF93DF93EC0110E000E09D
:101BC0009091EC009017110609F06CF40E94BD0A88
:101BD0008C8190E00196817099278C83DF91CF9161
:101BE0001F910F9108952091EA00A801420F511D05
:101BF0009A01220F331F240F351F25503D4F4C8172
:101C00006091F8028091F70296959017110651F0B5
:101C10004CF0442349F04091F9020E944E0A0F5FB4
:101C20001F4FCECF4423B9F340E0F7CF8F929F925E
:101C3000AF92BF92CF92DF92EF92FF920F931F93DA
:101C4000CF93DF93FC01B280948081E0848300E035
:101C500015E05BE4A52E88248394EE24EA94F12C0D
:101C60007BE4C72ED12C8091EC00081770F0DF9137
:101C7000CF911F910F91FF90EF90DF90CF90BF9089
:101C8000AF909F908F900C94BD0AC02FD0E01C9F06
:101C9000F0011D9FF00D1124E455FE4F91101CC062
:101CA000138212822091EA00CE01820F911D9C01C5
:101CB000220F331F280F391F25503D4F1C9FF00165
:101CC0001D9FF00D1124E455FE4F428161818081FA
:101CD0000E944E0A0F5FC7CF2381222379F1215042
:101CE000238334818A2D821B311101C0822F1C9FD6
:101CF000F0011D9FF00D1124E455FE4F9091F90263
:101D0000899FC0011124B6010E94D8266283211147
:101D100004C0332311F01482A38222E02B1510F2A9
:101D20001C9FF0011D9FF00D1124E455FE4F809182
:101D3000F70280838091F8028183B4CF0E948E27BE
:101D4000823091400CF0AECF82E08B1530F50E94CE
:101D50008E27B7010E94EC261C9FF0011D9FF00DFD
:101D60001124E455FE4F808322E02B15C8F40E9415
:101D70008E272091F8022695622F70E00E94EC26B3
:101D8000280F1C9FF0011D9FF00D1124E455FE4FFC
:101D900021831282A382848285CF8091F702DCCFD7
:101DA0002091F802EECFE6EFF2E080818E7F808313
:101DB00060817181828193810E946F0A1092CD01AE
:101DC0002FEB84ED91E0215080409040E1F700C07E
:101DD00000000C94BD0A6091F602669570E04BE03D
:101DE00050E08DEE90E00E949E27892B19F481E04F
:101DF0008093CD010E945E239093C6018093C5011C
:101E000008959091F60290FF35C09170811128C01D
:101E100092609093F602662351F06091F602709101
:101E2000F7028091F8029091F9020E946F0A609186
:101E3000F602669570E04BE050E08DEE90E00E9477
:101E40009E27892BA1F01092CD0181E08093C801DB
:101E50004091F9026091F8028091F7020C945D0CB8
:101E60008B3210F09465D5CF880F982BD2CF0E947B
:101E7000EB0EEBCF0895682F9091F602969581E0D6
:101E8000890F8B3208F081E00C94010F81E00C94F3
:101E90003B0F682F9091F60296958FEF890F09F40A
:101EA0008AE20C94010F81E00C94490F61E00C94DC
:101EB000010FE6EFF2E080818160808386950C94CB
:101EC000560F8091F60280FD0C94D30E0C94590F9E
:101ED00060E00C94010F8091CB0181112EC00E9413
:101EE0004622811104C00E94EC220E94810A0E94B5
:101EF0006B0A6093F6027093F7028093F802909356
:101F0000F9026E7F61F40E94810A0E946B0A60935D
:101F1000F6027093F7028093F8029093F9020E9400
:101F20005C0A1092CD018091F60280FF03C0869575
:101F30000E94680F81E08093CB0108950F931F9357
:101F4000CF93DF938091CD01882309F49DC08091C8
:101F5000CC01E091F602E695E81BE093C7018230E0
:101F6000C9F5F0E0EB55FD4FE491CE2FD0E002E152
:101F70001BE08091C801882389F01092C8010E945B
:101F80005E239E0120953095820F931F9093C6018A
:101F90008093C5011092CA011092C9018091C501B8
:101FA0009091C6010E946A238C179D0708F46CC0AB
:101FB000E091C501F091C601CE0FDF1FD093C6019D
:101FC000C093C50185EC91E0F801DF91CF911F919D
:101FD0000F910994863049F4F0E0EE55FD4FE491FD
:101FE000CE2FD0E006E21BE0C4CF893051F4E69555
:101FF000F0E0E156FD4FE491CE2FD0E004E71CE085
:10200000B8CF8F3051F4E695F0E0E456FD4FE491FF
:10201000CE2FD0E001EB1CE0ACCF853149F4F0E0ED
:10202000E756FD4FE491CE2FD0E00BE21DE0A1CFAB
:10203000C8EED3E00EE91DE0883109F49ACF83326F
:1020400039F4E7E9F2E0C591D49106E31BE091CFC2
:10205000C4EFD1E009ED1DE0843209F48ACFC0ED70
:10206000D7E00DE41AE0853209F083CF8E2F63E0CC
:102070000E94BE26E92FF0E0EC56FD4FE491CE2FF2
:10208000D0E006E11EE075CFDF91CF911F910F9157
:102090000895FA01811101C0FB010994CF93DF93E8
:1020A000C82FD62F0E94900A8C1740F00E94900AE9
:1020B0008D1720F4DF91CF910C94460F8C2FDF9178
:1020C000CF910C94560F0F931F93CF938C01FB016C
:1020D000C281CC2309F479C00E9491218272F80157
:1020E000E25CFC45E431F105D8F4E758FF4E0C946E
:1020F00022278D1095109C10A110A610AB10B010C7
:10210000B510BA10BF10C410C910CD10D210D51020
:10211000D810DB10DE10E010E3100E94610FC0E069
:102120008C2FCF911F910F91089543E55FE066E4F6
:102130007FE00E944910F3CF46E45FE063E57FE073
:10214000F8CF4EE15CE061E17CE0F3CF41E15CE09F
:102150006EE17CE0EECF4CE35CE06DE27CE0E9CF49
:102160004DE25CE06CE37CE0E4CF4AE55CE06BE4EC
:102170007CE0DFCF4BE45CE06AE57CE0DACF49EA63
:102180005AE068E97AE0D5CF48E95AE069EA7AE0AE
:10219000D0CF81E00E94560FC2CF65E082E00E945E
:1021A0004E10BDCF68E086E0FACF6EE089E0F7CF51
:1021B00064E18FE0F4CF67E185E1F1CF88E1EACF18
:1021C00062E289E1ECCF83E2E5CFC1E0A9CF809163
:1021D0000A038170089580910A03869586958695F5
:1021E000089580910A0381FD07C0826080930A03ED
:1021F0000E9478220C947412089580910A0381FF42
:1022000007C08D7F80930A030E9478220C947E126F
:10221000089580910A0381FD0C94FD100C94F11037
:1022200080910A038695817008958091F800089541
:102230000E944622811102C00E94EC220E94742258
:1022400080930A03883620F08770806680930A03A3
:1022500080910A0380FF05C08695869586950C942B
:10226000501280E0FCCF80910A03982F96959695A6
:1022700096959C3040F49F5F990F990F990F877046
:10228000892B80930A0380910A03816080930A035B
:102290000E94782280910A038695869586950C94F3
:1022A000501280910A03982F987F79F0885080937C
:1022B0000A03887F91E009F490E080910A0390FB83
:1022C00080F980930A030E94782280910A03869500
:1022D000869586950C94501280910A0380FD13C058
:1022E000816080930A03813019F489E080930A03A6
:1022F00080910A030E94782280910A038695869530
:1023000086950C945012089580910A0380FF08C0AE
:102310008E7F80930A030E94782280E00C945012F2
:10232000089580910A0380FD0C9484110C946C1123
:1023300090910A03892F8695869586958F5F8F7178
:1023400097708D30D8F4880F880F880F892B809371
:102350000A0380910A03887F91E009F490E080915C
:102360000A0390FB80F980930A030E9478228091EF
:102370000A038695869586950C94501290930A03CD
:10238000E8CF8D3008F08CE090910A039770282FE9
:10239000220F220F220F922B90930A03987F21E0A5
:1023A00009F420E090910A0320FB90F990930A032E
:1023B0000C9450120E94C11180910A030C9478224F
:1023C000FC01DB0112968C91882331F1EB5BFC451B
:1023D000E730F10510F5E151FE4E0C942227F6117D
:1023E000FB11FD1100120312061209128CE00E946B
:1023F000DA1180E0089580E0FACF0E945111F9CF00
:102400000E943311F6CF0E949111F3CF0E949811D0
:10241000F0CF0E940911EDCF81E008958C9A949835
:10242000089594980895CF92DF92EF92FF928C379F
:1024300024E1920750F469E070E00E94D826CB01B5
:10244000FF90EF90DF90CF900895B0E0A0E0BC0146
:10245000CD016A50774D8F4F9F4F982F872F762F42
:10246000662725EF38E241E050E00E94002769012D
:102470007A01CA01B9010E94AE269B01AC01C701D5
:10248000B6010E94AE26672F782F892F99276115F4
:10249000710521E08207910591F66FEF7FEFCFCFB5
:1024A000CF93C82F8D30D0F4811119C08FB58F7D97
:1024B0008FBD0E9411122C2F30E0AFEFBFEF0E94B2
:1024C00028272CE030E040E050E00E940027C901BE
:1024D0000E94131299BD88BDCF910895CCE08FB5AD
:1024E00080628FBDE8CF08951092CF011092CE0187
:1024F0001092D00189B7846089BF089589B78B7F16
:1025000089BF0E94EB100C9450121F920F920FB6CD
:102510000F9211242F933F934F935F936F937F9369
:102520008F939F93AF93BF93CF93EF93FF930E94AB
:1025300015114091CE015091CF014F5F5F4F94EF45
:10254000899F90011124CA01B9010E94D826909355
:10255000CF018093CE01B901660F672F661F770BFD
:1025600071950E94D8266F778091D001823031F426
:10257000603441F489B78B7F89BF04C0813011F486
:102580006F37C1F3E62FF0E0E255FC4FC4910E9493
:10259000EB10282F41E051E0C49FC001C59F900D72
:1025A00011246CE070E00E94D826269FC001279F6E
:1025B000900D11240E94131299BD88BDFF91EF91D7
:1025C000CF91BF91AF919F918F917F916F915F91CB
:1025D0004F913F912F910F900FBE0F901F90189524
:1025E0000E940E1282E28FBD89E18EBD8FEF9FEFB8
:1025F00097BD86BD0E9418110E94101181110C9484
:10260000741208950F931F93CF93DF938C01EB0106
:102610008091D101811105C00E94A31681E08093B1
:10262000D101AE01440F551F4C0F5D1F24E630E071
:10263000B80180EBDF91CF911F910F910C942A1775
:102640000F931F93CF93DF93C62FD42F022FFC013C
:1026500082818823C9F06093D4010E945E23909305
:10266000D3018093D20180E28C0F883008F057C0EC
:10267000C77081E001C0880FCA95EAF7DF91CF915A
:102680001F910F910C941A191091D401161335C093
:102690008091D2019091D3010E946A23883C9105D8
:1026A00060F5C0E2CD0F1D17B9F080E2810F8830D0
:1026B00040F4177081E001C0880F1A95EAF70E9474
:1026C0002119C83028F581E09D2F977001C0880F2F
:1026D0009A95EAF70E941A19802F0E940719C830AC
:1026E000F0F4D77081E001C0880FDA95EAF7DF9146
:1026F000CF911F910F910C94211980E28C0F88309B
:1027000070F4C77081E001C0880FCA95EAF7EFCF77
:10271000802FDF91CF911F910F910C940719DF91BA
:10272000CF911F910F9108959C01CB01233F4CE560
:10273000340731F190F4283DFCE53F07E9F0293DED
:102740004CE5340769F1273D3C4579F426E241EE3A
:1027500061EE0E94201380E00895253FFCE53F07CD
:10276000B9F090F0263F3C45B9F0FC018281882306
:10277000D1F01092D401089527E245EE65EEE9CF3D
:1027800026E241EE60EEE5CF27E245EE64EEE1CFD2
:1027900026E241EE62EEDDCF27E245EE66EED9CFCE
:1027A00028E241E0EBCF81E00895CF93DF93EC0185
:1027B000FB018281882309F41BC1C230FCE5DF07DD
:1027C000C0F1C6319CE5D90730F09E012A5F3C4537
:1027D0002930310570F50E9459229093100380939F
:1027E0000F03C031ECE5DE0709F4CFC008F057C095
:1027F000C8308CE5D80709F4B2C088F5C430ECE5E0
:10280000DE0709F4A2C0C0F4C2308CE5D80709F491
:1028100096C080910F038260C330DC4509F492C0FA
:1028200080910F03909110030E9467220E94B41BB5
:1028300080E0DF91CF91089580910F038061C630D1
:10284000ECE5DE0709F47EC080910F038860C73095
:10285000DC4508F477C080910F03806273C0CC30F0
:102860008CE5D80709F489C058F4CA30ECE5DE07D6
:1028700009F47FC008F477C080910F038E7F62C097
:10288000CE308CE5D80709F47CC080910F03CF309F
:10289000DC4508F485C080910F038F7E53C0CB3F89
:1028A000ECE5DE0709F455C020F5C3318CE5D80707
:1028B00009F473C078F4C131ECE5DE0709F469C0AE
:1028C000C231DC4509F0ACCF0E94B41B80910F03EC
:1028D0008F7738C0C5318CE5D80709F468C008F493
:1028E0007CC080911003CA3FDC4509F099CF81601C
:1028F00033C0CF3FFCE5DF0709F454C088F4809172
:1029000010038D7FCD3F9CE5D90731F180911003F5
:10291000CE3FDC4508F449C0809110038260E7CFC8
:10292000C130FDE5DF0709F461C008F44CC080E068
:10293000C230DD4509F074CF0E94EE2271CF809144
:102940000F03816080930F036BCF80910F0384602E
:10295000F9CF8091100382608093100361CF809142
:102960000F038064EFCF0E94B41B80910F03806837
:10297000E9CF80910F038860EACF80910F038D7FAC
:10298000E1CF80910F03877FDDCF80910F038F7D93
:10299000D9CF80910F038F7BD5CF80910F03877F95
:1029A0008B7FD0CF809110038D7F8E7FD5CF80918C
:1029B0000F0382FB992790F921E0922790FB82F97F
:1029C00090FB83F9BFCF80911003982F9095917061
:1029D0008E7F892B90FB81F9BFCF0E94B41B909111
:1029E0000F03892F97FB87F98058ACCF81E0A4CFE4
:1029F00081E01FCFCF93DF93EB0186319C4511F52A
:102A00000E9491219A81992399F08A7A91E009F4A0
:102A100090E09093D501811109C089E20E946C2158
:102A20000E94E32180E0DF91CF91089585E3F6CF06
:102A30008091D501811104C089E20E947321F0CFF9
:102A400085E3FBCF81E0EFCFCF93DF93EC0181E013
:102A5000898B8F810E94942188850E94A8210E94E1
:102A6000E321EA81FB816C897D89CE01069630974E
:102A700019F0DF91CF910994DF91CF910895CF9311
:102A8000DF93EC018881823039F4FB0182819381EC
:102A90000E94820581E08B87DF91CF910895FC0130
:102AA0008081813029F4FB01808191810C94820521
:102AB000823021F4FB0182819381F8CF0895FC01DB
:102AC0008081813029F4FB01808191810C949705EC
:102AD000823021F4FB0182819381F8CF0895EF9237
:102AE000FF920F931F93CF93DF93EC018A8581119F
:102AF00034C0EB80FC8087E5F81A26E12E9DC001EA
:102B00002F9D900D1124DC01AC59BF4F1496ED910F
:102B1000FC91159754966D917C9186599F4F3097F3
:102B200009F0099586E18E9D80018F9D100D11247D
:102B30000C591F4FF80187810E949A21F801808566
:102B40000E94AE210E94E321188219861B861E82F4
:102B50001D821092D7011092D601DF91CF911F9163
:102B60000F91FF90EF900895DF92EF92FF920F93F5
:102B70001F93CF93DF937C01FB018281882391F027
:102B80008091F9008F3F71F0C4E6D0E010E000E0E2
:102B9000DD24D3948091F900082E000C990B801746
:102BA000910744F4DF91CF911F910F91FF90EF9027
:102BB000DF9008958E818823C9F089859A858E15C6
:102BC0009F0539F48091D6019091D7018E159F050C
:102BD00069F0DF86FC86EB868989811103C0CE010E
:102BE0000E942415CE0106960E946F150F5F1F4F9D
:102BF0006696D0CFEF92FF920F931F93CF93DF9300
:102C00007C0197558F3F910509F0D8F52091F90087
:102C1000022E000C330B2817390714F48093F900A7
:102C2000FB01228136E1389F8001399F100D11246C
:102C3000E801CC59DF4F288B92818E81992349F18D
:102C4000FA86E9868F5F8E830E945E239E878D873A
:102C50000E94CA218F830E94912188870E94A5210A
:102C60009885892B8887E881F9816C897D89C801DD
:102C700086599F4F309709F00995F092D701E0925D
:102C8000D60181E0DF91CF911F910F91FF90EF90DE
:102C900008958823B1F38989882399F3C801865957
:102CA0009F4F0E946F15EDCFEF92FF920F931F93EE
:102CB000CF93DF938091F90010E006E18F3FC1F5DB
:102CC000DF91CF911F910F91FF90EF900895029F98
:102CD000F001039FF00D1124EC59FF4FE288F388B7
:102CE000E114F10419F488ECE82EF12C029FE001C4
:102CF000039FD00D1124CC59DF4F8E818823B9F06A
:102D00008D859E850E946A23E816F90680F4109F3F
:102D1000700111248989811105C0C7018C599F4F09
:102D20000E942415C70186599F4F0E946F151F5F8F
:102D3000212F30E08091F900082E000C990B8217AA
:102D400093072CF6BDCF11B887E080B985B38360B7
:102D500085BB86B7846086BF86B7816086BF86B72D
:102D6000806486BF0895EF92FF920F931F93CF93D5
:102D7000DF93182FEB0116BE84EA86BF0E945E2304
:102D80007C0106B607FE0BC081B1887F8830D1F088
:102D900081B1887F8031B1F08FEF9FEF0CC0CF3FC2
:102DA000DC0779F30E945E238E199F098C179D071B
:102DB00040F38EEF9FEFDF91CF911F910F91FF9026
:102DC000EF90089513B984E886BF0E945E238C01BA
:102DD00006B607FE09C081B1887F883111F08034C2
:102DE000D9F690E080E0E7CFCF3FDC0789F30E947F
:102DF0005E23801B910B8C179D0750F3DACF0F9346
:102E00001F93CF93DF93EB0183B984E886BF0E94C1
:102E10005E238C0106B607FE10C021B1287F81E039
:102E200090E0283211F490E080E09195819591092D
:102E3000DF91CF911F910F910895CF3FDC0751F3A0
:102E40000E945E23801B910B8C179D0718F38EEF59
:102E50009FEFEECFCF92DF92EF92FF920F931F93EF
:102E6000CF93DF936B018A017901B9010E94B316F8
:102E7000E6010C0D1D1DC017D10759F424E926BF2A
:102E8000DF91CF911F910F91FF90EF90DF90CF9046
:102E9000089597FDF3CFB70189910E94FF16EBCFFC
:102EA0009093DD018093DC010895E091DC01F091C5
:102EB000DD01309721F00190F081E02D099480E050
:102EC0000895E091DC01F091DD01309721F002805E
:102ED000F381E02D099408952091DA013091DB010E
:102EE0002817390771F09093DB018093DA01E091A4
:102EF000DC01F091DD01309721F00680F781E02DB3
:102F0000099408952091D8013091D90128173907E3
:102F100071F09093D9018093D801E091DC01F09198
:102F2000DD01309721F00084F185E02D09940895AA
:102F300084B7806884BF84B7806884BF089508958B
:102F400008950C949F170C94BA040E9498170E943D
:102F5000A0170C94A11781E008950C94AB170E9460
:102F600057230E949B080E94B8230E9418110E94B8
:102F70006B0F0C94A3179F92AF92BF92CF92DF92E8
:102F8000EF92FF920F931F93CF93DF93CDB7DEB7EE
:102F90002A970FB6F894DEBF0FBECDBF0E94FC0883
:102FA0000E94AD17882309F472C05FEDA52E51E091
:102FB000B52E10E000E0902E802F0E948D086C014D
:102FC000F501E190F1905F01E816F90609F459C0A6
:102FD0008091530281FD0E94960897012C253D2582
:102FE00080E0EE24E394F12CA9014E215F21452BD2
:102FF00009F441C08E839F82CE20DF2081E0CD285E
:1030000009F480E088870E945E238160782F9A8788
:1030100089874E815F8168858A850E946A18000FC2
:10302000111FF801E152FE4F80819181E826F926B7
:10303000F182E0820E949E0F0E9473120E94551737
:103040009091DE018917A1F10E9455178093DE014E
:103050002A960FB6F894DEBF0FBECDBFDF91CF9199
:103060001F910F91FF90EF90DF90CF90BF90AF90A6
:103070009F900C940F068F5FEE0CFF1C8C3009F0B4
:10308000B3CF0F5F1F4F0430110509F094CF8FEFBE
:1030900089838A831B820E945E238160782F9D83AF
:1030A0008C8349815A816B818D810E946A18C2CFBD
:1030B0002A960FB6F894DEBF0FBECDBFDF91CF9139
:1030C0001F910F91FF90EF90DF90CF90BF90AF9046
:1030D0009F900895CF93DF93CDB7DEB72B970FB6B0
:1030E000F894DEBF0FBECDBF4F83588769877A87BC
:1030F0008B871E821D8285E0FE013796DE011196C8
:1031000001900D928A95E1F749815A816B817C810A
:103110008D819E812B960FB6F894DEBF0FBECDBF7A
:10312000DF91CF910C94531EFC01808191810C940E
:103130003E21CF93C82F882309F43FC08CEF8C0F1A
:10314000813AA0F46C2F8091FA009091FB000E94CC
:10315000FF22882329F08C2F0E9473210E94E321F3
:103160008C2F0E946C21CF910C94E32180E28C0F74
:10317000883048F4C77081E001C0880FCA95EAF72B
:103180000E949421F0CFEBE5EC0FE33040F4F0E047
:10319000EE55FE4F808190E0CF910C946C17C85A89
:1031A000C73158F4EC2FF0E0EE0FFF1FEC58FE4F44
:1031B00080819181CF910C948217CF9108958823BB
:1031C00029F19CEF980F913A20F40E9473210C94FE
:1031D000E32190E2980F983050F4877091E001C09D
:1031E000990F8A95EAF7892F0E949A21F0CF9BE5E3
:1031F000980F933020F490E080E00C946C17885A7C
:10320000873120F490E080E00C9482170895CF93EA
:10321000C82F0E949918C93349F42FEF8DEE92E020
:10322000215080409040E1F700C000008C2FCF91EA
:103230000C94DF18882321F00E9494210C94E32140
:103240000895882321F00E949A210C94E321089587
:10325000CF92DF92EF92FF920F931F93CF93DF9362
:103260006C01D62FC72FFC01058102950F701281CA
:1032700011110E94B6210E948A21E82E882391F024
:10328000112351F18C2F807F803421F080E28D0F4B
:10329000883010F182E00E942E220E948A2191E063
:1032A000E82EE926FC2EF2949FE0F922EF2DF0E0C3
:1032B000E45AF64E0C9422276E196E19BB19BB19ED
:1032C0000D1A9B199B199B192E1ABD1ACE1ACE1ACC
:1032D000351B9B199B193E1BE12CE4CF0C2F0F7063
:1032E000C07F11F00295007F1123A9F0002359F04F
:1032F00080E28D0F883010F0D11109C0802F0E941C
:1033000094210E94E3218D2F0E94991814C0802FD0
:103310000E94A821F6CF8D2F0E94DF18002359F0BC
:1033200080E28D0F883010F0D11121C0802F0E94D3
:103330009A210E94E321EE2009F4A7C10E94862170
:1033400080FDA3C1F60112820E9480210E94062006
:10335000C6010E94651B0E948021DF91CF911F91C1
:103360000F91FF90EF90DF90CF900C942720802F4B
:103370000E94AE21DECFFC2FFF70FF2EC07FC03237
:1033800019F0F29480EFF822DD2369F0D13049F191
:10339000112391F1002351F1F601858180FFB3CF14
:1033A0008F70858323C0112381F0011106C00E9414
:1033B000CA218F290E941A19BECF0130C1F70E947D
:1033C000CA218F290E94D021B6CF011106C00E94C8
:1033D000D9218F2D0E942119AECF013009F4ABCF36
:1033E000F6CF112329F0033008F0A5CF8F2DE2CFBF
:1033F000023008F0A0CFEDCF002359F3D93349F4C0
:10340000FFEF2DEE82E0F15020408040E1F700C058
:1034100000008D2F0E94DF188ECF8C2F8695869509
:10342000837041F0813081F088EF8F0D843008F493
:1034300050C081CF8D2F9C2F9370111102C090E04E
:1034400080E00E946C1777CF8D2F9C2F9370111105
:1034500002C090E080E00E9482176DCF8C2F8370B5
:1034600009F045C0111135C04D2F42954695477062
:10347000440F440F0D2F0F7010E030E020E0042EB9
:1034800004C0000F111F221F331F0A94D2F760E0FF
:1034900070E0CB01D4FF0FC06FE070E080E090E0FF
:1034A00004C0660F771F881F991F4A95D2F7609551
:1034B000709580959095602B712B822B932BC695E0
:1034C000C695C370C23069F078F4C13039F00E94FB
:1034D000981F0E9455170E940F062DCF0E94861F2D
:1034E000F8CF0E94AA1FF5CF0E94841FF2CF8695C5
:1034F000112311F08C2F8170882359F34D2F4295A1
:1035000046954770440F440F0D2F0F7010E030E0C8
:1035100020E0042E04C0000F111F221F331F0A9445
:10352000D2F760E070E0CB01D4FF0FC06FE070E035
:1035300080E090E004C0660F771F881F991F4A95AE
:10354000D2F76095709580959095602B712B822BAA
:10355000932BC695C695C370C23049F058F4C1305C
:1035600019F00E947D20B5CF0E946B20B2CF0E943F
:103570008F20AFCF0E94C01FACCFCF70112339F086
:103580008C2F0E9406208D2F0E941A19A2CF8D2FFA
:103590000E9421198C2F0E9427209BCFD23F99F1A6
:1035A00070F4D03FD9F0D13F39F1112309F449C06B
:1035B000002309F443C08D2F0E94991835CFD33FC3
:1035C00049F1D43F91F7112379F1CF718C2F0E94EB
:1035D000062063E08C2F0E94192226CF112341F090
:1035E000023008F021CF8C2F8F710E944A201CCF0F
:1035F000033008F019CFF7CF8C2F8F71112339F0DA
:103600000E94062011CF8C2F8F711123C9F30E94C5
:1036100027200ACF112329F08C2F8F710E94F11FD0
:1036200003CF0E94CC1F00CF81E00E942E220230E7
:1036300008F4FACE82E00E942E22F6CE8C2F8F71F3
:10364000DFCF002379F0D93349F49FEFEDEEF2E0BC
:103650009150E040F040E1F700C000008D2F0E9443
:10366000DF18E2CE8C2F8F71D2CF4C2F4F706D2F81
:10367000C6010E9479060E94FC1E5DCE4C2F4F7041
:103680006D2FC6010E947C0656CEDF91CF911F910F
:103690000F91FF90EF90DF90CF9008950F931F93BD
:1036A000CF93DF93EC01688179818A810E94482160
:1036B0008C010E94A1200E94831FB801CE01DF91DE
:1036C000CF911F910F910C942819CF93DF93EC01A8
:1036D000988189812B813C81232B39F08F3F19F40C
:1036E00081E09F3F19F080E001C081E080FD19C0BA
:1036F000CE010E94270681110CC00E948A218823D6
:1037000081F08A81882369F082E0DF91CF910C9467
:103710002E22CE010E944E1BCE01DF91CF910C9440
:10372000EF05DF91CF910895882321F00E94A82111
:103730000C94E3210895882321F00E94AE210C947B
:10374000E32108950E94B6210E94C7210E94E3212F
:1037500090E080E00E946C1790E080E00C9482176B
:103760000E947A210C94A21B0E94A2210C94B01BEF
:10377000E92FE295EF70E250EE30E0F4F0E0ED5327
:10378000F44E0C942227D11BD11BDA1BDA1BDC1B55
:10379000DA1BDA1BDA1BD11BD11BE11BDA1BDA1B8C
:1037A000E11B803F19F020F4883E20F481E0089569
:1037B000843FE1F380E00895883EC0F3813FD1F774
:1037C000F5CF93FB882780F908950E943E210C9441
:1037D000B81BCF93DF9300D000D01F92CDB7DEB7D8
:1037E0000F900F900F900F900F90DF91CF91089551
:1037F000CF93DF9300D000D000D0CDB7DEB72696B0
:103800000FB6F894DEBF0FBECDBFDF91CF91089504
:103810001F93CF93DF93C091E80116E08091E901F7
:103820008C1304C0DF91CF911F910895D0E01C9FAD
:10383000F0011D9FF00D1124E651FE4F4081518192
:1038400062817381848195810E94F81B2196C770E3
:10385000E5CF40911A0250911B0260911C027091B9
:103860001D0280911E0290911F020C94F81B0F9371
:103870001F93CF93DF9380911F02807FB9F48091D3
:103880001C02882399F08091E8011091E901609170
:103890001A0270911B02C0911D02D0911E0221E0FC
:1038A0006F3F09F020E006E0181305C0DF91CF91CB
:1038B0001F910F91089531E0209721F0322F7F3F23
:1038C00009F030E090E030FD33C0089FF001099F1F
:1038D000F00D1124DF01A651BE4F11963C911197B6
:1038E000371326C03C91361323C012963C91129791
:1038F00031111EC013964D915C914C1B5D0B483CE1
:103900005105B0F480911F028F70806180931F0277
:10391000E151FE4F80818F70806180838AE192E067
:103920000E94651BDF91CF911F910F910C94081C91
:1039300001968770B9CF9F92AF92BF92CF92DF92DC
:10394000EF92FF920F931F93CF93DF93CDB7DEB724
:1039500061970FB6F894DEBF0FBECDBF8C0185E036
:10396000F801DE011D9601900D928A95E1F7F801AC
:1039700040815181E28090911A0260911B02209156
:103980001D0230911E0281E02115310531F06F3F9B
:1039900019F481E09F3F09F080E0F82FF1709F2E2D
:1039A00080FD65C1F801A380B4808AE1C82E82E061
:1039B000D82EF0901C02F501E21BF30BFF2009F456
:1039C00004C180911F02782F707FE83CF10508F058
:1039D000BAC0711181C0FE2C651324C0941322C09B
:1039E000E11020C08F70806180931F020E94291C0B
:1039F000C6010E94651B80911F02F80185838F2DEF
:103A000061960FB6F894DEBF0FBECDBFDF91CF91A8
:103A10001F910F91FF90EF90DF90CF90BF90AF90EC
:103A20009F90089581E0AB2831F05F3F19F481E069
:103A30004F3F09F080E080FD23C081E08E25F82F04
:103A4000F170DF2E80FF3EC08091E8012091E901F6
:103A500036E0821317C04D875E878D859E850E9454
:103A60003E21292F22952F70223000F1243028F595
:103A70009F7001F1F8019581907FE1F4F92CBFCF9F
:103A800080E0DDCF90E0389FF001399FF00D1124E8
:103A9000E651FE4F6181561306C06081461303C094
:103AA00062816E110FC001968770D3CF9F7011F0A5
:103AB000882321F3805E883008F3C8010E94651BCB
:103AC0009D2CDCCFEE2009F49ACF80911F028160FB
:103AD00080931F02F12C93CF651306C0941304C08A
:103AE000F801EE2009F48DC04D875E878D859E8597
:103AF0000E94E51B882319F1EE2009F180911F0235
:103B0000803270F020911A0230911B0238872F8387
:103B10001986BB86AA868C87CE0107960E94651BF4
:103B200086E0F801AAE1B2E001900D928A95E1F7F2
:103B30000E94371C0E94291CFF24F39460CFC80107
:103B40000E94651BF9CF711113C07A2DB98AA88A1A
:103B50006E2D89890E94E91B8AE192E00E94651B13
:103B600086E0F60111928A95E9F70E94291CB2CFEE
:103B700065130FC094130DC0E1100BC0F8018583CD
:103B8000C8010E94651B86E0F60111928A95E9F74B
:103B900036CF4D875E878D859E850E94E51B8823E5
:103BA00071F2EE2061F280911F02803208F4B8CFEA
:103BB00020911A0230911B023A8329831B82BD8215
:103BC000AC828E83CE010196A9CFE83CF10508F0C6
:103BD00041C0FE2CEE2009F4B2CF65132AC0941325
:103BE00028C080911F0280FD1BC0982F907FC1F0DC
:103BF000F8018583903F31F0982F907F905F8F7010
:103C0000892B8583C8010E94651B86E0F801AAE123
:103C1000B2E001900D928A95E1F70E94291CEFCE47
:103C200086E0F801AAE1B2E001900D928A95E1F7F1
:103C3000E6CE4D875E878D859E850E94E51B8111AE
:103C40006FCF80911F02816080931F02C8010E9484
:103C5000651BD5CE7A2DB98AA88A6E2D89890E94D6
:103C6000E91B86E0F60111928A95E9F7D6CFEE209E
:103C700009F465CF4D875E878D859E850E94E51B83
:103C8000F82E882309F45BCF86E0F801AAE1B2E0C0
:103C900001900D928A95E1F78AE192E00E949418D2
:103CA0000E94371CBACF1F93CF93DF93CDB7DEB7F7
:103CB0002C970FB6F894DEBF0FBECDBF4F83588749
:103CC00069877A878B879C87CE0107960E949B1C09
:103CD000882309F442C09F8188852A853B85232B50
:103CE00039F08F3F19F481E09F3F19F080E001C067
:103CF00081E080FD08C04F81588569857A858B8574
:103D00009C850E94F81B16E08091E8019091E901E2
:103D1000891709F467C0819FC001112486519E4F05
:103D20000E949B1C882309F45DC0E091E8011E9F5E
:103D3000F0011124E651FE4F40815181628173816F
:103D4000848195810E94F81B8091E80190E00196A2
:103D5000877099278093E801D7CF86E0FE013796D8
:103D6000DE01119601900D928A95E1F79F81888579
:103D70002A853B85232B39F08F3F19F481E09F3F43
:103D800019F080E001C081E080FDBDCF2091E90104
:103D900030E0C9010196877099274091E8014817E2
:103DA000190699F096E0929FD001939FB00D1124CF
:103DB000A651BE4FFE01319601900D929A95E1F702
:103DC0008093E9010E94081C9ECF0E94B41B1092B0
:103DD000E9011092E80186E0EAE1F2E0DF011D92DC
:103DE0008A95E9F72C960FB6F894DEBF0FBECDBFCB
:103DF000DF91CF911F910895EF92FF920F931F9340
:103E0000CF93DF938C01892B81F0F12CEE24E39486
:103E1000E8012196F8018491843770F4843008F029
:103E20005FC08130B1F08230A1F1DF91CF911F915D
:103E30000F91FF90EF900895853709F44CC008F476
:103E40003DC09CE7980F903780F78F770E94DF186E
:103E500049C00E5F1F4FFE01849190E2980F983089
:103E600060F48770FE2D01C0FF0F8A95EAF78F2F4F
:103E70000E94B9210E94E32102C00E9499188F2D4F
:103E8000815030F2E7EBFBE03197F1F700C0000022
:103E9000F7CF0E5F1F4FFE01849190E2980F98308C
:103EA00050F48770FE2D01C0FF0F8A95EAF78F2F1F
:103EB0000E94BF21DFCF0E94DF18E1CF0E5F1F4FAE
:103EC000FE01C491C150D8F287EB9BE00197F1F756
:103ED00000C00000F7CF0E5F1F4FFE01F490CFCF60
:103EE0000E9499188E01CBCF08950C94741F0E94E4
:103EF000751F609342027093430280934402909333
:103F000045020C94A21B08950C94771F0F931F93E6
:103F100000914202109143022091440230914502E7
:103F2000602B712B822B932B1F910F910C94771F79
:103F30000F931F930091420210914302209144027B
:103F40003091450260237123822393231F910F91A7
:103F50000C94771F0F931F9300914202109143021C
:103F600020914402309145026027712782279327D0
:103F70001F910F910C94771F0C94741F0C94BC1F0D
:103F80000E94BE1F60933E0270933F0280934002E6
:103F9000909341020C94A21B60E070E0CB010C9462
:103FA000C01F611571058105910529F481E0442345
:103FB00061F080E00895DC01CB0104C0B695A795BF
:103FC000979587954A95D2F781700895482F60910B
:103FD0003E0270913F0280914002909141020C9408
:103FE000D11F0F931F9341E050E060E070E08A0121
:103FF0009B0104C0000F111F221F331F8A95D2F7A7
:10400000C901B8011F910F910C94C01F0F931F930A
:1040100041E050E060E070E004C0440F551F661FAF
:10402000771F8A95D2F780913E0290913F02A0912E
:104030004002B09141028A019B01082B192B2A2BC7
:104040003B2BC901B8011F910F910C94C01F0F9316
:104050001F9341E050E060E070E004C0440F551F42
:10406000661F771F8A95D2F7CB01BA0160957095CC
:104070008095909500913E0210913F022091400260
:104080003091410260237123822393231F910F916A
:104090000C94C01F0F931F9341E050E060E070E06C
:1040A00004C0440F551F661F771F8A95D2F7809171
:1040B0003E0290913F02A0914002B09141028A01DC
:1040C0009B01082719272A273B27C901B8011F91FF
:1040D0000F910C94C01F0F931F9300913E021091FB
:1040E0003F022091400230914102602B712B822BC4
:1040F000932B1F910F910C94C01F0F931F9300914E
:104100003E0210913F022091400230914102602313
:104110007123822393231F910F910C94C01F0F933F
:104120001F9300913E0210913F0220914002309176
:10413000410260277127822793271F910F910C94CA
:10414000C01F08952CE0929F800D1124982F977026
:1041500071E001C0770F9A95EAF786958695869566
:1041600025E0829FC001112450E040E0A62FB0E07E
:10417000FC01E40FF51FE05EFD4F60819D01042E00
:1041800002C0369527950A94E2F7217021952627DB
:104190002723262720834F5F5F4F4530510541F786
:1041A00008952CE0929F800D1124982F977086958A
:1041B0008695869525E0829FA001112470E060E03D
:1041C00080E0FA01E60FF71FE05EFD4F208130E04E
:1041D000092E02C0369527950A94E2F721703327FD
:1041E000062E01C0220F0A94EAF7822B6F5F7F4FE1
:1041F0006530710531F70895BF92CF92DF92EF924B
:10420000FF920F931F93CF93DF938C01C0903E02D8
:10421000D0903F02E0904002F09041028091420233
:1042200090914302A0914402B0914502C82AD92A34
:10423000EA2AFB2ACFE1D0E0BC2ED701C6010C2E22
:1042400004C0B695A795979587950A94D2F780FDF7
:104250000EC0219788F7B12C8B2DDF91CF911F9144
:104260000F91FF90EF90DF90CF90BF900895B8012D
:104270008C2F0E949906019761F3EECFCF93DF93C5
:10428000EC010E94FC20BE01DF91CF910C949906B5
:104290001F93CF93DF93EB019091E701992331F0C6
:1042A000CB01DF91CF911F910C943E21882379F0AF
:1042B000CB010E94FC20182F682FCE010E94A22063
:1042C000BE01812FDF91CF911F910C949906CB01F4
:1042D0000E94D120182FF4CF682F8091FA0090917E
:1042E000FB000C943523682F8091FA009091FB001D
:1042F0000C9437238091FA009091FB000C943923A1
:104300008091460285958595859508958091460210
:104310008770089590914602977081E009F480E0DB
:10432000089580915202089590915202892B8093B2
:1043300052020895982F909580915202892380937C
:1043400052020895109252020895809151020895E8
:1043500090915102892B809351020895982F909546
:104360008091510289238093510208951092510245
:10437000089590915002892B809350020895982FB0
:104380009095809150028923809350020895109255
:104390005002089580914702089508950C94CD210C
:1043A00090914702981721F0809347020C94CE21F8
:1043B000089580914702882329F01092470280E0F7
:1043C0000C94CE210895E091FA00F091FB008091C9
:1043D00052028083E091FA00F091FB00808190917D
:1043E0005102892B8083E091FA00F091FB008081DB
:1043F00090915002892B808390914702992381F0FC
:10440000E091FA00F091FB008081892B80838091FC
:10441000FA009091FB000E94F32281110E94D921A1
:104420008091FA009091FB000C94611708950C9410
:10443000162298E0899F90011124622B6093460216
:104440000E940620809146028595859585950C945D
:1044500017221092460280E00C9417229091460297
:104460008095892380934602282F277071F4282F86
:10447000082E000C330B9217130639F0859585959D
:1044800085950E9427200C942922089590E080E0D1
:104490000E94B92721E08C3E9E4F09F020E0822F38
:1044A000089582E090E00C94AB2783E090E00C94B8
:1044B000AB27CF9384E090E00E94AB27C82F81E226
:1044C00090E00E94AB27982F8C2FCF910895CF9327
:1044D000C92F682F84E090E00E94BF276C2F81E2F3
:1044E00090E0CF910C94BF2786E090E00C94AB272E
:1044F000682F86E090E00C94BF27AB01BC018FE0F1
:1045000090E00C94D027AB01BC0183E190E00C94C7
:10451000D02760E070E0CB010C94832260E070E073
:10452000CB010E947D220C9489226CEE7EEF90E0FC
:1045300080E00E94DC2760E082E090E00E94BF27DC
:1045400060E083E090E00E94BF2710924202109248
:104550004302109244021092450260E084E090E031
:104560000E94BF2760E081E290E00E94BF2760E0E8
:1045700085E090E00E94BF2760E086E090E00E9426
:10458000BF276FEF87E090E00E94BF2740E050E038
:10459000BA0188E090E00E94D02760E08DE090E0D2
:1045A0000E94BF2740E050E0BA0188E190E00E94FD
:1045B000D02760E087E190E00E94BF2740E050E014
:1045C000BA018CE190E00E94D02760E080E290E0A8
:1045D0000E94BF270C948E220C949522682F8EE0A7
:1045E00090E00C94BF27FC01329697E080E0915058
:1045F00009F4089521912223D1F38F5FF8CF662328
:1046000049F0FC01329608962191261729F0E81707
:10461000F907D1F780E0089581E008959C01FC013D
:1046200032969FEF80E04191461751F09F3F19F479
:10463000411101C0982F8F5F8630A9F79F3F09F481
:104640000895290F311D97FD3A95F9016283089568
:10465000FC01329608962191261303C0DF011197C1
:104660001C92E817F907B9F708950C940E230C94DF
:104670002823029626E0FC0111922A95E9F7089575
:1046800008950895CF930E9440230E94FC080E9441
:104690004123C0E08C2F0E948D08892B31F4CF5F1D
:1046A000C430C1F780E0CF91089581E0FCCF8BE06A
:1046B00083BF8BEB8CBF82E089BF08952FB7F8943E
:1046C00080910B0390910C03A0910D03B0910E0308
:1046D0002FBF08959C014FB7F89480910B039091E0
:1046E0000C03A0910D03B0910E034FBF821B930BDF
:1046F000089578941F920F920FB60F9211248F9302
:104700009F93AF93BF9380910B0390910C03A09163
:104710000D03B0910E030196A11DB11D80930B03F3
:1047200090930C03A0930D03B0930E03BF91AF9130
:104730009F918F910F900FBE0F901F90189560E082
:1047400081E090E00E94E22787E090EBDC0180931B
:10475000550390935603A0935703B093580388E1F1
:104760009CE00FB6F894A89581BD0FBE91BDFFCF18
:104770000E944622811102C00E94EC220E94512216
:10478000809353020E9459229093100380930F0349
:104790000E945522682F70E090E080E00C94841F06
:1047A0000F931F93CF93DF930E945E238C010E948F
:1047B000A5170E94BA240E9450170E949B268B9A2C
:1047C00080E0815039F58B987894FFEB24ED31E04F
:1047D000F15020403040E1F700C000000E94AF17C8
:1047E000C0E0DCE080912C038823F1F010922C03D0
:1047F0000E945E238C010E94A025809132038823B1
:1048000029F080911C0384FD0E94BB170E946E2436
:10481000C0E0E8CFA895E7EBFBE03197F1F700C0E7
:104820000000CFCFC1E0DECFC8010E946A23069707
:1048300010F4CC2301F30E944223C82F882391F364
:10484000F89491B3939A892F8C6081BB82B38D27A2
:1048500082BB8FE5EAEEF0E08150E040F040E1F706
:1048600000C0000082B38D2782BB91BB93987894DF
:10487000B9CF8091E50208950895CF93DF9300D0DA
:104880001F92CDB7DEB790915602981307C02091C2
:104890005402309155022617370791F08093560243
:1048A000709355026093540289837B836A8380915D
:1048B000490384FF05C063E0CE0101960E949C2558
:1048C0000F900F900F90DF91CF910895BC0184E07D
:1048D0000C943D24BC0183E00C943D24CF93DF93E2
:1048E000CAE0D0E080911C0384FF1AC0809162026C
:1048F00090916302981789F028E0829FC0011124EB
:1049000068E08C599D4F0E9498258091620290E04A
:1049100001968F70992780936202DF91CF9108955D
:104920000E94A02587EB9BE00197F1F700C00000F3
:104930002197C1F6F2CFFC01A0916302B0E09D0186
:104940002F5F3F4F2F70332780916202821771F0E3
:1049500083E0AA0FBB1F8A95E1F7AC59BD4F98E0E1
:1049600001900D929A95E1F7209363020E94A02591
:104970000C946E248CEF90E00895FC018081807689
:104980008032D1F48181813041F48AE592E09093C4
:104990002E0380932D0388E00895823041F484EE45
:1049A00092E090932E0380932D0381E008958A3046
:1049B00029F483818093E40280E008958930E1F74F
:1049C000828193818115924069F484819581892B3C
:1049D00049F481E08093590286819781909358022F
:1049E000809357028FEF089520915702309158021B
:1049F000232B71F020915902213051F4FC01808168
:104A00008093E502109258021092570281E00895B7
:104A10008FEF08950895FC019381933059F130F49C
:104A20009130C1F09230F1F080E00895913209F4B4
:104A300044C09232C9F784819581009709F44EC031
:104A4000019791F789EA95E090932E0380932D03C7
:104A500082E3089589E695E090932E0380932D03D9
:104A600082E108958EE295E090932E0380932D03CA
:104A70008BE308958281813081F038F08230A9F093
:104A8000833091F68BE795E002C085EA95E090933C
:104A90002E0380932D0384E008958DE895E0909394
:104AA0002E0380932D0386E1089581E895E090938D
:104AB0002E0380932D038AE008958281882331F0AC
:104AC000813009F0B1CF89E595E002C080E495E03E
:104AD00090932E0380932D0389E008958BED95E04C
:104AE00090932E0380932D0380E408951F93CF931A
:104AF000DF93162FEA01288124FF17C0298138E8A7
:104B000023272983212FFC01CE010296DC0131915C
:104B10003D9321501216DCF3612F0E9469031C5F44
:104B20001883DF91CF911F9108952AE52883EACF5A
:104B30004CE153E00C94762549E453E00C9476253F
:104B4000CF93DF9360912F03635067FD12C0809174
:104B50002B03CCE0D0E0C81BD109CD5CDC4F8091A9
:104B60002A03803108F05DC0CE010E940A25109210
:104B70002F038091070184FF47C0809106018F3F7A
:104B800009F442C0C82F893008F0C8E0982F9C1B58
:104B9000909306019091110328E8922790931103B6
:104BA000882329F180912D0390912E0320912903D0
:104BB000AC014151534026FFB1C0A1E1B3E02C2F1D
:104BC000FA01EA0FFB1FE4911196EC931197215023
:104BD00011962111F5CF9C012F5F3F4F8FEF8C0F66
:104BE000820F932F911D90932E0380932D036C2F92
:104BF00082E193E00E946903CC5FCC3019F08FEF23
:104C000080930601C093070184E190B39C7031F456
:104C10008150D9F71092300310922803DF91CF9181
:104C200008958D3209F067C0683009F0A0CF83EC99
:104C3000809311038AE580930701109229038881EC
:104C4000807671F0CE010E94BD248F3FC1F498811F
:104C500097FD8E8190E8909329038093060187CF7A
:104C60002A8110921A039981911111C010921B038D
:104C70002AE133E082E030932E0320932D039F81BD
:104C80009111EBCF9E81981740F7892FE6CF953091
:104C900029F4209330032AE133E0EDCF963099F4E4
:104CA0009B81913021F4CE010E940B2508C09230E7
:104CB000D1F39330C1F39132B1F39232A1F390E486
:104CC00090932903C2CF983079F0993019F420934A
:104CD0003203E1CF9A3061F09B30E9F69BE4909388
:104CE0001D0390934A03D7CF22E333E081E0C3CF83
:104CF0002AE133E0FBCF8091290387FF38CFCE0133
:104D00000E94F4248F3F21F48EE1809307012FCF7E
:104D1000882309F42CCF1092060129CFE1E1F3E0BA
:104D20002C2FDA01AE0FBF1F3C91318321503196F9
:104D30002111F7CF50CF85B7886085BF8BB78068CA
:104D40008BBFACE1B3E08BE411968C931197E9E44F
:104D5000F3E081838AE58C9380830895DB018F9350
:104D60009F930E943727BF91AF91A29F800D911D05
:104D7000A39F900DB29F900D11240895991B79E087
:104D800004C0991F961708F0961B881F7A95C9F7DB
:104D90008095089587FB082E062687FD819567FD7F
:104DA00061950E94BE260EF4919507FC81950895A9
:104DB000AA1BBB1B51E107C0AA1FBB1FA617B70741
:104DC00010F0A61BB70B881F991F5A95A9F780955D
:104DD0009095BC01CD01089597FB072E16F4009421
:104DE00007D077FD09D00E94D82607FC05D03EF4F5
:104DF000909581959F4F0895709561957F4F089587
:104E0000A1E21A2EAA1BBB1BFD010DC0AA1FBB1FCE
:104E1000EE1FFF1FA217B307E407F50720F0A21B40
:104E2000B30BE40BF50B661F771F881F991F1A94AD
:104E300069F760957095809590959B01AC01BD01D7
:104E4000CF010895EE0FFF1F0590F491E02D099416
:104E5000A29FB001B39FC001A39F700D811D1124BB
:104E6000911DB29F700D811D1124911D08950E9406
:104E70002827A59F900DB49F900DA49F800D911D94
:104E8000112408958F929F92AF92BF92CF92DF929A
:104E9000EF92FF92CF93DF93EC01688179818A8151
:104EA0009B81611571058105910521F464E279ED1D
:104EB0008BE597E02DE133EF41E050E00E94FF27C2
:104EC00049015A019B01AC01A7EAB1E40E943727CE
:104ED0006B017C01ACEEB4EFA50194010E94212886
:104EE000DC01CB018C0D9D1DAE1DBF1DB7FF03C0A6
:104EF0000197A109B04888839983AA83BB839F77D0
:104F0000DF91CF91FF90EF90DF90CF90BF90AF9067
:104F10009F908F9008950E944227089580E690E028
:104F20000E9442270895B0E0A0E080936000909333
:104F30006100A0936200B09363000895FC014150AA
:104F4000504030F001900616D1F73197CF01089507
:104F5000882799270895E199FECF9FBB8EBBE09AE1
:104F600099278DB30895A6E1B0E044E050E00C9499
:104F7000F127A8E1B0E042E050E00C94F127262FA1
:104F8000E199FECF9FBB8EBBE09A01970DB202164E
:104F900031F02DBB0FB6F894E29AE19A0FBE089556
:104FA0000396272F0E94C0270E94BF27252F0E940B
:104FB000C027242F0C94C0270196272F0E94C027BA
:104FC0000C94BF27262FE199FECF9FBB8EBB2DBB34
:104FD0000FB6F894E29AE19A0FBE01960895DC01AB
:104FE000CB01FC01E199FECF06C0FFBBEEBBE09A0E
:104FF00031960DB20D9241505040B8F70895052EEC
:1050000097FB1EF400940E94162857FD07D00E94BB
:10501000002707FC03D04EF40C94162850954095B9
:10502000309521953F4F4F4F5F4F08959095809554
:10503000709561957F4F8F4F9F4F0895B7FF0C94E8
:1050400037270E943727821B930B0895F894FFCFD0
:10505000010000003F154F155F1500000000000023
:105060000000000000000000DE003F154F155F1536
:105070000000000000000000000000000000E2004E
:105080003F154F155F1500000000000000000000F4
:1050900000000000DA003F154F155F15000000000A
:1050A00000000000000000000000D6003F154F1572
:1050B0005F1500000000000000000000000000007C
:1050C000D2003300340033003302340034022D02A6
:1050D0002D0087022D000102000500050501191AA7
:1050E0001B1C1D1E1F20212206FF480239249B2461
:1050F0003C246A246624FF5AE200E900EA00B50075
:10510000B600B700CD008301CC008A019201940162
:105110002102230224022502260227022A02B300CA
:10512000B4006F00700081828334353637949596D1
:1051300097939291906061636400010202020206FB
:1051400006060909090909090F0F0F0F0F0F151599
:105150001518191919191919191919192324252597
:1051600025252525E200E900EA00B500B600B700D4
:10517000CD008301CC008A01920194012102230217
:1051800024022502260227022A02B300B4006F007F
:0651900070008182830023
:00000001FF
