:100000000C945A040C949E040C94B9040C949E0411
:100010000C949E040C949E040C949E040C949E04D8
:100020000C949E040C9430070C94B9240C949E04F8
:100030000C949E040C949E040C949E040C949E04B8
:100040000C949E040C949E040C949E040C949E04A8
:100050000C949E0407634236B79BD8A71A3968569A
:1000600018AEBAAB558C1D3CB7CC5763BD6DEDFDDA
:10007000753EF6177231BF000000803F05A84CCDD9
:10008000B2D44EB93836A9020C50B9918688083CD2
:10009000A6AAAA2ABE000000803F7B7D0150005B1B
:1000A0005D01500028290150002D3E002A00035711
:1000B00012000C00150017001C00180008001A00A0
:1000C00014002900000000000000280002570F0063
:1000D0000E0009000A000B000D00070016000400C6
:1000E000E000000000000000000000000000000030
:1000F0000000000000000000000000000000000000
:1001000000000000000038005200370036001900DF
:1001100005001100100006001B001D00E10000009A
:10012000000000004F0051005000005701582C0003
:100130000358904291442B00E200E30000000000CD
:1001400000000000000000000000000000000000AF
:10015000000000000000000000000000000000009F
:10016000000000000000000000000000000000008F
:10017000000000000000000000000000000000007F
:10018000000000000000000000000000000000006F
:100190000000000000000000000000002A0027020C
:1001A00026022502210222022302240220021F022B
:1001B0001E023502000000000000280030022F025D
:1001C0002E023D003E003F002D023C003B003A0065
:1001D0004C000000000000000000000000000000D3
:1001E000000000000000000000000000000000000F
:1001F0000000000000000157520001000100430010
:1002000044004500010042004100400001000000A0
:10021000000000004F00510050003102105001005A
:100220000100010001000100E200E3000000000005
:1002300000000000000000000000000000000000BE
:1002400000000000000000000000000000000000AE
:10025000000000000000000000000000000000009E
:10026000000000000000000000000000000000008E
:10027000000000000000000000000000000000007E
:100280000000000000000000000000002A0027001D
:1002900026002500210022002300240020001F004A
:1002A0001E003500000000000000280030002F0074
:1002B0002E003D003E003F002D003C003B003A0078
:1002C0004C000000000000000000000000000000E2
:1002D000000000000000000000000000000000001E
:1002E0000000000000003100010001000100430097
:1002F0004400450001004200410040002900000088
:1003000000000000AE00A900AA00AB00010001003F
:1003100001000100010001000100E30000000000F5
:1003200000000000000000000000000000000000CD
:1003300000000000000000000000000000000000BD
:1003400000000000000000000000000000000000AD
:10035000000000000000000000000000000000009D
:10036000000000000000000000000000000000008D
:100370000000000000000000000000002A000F0044
:100380001500060013001C0009000A0037003600A3
:1003900034002B00000000000000280016001100AF
:1003A000170018000C0007000B00080012000400E2
:1003B0002900000000000000000000000000000014
:1003C000000000000000000000000000000000002D
:1003D00000000000000038001D0019001A000E0087
:1003E0001B00050010000D0014003300E1000000A8
:1003F000000000004F0052005100500091412C00BD
:100400001050904201000100E200E30000000000F3
:1004100000000000000000000000000000000000DC
:1004200000000000000000000000000000000000CC
:1004300000000000000000000000000000000000BC
:1004400000000000000000000000000000000000AC
:10045000000000000000000000000000000000009C
:100460000000000000000000000000004500440003
:10047000430042003E003F00400041003D003C0080
:100480003B003A00000000000000A900010001004C
:100490000100C75CBD5CBF5CBC5CC55CC35CC05C90
:1004A000010000000000000000000000000000004B
:1004B000000000000000000000000000000000003C
:1004C000000000000000AA00460001000100C85C16
:1004D00001000100BB5CC65CC45CB200010000000E
:1004E00000000000E15CE25CE35CE45C0100010010
:1004F000010001000100C15C0100010000000000DA
:1005000000000000000000000000000000000000EB
:1005100000000000000000000000000000000000DB
:1005200000000000000000000000000000000000CB
:1005300000000000000000000000000000000000BB
:1005400000000000000000000000000000000000AB
:10055000000000000000000000000000000000009B
:10056000000000002A2B280000000000000000000E
:100570000000000000000029000000002C1E3420B4
:10058000212224342627252E362D3738271E1F20DA
:100590002122232425263333362E37381F0405061F
:1005A0000708090A0B0C0D0E0F1011121314151663
:1005B0001718191A1B1C1D2F3130232D3504050661
:1005C0000708090A0B0C0D0E0F1011121314151643
:1005D0001718191A1B1C1D2F3130354C0000000054
:1005E000000000000000000000000000000000000B
:1005F00000000000000000000000000000010101F8
:1006000001010100010101010000000000000000E3
:1006100000000000000001000100010101010101D2
:1006200001010101010101010101010101010101BA
:1006300001010101010101000000010100000000B1
:1006400000000000000000000000000000000000AA
:100650000000000000000001010101000004680129
:10066000F000B40078005A007F3F1F6432146432F7
:1006700014783C1E1E140A05000000000001010150
:10068000010101010101020202020202020202034F
:10069000030303030303030404040404040505051E
:1006A00005050606060606070707070808080809DD
:1006B00009090A0A0A0A0B0B0B0C0C0C0D0D0D0E86
:1006C0000E0F0F0F10101111111212131314141515
:1006D0001516161717181819191A1A1B1C1C1D1D88
:1006E0001E1F1F20202122222324252526272728DC
:1006F000292A2B2B2C2D2E2F2F3031323334353607
:10070000363738393A3B3C3D3E3F40414243444610
:100710004748494A4B4C4D4F5051525355565758E4
:100720005A5B5C5E5F606263646667696A6C6D6E8B
:10073000707173747678797B7C7E808183848688FF
:100740008A8B8D8F91929496989A9B9D9FA1A3A539
:10075000A7A9ABADAFB1B3B5B7B9BBBDBFC1C4C637
:10076000C8CACCCFD1D3D6D8DADCDFE1E4E6E8EBF7
:10077000EDF0F2F5F7FAFCFF09023B000201008000
:1007800032090400000103010100092101010001F7
:10079000224000070581030800010904010001034C
:1007A00000000009210101000122840007058303E4
:1007B00008000105010902A10185010901A1000547
:1007C0000919012905150025017501950581027595
:1007D00003950181030501093009311581257F75D4
:1007E000089502810609381581257F350045007579
:1007F0000895018106050C0A38021581257F7508C8
:1008000095018106C0C005010980A101850215017D
:1008100026B700190129B7751095018100C0050C94
:100820000901A10185031501269C0219012A9C02D8
:10083000751095018100C005010906A1017501959A
:1008400008050719E029E7150025018102950175C2
:10085000088103950575010508190129059102957F
:10086000017503910395067508150026FF0005071D
:10087000190029FF8100C01201100100000008A02A
:10088000202D420002010200010A036A006A0034BE
:100890000030001C03770069006E006B0065007972
:1008A000006C006500730073002E006B0072000482
:1008B0000309040011241FBECFE5D8E0DEBFCDBF81
:1008C00004B603FE24C08091ED029091EE02A09147
:1008D000EF02B091F0028730904BA740B04BB9F4D3
:1008E0001092ED021092EE021092EF021092F002BE
:1008F00014BE84B7877F84BF0FB6F894A89581B5DE
:10090000886181BD11BC0FBEE0E0F8E3099510E0FD
:10091000A0E6B0E0E8E2FBE502C005900D92A23D42
:10092000B107D9F722E0A2EDB0E001C01D92AD3EC3
:10093000B207E1F70E948A260C944C2D0C9400001B
:10094000A82FB92F80E090E041E050EA609530E0B8
:1009500009C02D9182279795879510F084279527B8
:10096000305EC8F36F5FA8F30895EADF8D939D931F
:100970000895CF93CFB7CF93C395839BE9F7839B1C
:100980000EC0839B0CC0839B0AC0839B08C0839BC3
:1009900006C0C091C402C395C093C402A3C0DF9334
:1009A000C091C302DD27C553DD4F839B02C0DF9199
:1009B000E6CF2F930F931F9300B32FEF03FB20F984
:1009C0004F933F9310B34FEF012703FB21F93BE017
:1009D00031C04E7F012F10B3216028C0102F4D7FF2
:1009E0002260000000B329C04B7F2460012F00006B
:1009F00010B32BC010B3477F28602AC04F7E00B3CE
:100A000020612CC04F7D10B320622FC04F7B00B3FC
:100A1000206432C0422700B349934FEF00001027F3
:100A200013FB20F910B31C70C9F1297F91F2012743
:100A300003FB21F900B3237F89F2315058F11027CD
:100A400013FB22F910B3277E79F2012703FB23F968
:100A50002F7C81F200B3102713FB24F92F7971F258
:100A600000C010B3012703FB25F92F7359F200C012
:100A700000B3102713FB26F9223040F200C010B358
:100A8000012703FB27F9243028F64F77206810B39D
:100A90000000F9CF10E81ABF002719C03B5031956C
:100AA000C31BD04010E81ABF0881033CF9F00B3497
:100AB000E9F02091C1021981110F1213EDCF4A8183
:100AC000441F093641F10D3211F0013E29F7009320
:100AD000C9023F914F911F910F912F91DF91CAB79A
:100AE000C7FD4ACFCF91CFBFCF9118952091C902B2
:100AF000222379F31091C7021123C1F53430C2F1DA
:100B00003093C7022093C2021091C3023BE0311B15
:100B10003093C3022DC00091C70201303CF50AE5B5
:100B20004F7049F43091D10034FD24C00093D100BE
:100B3000CAEAD2E023C0433049F03091B50234FD17
:100B400019C00093B502C6EBD2E018C03091E102A3
:100B500034FD10C00093E102C2EED2E00FC0279531
:100B6000A8F45150A9F4220F0000F9CF4AE503C0C0
:100B700042ED01C0432FC4E1D0E032E011B31C606C
:100B8000939A11BB02B320E41CE05F93012756E067
:100B900002BB279520F4515021F4220FF9CF0127F1
:100BA00056E000003B5A02BBD0F2279528F4515082
:100BB00029F4220F0000F9CF012756E0279502BB48
:100BC00020F4515021F4220FF9CF012756E029914A
:100BD000332302BB21F6037F1091C802110FC651C7
:100BE000D04002BB11F01093C10210E81ABF086098
:100BF00011B3137F402F437F5F9100C000C002BB41
:100C000011BB42BB66CF8FEF87BB88BB1ABA94B3C8
:100C10009B7B94BB8F988BBB85B38C6F85BB979A5E
:100C2000E2EEF0E0A2EDB0E0119211921D921D9261
:100C300080E0E23FF807C1F70C94B60B21E030E00A
:100C4000A90102C0440F551F8A95E2F7CA0147BBAC
:100C5000809588BB0895282F26952575880F8A7A58
:100C6000282B822F86958695837394E0299F900187
:100C700011242C7C822B82950895DF92EF92FF92B3
:100C80000F931F93CF93DF93C2EDD0E08E01F12C31
:100C900025E0E22E8F2D0E941E0644E14A95F1F7D1
:100CA000D9B283B380950E942B0620B330E0209503
:100CB00030953695322F2227379527952227307485
:100CC000D0942D29F901F82BCF01F8012191319110
:100CD0008F012817390729F0329791838083E0929A
:100CE0006000F394F8E0FF12D5CF80916000882374
:100CF00059F0815080936000882389F087EB9BE056
:100D00000197F1F700C000000E94B20B81E0DF9173
:100D1000CF911F910F91FF90EF90DF900895E2EE39
:100D2000F0E0899199918193919390E0C23ED90727
:100D3000C1F7EACFE82FF0E0EE0FFF1FEE51FF4FB3
:100D4000808191810895089585B3836085BB87E094
:100D500080B986B7846086BF86B7816086BF86B754
:100D6000806486BF089516BE94EA96BF06B607FE55
:100D7000FDCF91B1987F983079F483B984E886BF2C
:100D800006B607FEFDCF91B1987F983119F081E04A
:100D9000903409F480E0089581E0089583B984E8EF
:100DA00086BF06B607FEFDCF91B1987F81E09832ED
:100DB00009F480E00895DF92EF92FF920F931F9362
:100DC000CF93DF93D62E072F7A010E94B306182FF8
:100DD000882351F011E0812FDF91CF911F910F9166
:100DE000FF90EF90DF900895CD2DD02FEC0EFD1EDB
:100DF000CE15DF0519F484E986BFEDCF89910E94F5
:100E0000CE068823A9F3E6CF80FF0BC0899A919A7A
:100E100081FF0AC08A9A929A82FF09C08E9A969A96
:100E2000089589989198F4CF8A989298F5CF8E98E2
:100E3000969808958FB58D7F8FBD8FB581608FBDDA
:100E400019BC18BC08958EB5887F83608EBD1DBC0B
:100E50001CBC89B7846089BF81E08093F20008954B
:100E6000789418958FB580628FBD8FB58F7E8FBDBA
:100E700008958C9A949A08950E9423070E9432073D
:100E80000C94390794980E941A070C943C078D30F3
:100E900008F08CE0682F70E090E080E00E94A72AC4
:100EA00020E030E04FE753E40E94D22B20E030E016
:100EB00040E451E40E94C5290E94712A6F3F7105E8
:100EC00019F010F06FEF70E079BD68BD08950C94D3
:100ED00042070C94470780918F0280FD0AC0E4E925
:100EE000F2E0118210821282339682E0E33AF80730
:100EF000C1F70E94A4064FE050E064E972E080EB85
:100F00000C94DB0608950C9482078091F300811104
:100F100010C080918F0280FF0CC00E94A4064FE099
:100F200050E064E972E080EB0E94DB0681E0809390
:100F3000F3000E9422140C949D076091E4017091CB
:100F4000E5018091E6019091E7010E94A323909131
:100F5000F500981303C01092F60008959093F400E2
:100F60008093F5001092F600813069F0882329F013
:100F7000823071F0833081F0089540E060E080E0DD
:100F8000943021F4089541EC61EC8DE00C947F0FD6
:100F900044E965E185EAFACF0E94A91189E10C9440
:100FA00075119C01FB018281882301F1223EFCE541
:100FB0003F0799F020F4213E3C4549F00895233E37
:100FC000FCE53F0769F0243E3C4569F0089589EA55
:100FD00090E00E94AF0B80E0089584EA90E0F9CFA2
:100FE0008FE990E0F6CF8AE990E0F3CF81E00895B1
:100FF0000F931F93CF93DF938C01EB019A9581158B
:101000009F4138F510FF03C080EEFB01099511FFE9
:1010100003C081EEFE01099512FF03C082EEFE01BE
:10102000099513FF03C083EEFE01099501151041D8
:1010300080F084EEFE01099585EEFE01099586EEAD
:10104000FE01099587EEFE01DF91CF911F910F916F
:101050000994DF91CF911F910F910895877091E0CE
:1010600001C0990F8A95EAF7892F0E947A230C9480
:1010700031230C942E08877091E001C0990F8A9556
:10108000EAF7892F0E9480230C9431230C943B08AB
:10109000CF93DF93EC01805E9109089720F06EE218
:1010A00078E0209711F469E378E0CE010E94F80718
:1010B0008C2FDF91CF910C942B1ACF93DF93EC01FF
:1010C0000E94C21ACE01805E9109089720F06BE35E
:1010D00078E0209711F466E478E0CE01DF91CF91BB
:1010E0000C94F80781E008950C94D1070E946D1DBF
:1010F0002FEB87E299E0215080409040E1F700C05B
:1011000000000C94DD24DF92EF92FF920F931F9367
:10111000CF93DF9300D0CDB7DEB78C01FC01E08028
:10112000F1808091600181112EC08281882331F18C
:10113000C7010E947D22D82E682FC7010E94292254
:10114000B7018D2D0E94C20B9A838983B8018981D2
:101150009A810E94EB14B801CE0101960E94D81525
:10116000811116C010E0812F0F900F90DF91CF9169
:101170001F910F91FF90EF90DF900895C7010E949B
:101180005522D82EDDCFC7010E947D22B701DACFCC
:10119000B80189819A810E947408882319F3B801E3
:1011A00089819A810E942F158823E1F2B8018981F3
:1011B0009A810E944E0E8823A9F289819A81883CE7
:1011C000FCE59F0709F41CC108F057C0813C3CE5D1
:1011D000930709F4E9C060F58531FCE59F07C0F489
:1011E00082302CE5920708F082C181153CE5930717
:1011F00009F4C7C081309C4509F4CBC081E08093DD
:10120000FC008093FD00C8010E947208182FABCF2C
:101210008531FCE59F0709F42AC2803C9C4571F7A3
:10122000F8018281882309F49DCF0E946E119ACF24
:10123000843C3CE5930709F4CFC080F4823CFCE594
:101240009F0709F4BDC0833C9C45C1F6F80182812B
:10125000882309F487CF0E946A1084CFF801228185
:10126000863CFCE59F0709F4C5C008F4BDC02223F5
:1012700009F478CF0E94D11075CF8F3CECE59E0722
:1012800009F4FFC0A0F58B3C2CE5920709F4C8C017
:1012900088F4893CECE59E0709F4BAC08A3C9C4579
:1012A00009F0ACCFF8018281882309F45BCF0E945A
:1012B000660F58CFF80122818D3CFCE59F0709F4A9
:1012C000CCC008F4B6C0222309F44CCF0E942B0FE7
:1012D000693071058105910540F00E942B0F6E3039
:1012E00071058105910508F474C089E09FC0833DB4
:1012F000ECE59E0709F4F4C0E8F4F8012281813D91
:10130000FCE59F0709F4E7C008F4D1C0222309F4E3
:1013100029CF0E942B0F693171058105910540F09D
:101320000E942B0F623271058105910508F451C0AE
:1013300089E17CC0853DECE59E0709F473C108F4A2
:101340004AC1863D9C4509F059CFF801828181113F
:101350006DC11091FD00111186C18091FA0090912C
:10136000FB000E948F24883C910508F07CC180E23C
:101370000E94F11A88E20E942B1A88E20E94C21A87
:10138000F2CEF8018281882309F4ECCE0E9476081F
:10139000E9CEF8018281882309F4E4CE8091F90135
:1013A00081608093F901DECEF8018281882309F4FF
:1013B000D9CE0E946423827261F00E945C11D2CE69
:1013C000F8018281882309F4CDCE0E9464238272C1
:1013D000A1F30E945211C6CEF8018281882309F43C
:1013E000C1CE0E948210BECE222309F4BBCE0E9441
:1013F000A110B8CE222309F4B5CE0E94B910B2CE06
:10140000F8018281882309F4ADCE0E94E910AACEAA
:10141000F8018281882309F4A5CE0E94510FA2CE43
:10142000F8018281882309F49DCE81E00E944F114A
:1014300099CE222309F496CE0E942B0F62307105BB
:101440008105910540F00E942B0F653071058105E3
:10145000910508F4BECF82E0E9CF222309F482CEC1
:101460000E942B0F663071058105910540F00E94A6
:101470002B0F683071058105910508F4AACF86E02D
:10148000D5CFF8018281882309F46CCE0E942B0FFE
:101490006F3071058105910540F00E942B0F64317A
:1014A00071058105910508F494CF8FE0BFCF222309
:1014B00009F458CE0E942B0F653171058105910505
:1014C00040F00E942B0F673171058105910508F4EA
:1014D00080CF85E1ABCF88E1222309F443CEA6CFAC
:1014E000F8018281882309F43DCE83E29FCFF80181
:1014F0008281882309F487CE0E941624811102C0BC
:101500000E94F0230E94292490E09093A8028093E7
:10151000A702E981FA81E250FC45E331F10548F484
:10152000E25BF24D0C94D02C8091A70281608093F5
:10153000A7028091A7020E942D240E946D1D12CE49
:101540008091A7028260F3CF8091A7028460EFCFE1
:101550008091A7028860EBCF8091A7028061E7CFDE
:101560008091A7028062E3CF8091A7028064DFCFE1
:101570008091A7028068DBCF8091A7028C60D7CFD3
:101580008091A7028E7FD3CF8091A7028D7FCFCF8E
:101590008091A7028B7FCBCF8091A702877FC7CF97
:1015A0008091A7028F7EC3CF8091A7028F7DBFCF8E
:1015B0008091A7028F7BBBCF8091A7028F77B7CF97
:1015C0008091A702837FB3CF9091A702892F97FBC9
:1015D00087F98058ACCFF8011281112361F0109285
:1015E000FC000E9483249093F9008093F80082E02D
:1015F0000E94EA1AB7CD8091FC0081110FC0809142
:10160000F8009091F9000E948F24883C910530F4F5
:1016100086E20E942B1A86E20E94C21A82E00E9491
:10162000F11AA1CDF8018281882351F01092FD00BA
:101630000E9483249093FB008093FA0080E2D8CF2D
:101640008091FD0081110FC08091FA009091FB0004
:101650000E948F24883C910530F487E20E942B1A67
:1016600087E20E94C21A80E20E94F11A7BCD0E949A
:101670006423F8019281992381F08A7A91E009F438
:1016800090E09093F700811106C089E20E94ED225C
:101690000E94312367CD85E3F9CF8091F700811156
:1016A00004C089E20E94F422F3CF85E3FBCFCF93FD
:1016B00090E0FC01E45AFA4FC49184529A4FFC0125
:1016C0008491882369F081EE0E942B1A8C2F0E944E
:1016D0002B1A8C2F0E94C21A81EECF910C94C21A41
:1016E0008C2F0E942B1A8C2FF8CFFF920F931F93F1
:1016F000CF93DF938C01F62EF8018491882349F172
:10170000E8012196813049F4FE011491812F0E9455
:101710002B1A812F0E94C21A06C0823089F4FE0162
:1017200084910E942B1A8E010F5F1F4F8F2D8150C5
:1017300018F3E7EBFBE03197F1F700C00000F7CFBB
:10174000833019F4FE018491E5CF0E94570BE80124
:10175000EACFDF91CF911F910F91FF90089560E044
:101760000C94750B0E9489150C9485070E946707DD
:101770000C9483070C9404070C94BA0B90E080E05F
:1017800008950895972F70E02FE0929F600D711DCE
:101790001124FB0198E7899FE00DF11D1124EE0F44
:1017A000FF1FE455FF4F859194910895FC01EE0FC2
:1017B000FF1FE45AF94F859194910895CF93DF93D9
:1017C0000E94C20B0E94AF0DEC01811521E592072A
:1017D00008F049C0811530E5930708F021C1883E23
:1017E000910508F5803E910570F5883A910570F4F1
:1017F000853A910508F0A7C08130910521F1009745
:1018000011F1049700F5D0E0C0E01DC08D3B9105BB
:1018100008F4A4C0805C9109C03CD105A0F30E94EB
:10182000D60BEC0110C08115904388F4C11580E2FD
:10183000D80708F0ECC0C03FD10528F3CF3FD10551
:1018400009F008F4E2C0CE01DF91CF910895C115EF
:1018500090E4D90708F0E1C0CE019927D3FFDAC0A0
:10186000EC01D86CF0CF811529E5920740F5811580
:1018700038E5930708F01AC1811544E5940778F418
:10188000C11583E5D80708F0F8C0C11592E5D9075E
:1018900008F0E2C0DC2FCC27C16FD06AD4CF81150D
:1018A00025E5920708F4FDC0811536E5930708F099
:1018B000AACFD82FCC27CC27DF71D062C4CF8B3BE7
:1018C0009C4509F4F8C0CC3B8CE5D807B8F4C93B7B
:1018D0009CE5D90709F4F2C008F0F3C0C1153AE558
:1018E000D30708F090CFCE0134E0969587953A95CE
:1018F000E1F78F70CF70C06ED82F90C0CE3B4CE513
:10190000D40709F4E1C060F4CC3B9CE5D90709F4A5
:10191000DEC0CD3BDC4509F076CFC0E0D2ED93CF01
:10192000CE0190568115904208F06DCF8D2F8F71AA
:101930000E942A0E90E0982F882788279F719C018B
:101940002C2BE901BACF853A910509F4C3C0863A38
:10195000910509F0C2C0C2E8D0E475CF883A91057C
:1019600009F4BEC0893A910509F4BDC08A3A9105CF
:1019700009F4BCC08B3A910509F4BBC08C3A9105BF
:1019800009F4BAC08B3B910509F4B9C08C3B9105B1
:1019900009F4B8C08D3A910509F4B7C0803B9105B0
:1019A00009F4B6C08E3A910509F4B5C08F3A910595
:1019B00009F4B4C0813B910509F4B3C0823B9105A1
:1019C00009F4B2C0833B910509F4B1C0843B910591
:1019D00009F4B0C0853B910509F4AFC0863B910581
:1019E00009F4AEC0873B910509F4ADC0883B910571
:1019F00009F4ACC0893B910509F4ABC08A3B910561
:101A000009F4AAC0C0E0D4E41ECFD0651CCFCE013B
:101A10009F7005CFEC01D06C16CFDF70D06A13CF6A
:101A2000E4E096958795EA95E1F783702C2F26954B
:101A30002695237040E2249F90011124382B8C2F8F
:101A40008370C1E0D0E002C0CC0FDD1F8A95E2F7C1
:101A5000C22BD32BDC68F7CECE018370992721E00F
:101A600030E002C0220F331F8A95E2F7C695C69573
:101A700080E2C89FE0011124EBCFCE01837099274B
:101A800021E030E002C0220F331F8A95E2F7C695AD
:101A9000C69590E2C99FE0011124C22BD32BDA68CE
:101AA000D2CED82FCC27C46FD06ACDCED82FCC279A
:101AB000C06FD06AC8CEC0E0D1EDC5CEC0E0D4EDD5
:101AC000C2CEC0E0D5EDBFCEC0E0D3EDBCCEC0E00D
:101AD000D0EDB9CEC1E8D0E4B6CEC3E8D0E4B3CE01
:101AE000C2EED4E4B0CEC9EED4E4ADCECAEED4E4B6
:101AF000AACEC5EBD4E4A7CEC6EBD4E4A4CEC3EB08
:101B0000D4E4A1CEC4EBD4E49ECEC7EBD4E49BCE08
:101B1000CCECD4E498CECDECD4E495CEC3E8D5E4B7
:101B200092CECAE8D5E48FCEC2E9D5E48CCEC4E922
:101B3000D5E489CEC1E2D6E486CEC3E2D6E483CE34
:101B4000C4E2D6E480CEC5E2D6E47DCEC6E2D6E4D9
:101B50007ACEC7E2D6E477CECAE2D6E474CE823833
:101B6000910549F1B0F48133910509F462C048F45C
:101B70008932910509F456C08A32910509F460C092
:101B800008958533910509F446C08933910599F08C
:101B90000895833E910531F138F4803E910591F02E
:101BA000823E9105B1F00895863E910521F1873E70
:101BB000910551F108952091A7022370D9F080EE8C
:101BC00090E008952091A70220FF14C089E390E0DF
:101BD00008952091A70222FF0DC024FD09C083EEC5
:101BE00090E008952091A70222FD31C024FF02C099
:101BF00090E080E008952091A70223FFFBCF24FD11
:101C0000F7CF87EE90E008952091A70223FFEECF53
:101C100086EE90E008952091A70225FFEBCF89E2A0
:101C200090E008952091A70225FFE4CF85E390E09E
:101C300008952091A70226FFDDCF8AE290E0089563
:101C40002091A70226FFD6CF81E390E0089582EE8F
:101C500090E008959091A70292FF06C0282F287166
:101C6000283069F4877F846093FF06C0282F28718D
:101C7000283161F4877E846194FD877E0895282F42
:101C80002471243089F78B7F8860EECF282F247150
:101C9000243191F78B7E8861EFCF08950F931F93C6
:101CA000CF938C01FB018281811106C0C1E08C2F92
:101CB000CF911F910F910895C0910B01C11125C0C3
:101CC00006311C4599F70E944D0E81E080930B016F
:101CD0000E94832490930A01809309011092FE00D0
:101CE000109200011092FF00109202011092010167
:101CF0001092040110920301109206011092050146
:101D00001092080110920701D2CF809109019091A1
:101D10000A010E948F248C32914040F68091FE008F
:101D2000E82FF0E0EE0FFF1FE150FF4F118300831B
:101D30008F5F8093FE00C0E0BACFCF92DF92EF9228
:101D4000FF920F931F93CF93DF93E901662309F46A
:101D500066C0E42EF12CEFEFF0E0E61BF109EE9DFA
:101D60008001EF9D100DFE9D100D1124212FE12FFC
:101D7000FF27EE1AFF0A5CE3C52ED12CB6010E94A4
:101D8000A82CFB01BC01E69EC001E79E900DF69ECB
:101D9000900D1124B6010E94A82CE230F10589F1C2
:101DA00068F4812F262F210F309781F0242F461BB6
:101DB000319761F080E020E040E008C0E430F105B8
:101DC00051F128F1842F861B3597A1F7E42FF0E01D
:101DD000E858F94F4491E22FF0E0E858F94F949118
:101DE000E82FF0E0E858F94FE49149839883EA83BB
:101DF000DF91CF911F910F91FF90EF90DF90CF90E7
:101E00000895862F810FE42F412F2E2FDFCFE42F4F
:101E1000E61B842FF9CF842F462F410FD7CF842F75
:101E2000242FD4CF88E090E00C94002DAB01BC01AE
:101E300088E090E00C941D2DEFE8F2E083E08083D1
:101E400011828FEF8283838314826081718182810A
:101E500093810C94160F60918F0260FF06C0669507
:101E60006F7370E090E080E0089560E070E0CB0177
:101E70000895EFE8F2E080818E7F80836081718138
:101E8000828193810E94160F109225012FEB84ED21
:101E900091E0215080409040E1F700C000000C9498
:101EA0006B078091930290E001968430910514F0C5
:101EB00083E090E08093930260918F027091900292
:101EC00080919102909192020C94160F809193024E
:101ED0008150990B97FF02C090E080E0843091051B
:101EE00014F083E090E08093930260918F027091F0
:101EF000900280919102909192020C94160F909111
:101F00008F0290FF0CC0E4E9F2E08183608342839A
:101F1000339692E0E33AF907C1F70C946B07089502
:101F2000CF93DF9300D00F92CDB7DEB720918F0211
:101F300020FF0AC09E012F5F3F4F0E949D0E4B81E4
:101F400069818A810E947F0F0F900F900F90DF911F
:101F5000CF9108953F924F925F926F927F928F92AE
:101F60009F92AF92BF92CF92DF92EF92FF920F9328
:101F70001F93CF93DF9300D00F92CDB7DEB78C01C4
:101F8000462E542E322E80918F0280FF30C0982F23
:101F90009E77923009F040C09E012F5F3F4FC801ED
:101FA0000E949D0E4B8169818A810E947F0F8091E2
:101FB0008F0200FB87F980938F02902F9695809176
:101FC00090028078892B10FB87F9809390024092D1
:101FD000910250929202332051F060918F027091E1
:101FE000900280919102909192020E94160F0F90A0
:101FF0000F900F90DF91CF911F910F91FF90EF9075
:10200000DF90CF90BF90AF909F908F907F906F9018
:102010005F904F903F900895E82FE695EF739EE311
:102020009E0F9F73943018F450909202C0CF9AE3A1
:102030009E0F9F73993068F4881F8827881F90919E
:102040009002292F220F022F082B97FB112710F93E
:10205000AECF87E28E0F8F738A3008F0A8CFE95198
:10206000FF0B21E0E0FD2FEFEE7FE25AF94F859163
:10207000949165E070E00E94A82C26033001279F10
:10208000700C1124680188E9C81A8EEFD80A84E917
:10209000E82E82E0F82E93EAA92E92E0B92E28E6E7
:1020A000822E99249394C601B4010E94A82C970112
:1020B000452D642D0E949D0EC60CD71C83E0E80EB2
:1020C000F11CAE14BF0479F70E946B0770CF21E0BA
:1020D0000C94AA0FEFE8F2E02081221F2227221F92
:1020E00030919002432F440F842F822B37FB992786
:1020F00090F90A9668E671E00E94BC2C43816281E7
:102100000C94671020918F02221F2227221F3091EA
:102110009002432F440F842F822B37FB992790F98D
:102120008A30910540F4825A9E4F4091920260910C
:1021300091020C9467100A9768E671E00E94BC2C2B
:10214000F4CF609191026F3E90F46F5E80918F02A8
:10215000881F8827881F90919002292F220F97FBB4
:10216000992790F940919202822B0C9467106FEF9F
:10217000EDCF60919102613190F0615180918F02B9
:10218000881F8827881F90919002292F220F97FB84
:10219000992790F940919202822B0C94671060E08D
:1021A000EDCF409192024F3E90F44F5E80918F02AE
:1021B000881F8827881F90919002292F220F97FB54
:1021C000992790F960919102822B0C9467104FEF40
:1021D000EDCF40919202413190F0415180918F02B8
:1021E000881F8827881F90919002292F220F97FB24
:1021F000992790F960919102822B0C94671040E02E
:10220000EDCF20E00C94AA0F90918F0290FF46C072
:102210009178811128C0926090938F02662351F0CB
:1022200060918F0270919002809191029091920240
:102230000E94160F80918F02382F3E773230D9F4EA
:1022400010922501881F8827881F90919002292FBE
:10225000220F97FB992790F9409192026091910289
:10226000822B0C940111843210F09664D5CF8F73B9
:10227000880F982BD1CF982F96959F732EE3290F17
:102280002F73273110F0363421F491E0909325011B
:10229000D9CF995D9F739A30A8F6D2CF089561E0A7
:1022A0000C94041180918F0286958F738F5F843216
:1022B00008F081E00C944F1180918F0286958F7306
:1022C000815009F483E20C944F11EFE8F2E0808131
:1022D0008160808386958F730C944F1180918F025B
:1022E00080FD0C94390F0C94651160E00C9404117E
:1022F0008091F90181608093F9010E941624811177
:1023000004C00E94F0230E941C0F0E94120F6093D1
:102310008F027093900280939102909392026E7755
:1023200061F40E941C0F0E94120F60938F02709341
:102330009002809391029093920281E08093250114
:1023400080918F0280FF04C086958F730C94751165
:102350000895EFE8F2E080818160808386958F7335
:102360000C947511CF93C82F809123019091240173
:102370000E948F24EC2FF0E0EC58F94FE491E8171D
:10238000190611F008F042C00E94832490932401A2
:10239000809323016091220170E090E080E00E9430
:1023A000A92A20E030E04FE753E40E94C5292BED35
:1023B0003FE049E450E40E94D22B0E943F2C0E944F
:1023C0003F2A2BE43AE34EE25FE30E94582920EFD4
:1023D0003BEF48ED52E40E94D22B0E94782A462F10
:1023E00080918F02881F8827881F90919002292F43
:1023F000220F97FB992790F960919102822B0E94FE
:10240000900F809122018F5F80932201CF910895D8
:10241000CF93C82F80912001909121010E948F2499
:10242000EC2FF0E0EF58F94FE491E817190609F0A6
:10243000E8F40E948324909321018093200140912D
:1024400092026091910280911E0190911F010E9461
:10245000900F80911E0190911F01019668E671E036
:102460000E94A82C90931F0180931E01CF91089584
:10247000CF92DF92FF920F931F93CF93DF93F82EAB
:1024800080911C0190911D010E948F24EF2DE695F3
:10249000F0E0E259F94FE491E817190609F0B0F5B8
:1024A0000E94832490931D0180931C0104E912E093
:1024B000D0E0C0E088E6C82EDD24D39480911A01D4
:1024C00090911B018C0F9D1FB6010E94A82C9801B2
:1024D00040919202609191020E949D0EC85BDF4F75
:1024E0000D5F1F4FC83681E0D80741F70E946B0788
:1024F00080911A0190911B01F0FE10C00196BE015F
:102500000E94A82C90931B0180931A01DF91CF9118
:102510001F910F91FF90DF90CF9008950197F2CF18
:10252000CF92DF92EF92FF920F931F93CF93DF939F
:10253000C82FFF24FA9480FD02C0FF24F3948091F9
:102540001801909119010E948F24C695EC2FF0E09C
:10255000E559F94FE491E817190611F008F051C058
:102560000E948324909319018093180104E912E0DA
:10257000D0E0C0E0F80111821082128294E0C92EEE
:10258000D12CE12C809117018E0D87FD8B5F082ED9
:10259000000C990B8C179D07E9F4809192028C9D99
:1025A000A0018D9D500D1124559547955595479542
:1025B00080918F02881F8827881F90919002592F41
:1025C000550F97FB992790F9980160919102852BFF
:1025D0000E949D0EEF0CF1E0CF1AD10899F62196DA
:1025E0000D5F1F4FC530D10529F60E946B07809102
:1025F000170191E0F91210C081110CC084E08093A2
:102600001701DF91CF911F910F91FF90EF90DF9015
:10261000CF9008958150F3CF90E00196BE010E94C3
:10262000BC2CEDCF0F931F93CF93DF93C82F8091D6
:102630001501909116010E948F24EC2FF0E0E859CB
:10264000F94FE491E817190611F008F052C00E9402
:1026500083249093160180931501C4E9D2E0FE0112
:10266000118210821282339682E0E33AF807C1F7B2
:1026700010E000E080911401082E000C990B08175F
:102680001907E4F18091C200082E000C990B801705
:102690009107A4F180918F02881F8827881F90914D
:1026A0009002592F550F97FB992790F99E01409161
:1026B000920260919102852B0E949D0E0F5F1F4F29
:1026C000239605301105B1F60E946B078091C10079
:1026D00090911401980F909314012091C200280F3B
:1026E0002093C200121614F494301CF0819580934C
:1026F000C100DF91CF911F910F9108951982188227
:102700001A82DCCFEF92FF920F931F93CF93DF9348
:1027100080911201909113010E948F24883E934072
:10272000C8F10E9483249093130180931201C091F9
:102730001001D09111012196C170DD27D0931101B4
:10274000C093100184E9E82E82E0F82E10E008E73B
:10275000812F86958C0F9D2F911D81709927970150
:102760004091920260919102FC010E9FC0010F9F67
:10277000900D11240E949D0E1F5FF3E0EF0EF11CDF
:10278000153031F7DF91CF911F910F91FF90EF90AE
:102790000C946B07DF91CF911F910F91FF90EF90F9
:1027A0000895CF93DF9300D00F92CDB7DEB780911D
:1027B0000E0190910F010E948F24ECE5F6E0259127
:1027C000349182179307C0F180910D0181110CC0E3
:1027D0009E012F5F3F4F4FEF6FEF90E080E00E9430
:1027E0009D0E8A8180930D010E94832490930F0196
:1027F00080930E0180910C01813071F0882339F0B3
:1028000040E0823011F440910D0180E003C08091DE
:102810000D0140E060E004C060910D0140E080E007
:102820000E947F0F80910C0190E0019663E070E0C0
:102830000E94BC2C80930C010F900F900F90DF91A1
:10284000CF910895809125018823B1F190918F0255
:10285000892F86958F732EE3280F2F73243018F459
:1028600082500C94B2112AE3280F2F73233018F4EE
:1028700086500C94081227E3280F2F73263018F483
:1028800089500C94381221E3280F2F73263018F446
:102890008F500C9490122BE2280F2F73233018F4D2
:1028A00085510C9412139E77903311F40C9482137B
:1028B000963411F40C94D1130895CF93DF93EC0167
:1028C00081E08F878F810E94672388850E947A2309
:1028D0000E943123EA81FB81309739F06A897B8934
:1028E000CE010696DF91CF910994DF91CF910895A3
:1028F000CF93DF93EC018881823039F4FB01828130
:1029000093810E94480881E08987DF91CF910895E3
:10291000FC018081813029F4FB01808191810C943C
:102920004808823021F4FB0182819381F8CF089519
:10293000FC018081813029F4FB01808191810C941C
:102940005D08823021F4FB0182819381F8CF0895E4
:10295000EF92FF920F931F93CF93DF93EC01888543
:10296000811132C0EB80FC8087E5F81A24E12E9DAE
:10297000C0012F9D900D1124DC01AF59BF4F14965B
:10298000ED91FC911597309731F052966D917C91B5
:1029900089599F4F099584E18E9D80018F9D100D6F
:1029A00011240F591F4FF80187810E946D23F801F0
:1029B00080850E9480230E94312318821F821986FD
:1029C0001092270110922601DF91CF911F910F9154
:1029D000FF90EF900895DF92EF92FF920F931F9375
:1029E000CF93DF937C01FB018281882391F080915A
:1029F000C3008F3F71F0C1E6D0E010E000E0DD24BD
:102A0000D3948091C300082E000C990B8017910776
:102A100044F4DF91CF911F910F91FF90EF90DF90E1
:102A200008958E818823B9F089859A858E159F0532
:102A300039F480912601909127018E159F0559F058
:102A4000DD868F85811103C0CE010E945D14CE0109
:102A500006960E94A8140F5F1F4F6496D2CFEF9284
:102A6000FF920F931F93CF93DF937C0197558F3F76
:102A7000910509F0D8F52091C300022E000C330B0C
:102A80002817390714F48093C300FB01228134E135
:102A9000389F8001399F100D1124E801CF59DF4F75
:102AA0002E8792818E81992349F1FA86E9868F5F7C
:102AB0008E830E9483249C878B870E94A0238F8310
:102AC0000E94642388870E9477239885892B8887B2
:102AD000E881F981309731F06A897B89C801895989
:102AE0009F4F0995F0922701E092260181E0DF9146
:102AF000CF911F910F91FF90EF9008958823B1F32C
:102B00008F85882399F3C80189599F4F0E94A81483
:102B1000EDCFEF92FF920F931F93CF93DF938091AE
:102B2000C30010E004E18F3FC1F5DF91CF911F9109
:102B30000F91FF90EF900895029FF001039FF00D19
:102B40001124EF59FF4FE088F188E114F10419F4E2
:102B500088ECE82EF12C029FE001039FD00D112498
:102B6000CF59DF4F8E818823B9F08B859C850E94D9
:102B70008F24E816F90680F4109F700111248F85C8
:102B8000811105C0C7018F599F4F0E945D14C70175
:102B900089599F4F0E94A8141F5F212F30E0809118
:102BA000C300082E000C990B821793072CF6BDCF9B
:102BB0004F925F926F927F928F929F92AF92BF924D
:102BC000CF92DF92EF92FF920F931F93CF93DF93F9
:102BD000EC01E881F981CF01815095458F3F910546
:102BE00010F485E5F827DB0112964C90442009F497
:102BF0006AC2EF3FF10509F100F1EB3DFC4521F020
:102C000010922801A42D07C08091280191E0892706
:102C100080932801A0E08A2FDF91CF911F910F911F
:102C2000FF90EF90DF90CF90BF90AF909F908F90EC
:102C30007F906F905F904F900895A0912801AA23F4
:102C400009F4E9C010922801E03CF105F0F5E03804
:102C5000F10508F0AAC0E034F10508F070C021E0E9
:102C600030E040E050E060E070E080E090E00E2F67
:102C70000E94D62CB09129012B2BB0912A013B2B1D
:102C8000B0912B014B2BB0912C015B2BB0912D01FE
:102C90006B2BB0912E017B2BB0912F018B2BB09120
:102CA00030019B2B2093290130932A0140932B0163
:102CB00050932C0160932D0170932E0180932F016E
:102CC00090933001F983E883A6CFEF3FF10509F037
:102CD00030F621E030E040E050E060E070E080E07D
:102CE00090E08F01005C11090E94D62CB091410147
:102CF0002B2BB09142013B2BB09143014B2BB09158
:102D000044015B2BB09145016B2BB09146017B2BAD
:102D1000B09147018B2BB09148019B2B209341012F
:102D20003093420140934301509344016093450125
:102D3000709346018093470190934801C3CF21E0EF
:102D400030E040E050E060E070E080E090E08F0133
:102D5000005411090E94D62CB09131012B2BB09157
:102D600032013B2BB09133014B2BB09134015B2BE3
:102D7000B09135016B2BB09136017B2BB0913701AF
:102D80008B2BB09138019B2B209331013093320172
:102D900040933301509334016093350170933601B1
:102DA00080933701909338018DCF21E030E040E0EF
:102DB00050E060E070E080E090E08F010058110981
:102DC0000E94D62CB09139012B2BB0913A013B2BAC
:102DD000B0913B014B2BB0913C015B2BB0913D017D
:102DE0006B2BB0913E017B2BB0913F018B2BB091AF
:102DF00040019B2B2093390130933A0140933B01D2
:102E000050933C0160933D0170933E0180933F01DC
:102E10009093400157CFE034F10508F06BC07090FB
:102E2000290180902A0190902B01D0912C01C09112
:102E30002D01B0912E0150902F016090300121E0C2
:102E400030E040E050E060E070E080E090E00E2F85
:102E50000E94D62C59016A017B018C01272D2A2161
:102E6000382D3B21492D4C215D2F5D216C2F6E218A
:102E70007B2F7F21852D8023962D91230E94EF2C7F
:102E800009F0C0CEE03CF10508F08EC0E038F10555
:102E900008F0EBC0E034F10508F0B9C021E030E003
:102EA00040E050E060E070E080E090E00E2F0E9493
:102EB000D62C2095309540955095609570958095CD
:102EC00090952721382149215D236C237B2385217F
:102ED00096212093290130932A0140932B0150938E
:102EE0002C0160932D0170932E0180932F019093FC
:102EF000300191CEE038F105E0F47090310180901E
:102F0000320190903301D0913401C0913501B091DC
:102F10003601509037016090380121E030E040E008
:102F200050E060E070E080E090E08F010054110913
:102F30008FCFE03CF105E0F47090390180903A01C8
:102F400090903B01D0913C01C0913D01B0913E0178
:102F500050903F016090400121E030E040E050E0BF
:102F600060E070E080E090E08F010058110970CFC0
:102F7000709041018090420190904301D0914401B2
:102F8000C0914501B09146015090470160904801C1
:102F900021E030E040E050E060E070E080E090E070
:102FA0008F01005C110954CFEF3FF10511F008F0DB
:102FB00075CF8F01005C110921E030E040E050E066
:102FC00060E070E080E090E00E94D62C2095309583
:102FD0004095509560957095809590952721382162
:102FE00049215D236C237B23852196212093410178
:102FF0003093420140934301509344016093450153
:1030000070934601809347019093480104CE8F014D
:103010000054110921E030E040E050E060E070E051
:1030200080E090E00E94D62C2095309540955095F8
:1030300060957095809590952721382149215D23D1
:103040006C237B238521962120933101309332011B
:1030500040933301509334016093350170933601EE
:103060008093370190933801D6CD8F010058110914
:1030700021E030E040E050E060E070E080E090E08F
:103080000E94D62C2095309540955095609570956E
:10309000809590952721382149215D236C237B233E
:1030A000852196212093390130933A0140933B01C9
:1030B00050933C0160933D0170933E0180933F012A
:1030C00090934001A8CDA1E0EF3FF10509F0B8F5DC
:1030D000E034F105B0F58090290190902A01D0915B
:1030E0002B01C0912C01B0912D01A0912E01609077
:1030F0002F017090300121E030E040E050E060E0CE
:1031000070E080E090E00E2F0E94D62C59016A01F9
:103110007B018C01282D2A21392D3B214D2F4C215B
:103120005C2F5D216B2F6E217A2F7F21A1E0862DF0
:103130008023972D91230E94EF2C09F4A0E0A17029
:103140006ACDE038F105E0F48090310190903201D1
:10315000D0913301C0913401B0913501A091360175
:1031600060903701709038018F010054110921E0FF
:1031700030E040E050E060E070E080E090E0C4CFFC
:10318000E03CF105A0F48090390190903A01D09193
:103190003B01C0913C01B0913D01A0913E01609086
:1031A0003F01709040018F0100581109E0CF8090DD
:1031B000410190904201D0914301C0914401B091EE
:1031C0004501A091460160904701709048018F0130
:1031D000005C1109CCCF90934E0180934D0108956E
:1031E000E0914D01F0914E01309721F00190F08176
:1031F000E02D099480E00895E0914D01F0914E0199
:10320000309721F00280F381E02D099408952091F8
:103210004B0130914C012817390771F090934C0104
:1032200080934B01E0914D01F0914E01309721F0D8
:103230000680F781E02D099408952091490130918D
:103240004A012817390771F090934A018093490188
:10325000E0914D01F0914E01309721F00084F1850D
:10326000E02D0994089581E008950E947C240E9435
:1032700003060E94F6240E94E7250C9478115F92C1
:103280006F927F928F929F92AF92BF92CF92DF9276
:10329000EF92FF920F931F93CF93DF93CDB7DEB7DB
:1032A0002A970FB6F894DEBF0FBECDBF0E943D0631
:1032B0000E943319882309F478C090E5A92E91E083
:1032C000B92E10E000E088248394912C502E802F9A
:1032D0000E949A067C01F501C190D1905F01C81649
:1032E000D90609F45CC08091F90181FD0E94A30612
:1032F00090E080E0CE24DF243401082E02C0660C6A
:10330000771C0A94E2F7960126213721232B09F432
:1033100041C08E835F82E620F72081E0EF2809F428
:1033200080E088870E9483248160782F9A8789872C
:103330004E815F8168858A850E94FC19000F111FEC
:10334000F801E05BFE4F80819181682679267182C9
:1033500060820E94F01890914F018917B9F10E9484
:10336000F01880934F012A960FB6F894DEBF0FBE77
:10337000CDBFDF91CF911F910F91FF90EF90DF9024
:10338000CF90BF90AF909F908F907F906F905F9005
:103390000C94BC0B01968F30910509F0ADCF0F5FF7
:1033A0001F4F0830110509F091CF8FEF89838A8371
:1033B0001B820E9483248160782F9D838C834981A6
:1033C0005A816B818D810E94FC19C3CF2A960FB65A
:1033D000F894DEBF0FBECDBFDF91CF911F910F914B
:1033E000FF90EF90DF90CF90BF90AF909F908F9025
:1033F0007F906F905F900895CF93DF93CDB7DEB746
:103400002B970FB6F894DEBF0FBECDBF4F83588702
:1034100069877A878B871E821D8285E0FE01379639
:10342000DE01119601900D928A95E1F749815A814A
:103430006B817C818D819E812B960FB6F894DEBFC7
:103440000FBECDBFDF91CF910C940B20FC0180818A
:1034500091810C94BF22CF93C82F882309F490C088
:103460008CEF8C0F813A58F48C2F0E94AA25811181
:1034700087C08C2F0E94ED22CF910C94312380E2E3
:103480008C0F883048F4C77081E001C0880FCA955E
:10349000EAF70E946723F0CF8BE58C0F833068F446
:1034A00081E890E0C53A31F083E890E0C63A11F443
:1034B00082E890E0CF910C94071988E58C0F853154
:1034C00008F05EC082EE90E0C83A09F456C089EE7A
:1034D00090E0C93A09F451C08AEE90E0CA3A09F482
:1034E0004CC085EB90E0CB3A09F447C086EB90E006
:1034F000CC3A09F442C083EB90E0CB3BF1F184EB92
:1035000090E0CC3BD1F187EB90E0CD3AB1F18CEC7F
:1035100090E0C03B91F18DEC90E0CE3A71F183E800
:1035200091E0CF3A51F18AE891E0C13B31F182E973
:1035300091E0C23B11F184E991E0C33BF1F081E2FB
:1035400092E0C43BD1F083E292E0C53BB1F084E26B
:1035500092E0C63B91F085E292E0C73B71F086E2D3
:1035600092E0C83B51F087E292E0C93B31F090E035
:1035700080E0CA3B11F48AE292E0CF910C941D19CD
:10358000CF910895882329F19CEF980F913A20F468
:103590000E94F4220C94312390E2980F983050F45A
:1035A000877091E001C0990F8A95EAF7892F0E94F0
:1035B0006D23F0CF9BE5980F933020F490E080E0EE
:1035C0000C940719885A853120F490E080E00C941F
:1035D0001D190895882321F00E9467230C9431233C
:1035E0000895882321F00E946D230C9431230895BF
:1035F0008F929F92AF92BF92CF92DF92EF92FF9203
:103600000F931F93CF93DF937C01D62FC72FFC011D
:10361000058102950F70128111110E9487230E946B
:103620002A23C82E882371F01123B1F080E28D0F78
:10363000883090F082E00E9414230E942A2391E0B7
:10364000C82EC926DC2ED2949FE0D922ED2DF0E0C1
:10365000EF59F24D0C94D02CC12CF4CF0C2F0F70DD
:10366000C07F11F00295007F1123A9F0002359F0CB
:1036700080E28D0F883010F0D11109C0802F0E9498
:1036800067230E9431238D2F0E942B1A14C0802F94
:103690000E947A23F6CF8D2F0E94C21A002359F080
:1036A00080E28D0F883010F0D11133C0802F0E943E
:1036B0006D230E94312398E0D91639F0D91648F0CD
:1036C00086EF8D0D8F70823020F40E94F0180E94DA
:1036D000BC0BCC2009F4BAC10E94072380FDB6C1FF
:1036E000F70112820E9401230E948D21C7010E94CE
:1036F000331D0E940123DF91CF911F910F91FF9005
:10370000EF90DF90CF90BF90AF909F908F900C94F0
:10371000AE21802F0E948023CCCFFC2FFF70BF2EC4
:10372000C07FC03219F0B29480EFB822DD2369F077
:10373000D13049F1112391F1002351F1F701858135
:1037400080FFA1CF8F70858323C0112381F00111E9
:1037500006C00E94A0238B290E94EA1AACCF013038
:10376000C1F70E94A0238B290E949A23A4CF0111A4
:1037700006C00E949D238B2D0E94F11A9CCF013020
:1037800009F499CFF6CF112329F0033008F093CF35
:103790008B2DE2CF023008F08ECFEDCF002359F30E
:1037A0008D2F0E94C21A87CF8C2F869586958370A5
:1037B00069F0813009F07FCF8D2F9C2F937011110C
:1037C00002C090E080E00E941D1975CF8D2F9C2FC4
:1037D0009370111102C090E080E00E9407196BCF36
:1037E0008C2F837009F047C0111165CF2D2F2295C2
:1037F00026952770220F220F6D2F6F70862E912C29
:10380000B12CA12C022E04C0880C991CAA1CBB1C34
:103810000A94D2F760E070E0CB01D4FF0FC06FE0F4
:1038200070E080E090E004C0660F771F881F991F4A
:103830002A95D2F76095709580959095C695C69516
:10384000C370C23051F080F4682979298A299B29F4
:10385000C13071F00E943F212ECF682979298A2931
:103860009B290E94512127CF0E943F21C501B4010D
:103870000E942D2120CF8695112311F08C2F81706D
:10388000882309F418CF2D2F229526952770220F13
:10389000220F6D2F6F70862E912CB12CA12C022E31
:1038A00004C0880C991CAA1CBB1C0A94D2F760E0C7
:1038B00070E0CB01D4FF0FC06FE070E080E090E0DB
:1038C00004C0660F771F881F991F2A95D2F760954D
:1038D000709580959095C695C695C370C23051F08D
:1038E00080F4682979298A299B29C13071F00E94C6
:1038F0000422E1CE682979298A299B290E9416226F
:10390000DACE0E940422C501B4010E94F221D3CE76
:10391000E0E2ED0FE53108F04DC0F0E0EF58F24D78
:103920000C94D02CDF708C2F8F71112321F00E940A
:103930008D218D2F11CF0E94AE218D2F1DCF1123F0
:1039400041F0023008F0B7CE8C2F8F710E94D12148
:10395000B2CE033008F0AFCEF7CF8C2F8F7111238A
:1039600039F00E948D21A7CE8C2F8F711123C9F3BE
:103970000E94AE21A0CE112329F08C2F8F710E94BE
:10398000782199CE0E94732196CE112349F0CF71F0
:103990008C2F0E948D2163E08C2F0E940B238BCEF5
:1039A00081E00E941423023008F485CE82E00E9458
:1039B000142381CE112329F0011165CE8C2F8F7134
:1039C000D0CF002369F0D93309F0EACEFFEF2DEE16
:1039D00082E0F15020408040E1F700C00000E0CEDE
:1039E0008C2F8F71C5CF4C2F4F706D2FC7010E9448
:1039F000BE0B0E94A5205FCE11115DCECF70C230EC
:103A0000B1F040F4CC2381F0C13009F054CE0E94D3
:103A1000182651CEC43089F068F080E0C53009F036
:103A20004ACE0E946E2647CE0E94002644CE0E94B7
:103A3000312641CE0E944B263ECE8CE0F2CF4C2F59
:103A40004F706D2FC7010E94C10B35CEDF91CF9112
:103A50001F910F91FF90EF90DF90CF90BF90AF90AC
:103A60009F908F9008950F931F93CF93DF93EC0156
:103A70008B819C81892B29F08881998189238F3FB3
:103A800029F4DF91CF911F910F910895CE010E94EB
:103A900083088823B1F3688179818A810E94C922D1
:103AA0008C010E9428220E942A21B801CE01DF91B8
:103AB000CF911F910F910C94F81A0E9487230E94B6
:103AC00097230E94FB220E94312390E080E00E9415
:103AD000071990E080E00C941D190E9474230C9447
:103AE0005D1D0E94BF22E92FE295EF70E250EE309B
:103AF00070F4F0E0EA57F24D0C94D02C803F19F0AE
:103B000020F4803E20F481E00895843FE1F380E0DA
:103B10000895803EC0F3813FD1F7F5CF93FB88270E
:103B200080F90895CF93DF9300D000D00F92CDB7E6
:103B3000DEB70F900F900F900F900F90DF91CF9105
:103B40000895CF93DF9300D000D000D0CDB7DEB77B
:103B500026960FB6F894DEBF0FBECDBFDF91CF9192
:103B600008951F93CF93DF93C091610116E0809178
:103B700062018C1304C0DF91CF911F910895D0E0B2
:103B80001C9FF0011D9FF00D1124ED59FE4F408147
:103B9000518162817381848195810E94A11D21964A
:103BA000C770E5CF409193015091940160919501C8
:103BB0007091960180919701909198010C94A11DAC
:103BC0001F93CF93DF9380919801807FC1F4809100
:103BD00095018823A1F080916101C09162016091FB
:103BE0009301709194014091960150919701D62FC5
:103BF000D723DA01A095B09516E0C81304C0DF9171
:103C0000CF911F91089590E04115510511F0DF3FCC
:103C100031F401968770F1CF2A0F3B1F17C0189F10
:103C2000F001199FF00D1124ED59FE4F218127134A
:103C3000F0CF20812613EDCF22812111EACF2381FD
:103C400034812417350740F3241B350B283C3105FC
:103C500000F7209198012F7020612093980126E0B1
:103C6000289FF001299FF00D1124E859FE4F808113
:103C70008F708061808383E991E00E94331DDF9122
:103C8000CF911F910C94B11DBF92CF92DF92EF9212
:103C9000FF920F931F93CF93DF93CDB7DEB761975A
:103CA0000FB6F894DEBF0FBECDBF8C0185E0F801E2
:103CB000DE011D9601900D928A95E1F7D8014C9195
:103CC00011965C9111971296EC9012978091960143
:103CD00090919701009709F47FC120919301309151
:103CE0009401622F63236F3F09F476C11396CD9040
:103CF000DC90B0909501BB2009F411C1C816D9061B
:103D0000D0F1F601E81BF90BCF01FF24F394883CB6
:103D1000910508F0F12C80919801982F907FFF2059
:103D200009F4B8C091117FC0FE2C351329C02413AB
:103D300027C0E11025C08F708061809398010E9498
:103D4000D21D83E991E00E94331D80919801D80132
:103D500015968C938F2D61960FB6F894DEBF0FBE2B
:103D6000CDBFDF91CF911F910F91FF90EF90DF902A
:103D7000CF90BF900895809590958C0D9D1DC5CFD7
:103D8000CD2829F0852F84238F3F09F041C180E0A1
:103D9000B82FB170DB2E80FF3CC080916101209173
:103DA000620136E0821315C04D875E878D859E8542
:103DB0000E94BF22292F22952F702230F0F024304C
:103DC00018F59F70F1F0F8019581907FD1F4D12C16
:103DD0001EC090E0389FF001399FF00D1124ED597D
:103DE000FE4F6181651306C06081641303C0628168
:103DF000E6120FC001968770D5CF9F7011F088230F
:103E000031F3805E883018F3C8010E94331DFD2C09
:103E1000A1CFEE2009F49ECF80919801816080931C
:103E20009801F12C97CF351306C0241304C0D80194
:103E3000EE2009F49AC04D875E878D859E850E948D
:103E4000711D882319F1EE2009F1809198018032CB
:103E500070F0209193013091940138872F83198657
:103E6000DB86CA868C87CE0107960E94331D86E0CA
:103E7000F801A3E9B1E001900D928A95E1F70E9463
:103E8000E01D0E94D21DFF24F39464CFC8010E945C
:103E9000331DF9CF911113C07C2DD98AC88A6E2D9C
:103EA00089890E94921D83E991E00E94331D86E07A
:103EB000E3E9F1E0DF011D928A95E9F763C035136C
:103EC00012C0241310C0E1100EC0F8018583C80190
:103ED0000E94331DE3E9F1E086E0DF011D928A953F
:103EE000E9F7FB2C37CF4D875E878D859E850E9435
:103EF000711D882359F2EE2049F280919801803299
:103F000008F4B5CF20919301309194013A8329832D
:103F10001B82DD82CC828E83CE010196A6CFC8168D
:103F2000D90698F1F601E81BF90BCF01F12C883C7A
:103F3000910508F049C0FE2CEE2009F4A7CF3513F7
:103F400032C0241330C08091980180FD23C0982F87
:103F5000907F01F1D80115968C931597903F39F019
:103F6000982F907F905F8F70892B15968C93C80146
:103F70000E94331D86E0F801A3E9B1E001900D92A3
:103F80008A95E1F70E94D21DE5CE809590958C0D23
:103F90009D1DCCCF86E0F801A3E9B1E001900D9220
:103FA0008A95E1F7D7CE4D875E878D859E850E94E5
:103FB000711D81115CCF809198018160809398017F
:103FC000C8010E94331DC6CE7C2DD98AC88A6E2DA9
:103FD00089890E94921D6BCFEE2009F457CF4D873F
:103FE0005E878D859E850E94711DF82E882309F4B9
:103FF0004DCF86E0F801A3E9B1E001900D928A95DA
:10400000E1F783E991E00E94261A0E94E01DBACFF1
:1040100081E08E25BDCE1F93CF93DF93CDB7DEB762
:104020002C970FB6F894DEBF0FBECDBF4F835887D5
:1040300069877A878B879C87CE0107960E94441EEA
:10404000882369F08A859B85892B39F04F815885B3
:10405000842F85238F3F09F071C016E05FC086E092
:10406000FE013796DE01119601900D928A95E1F7D7
:104070008A859B85892B89F388859F8189238F3F3A
:1040800061F32091620130E0C901019687709927A0
:10409000409161014817190671F40E946D1D10923C
:1040A00062011092610186E0E3E9F1E0DF011D9217
:1040B0008A95E9F7D2CF96E0929FD001939FB00DF9
:1040C0001124AD59BE4FFE01319601900D929A9583
:1040D000E1F7809362010E94B11DBFCF819FC001B3
:1040E00011248D599E4F0E94441E8823E9F0E091CF
:1040F00061011E9FF0011124ED59FE4F4081518155
:1041000062817381848195810E94A11D80916101EA
:1041100090E00196877099278093610180916101F9
:10412000909162018913DACF2C960FB6F894DEBF16
:104130000FBECDBFDF91CF911F91089569857A851C
:104140008B859C850E94A11D88CFEF92FF920F93D3
:104150001F93CF93DF938C01892B81F0F12CEE24F8
:10416000E394E8012196F8018491843770F4843057
:1041700008F05FC08130B1F08230A1F1DF91CF91C2
:104180001F910F91FF90EF900895853709F44CC06F
:1041900008F43DC09CE7980F903780F78F770E9416
:1041A000C21A49C00E5F1F4FFE01849190E2980F22
:1041B000983060F48770FE2D01C0FF0F8A95EAF7F2
:1041C0008F2F0E948A230E94312302C00E942B1A43
:1041D0008F2D815030F2E7EBFBE03197F1F700C013
:1041E0000000F7CF0E5F1F4FFE01849190E2980F01
:1041F000983050F48770FE2D01C0FF0F8A95EAF7C2
:104200008F2F0E949023DFCF0E94C21AE1CF0E5F52
:104210001F4FFE01C491C150D8F287EB9BE001977C
:10422000F1F700C00000F7CF0E5F1F4FFE01F490C2
:10423000CFCF0E942B1A8E01CBCF08950E941D2153
:104240006093E8017093E9018093EA019093EB0198
:104250000C945D1D08950C941E210F931F930091E3
:10426000E8011091E9012091EA013091EB01602B06
:10427000712B822B932B1F910F910C941E210F9366
:104280001F930091E8011091E9012091EA0130911A
:10429000EB0160237123822393231F910F910C94D0
:1042A0001E210F931F930091E8011091E9012091C5
:1042B000EA013091EB0160277127822793271F9134
:1042C0000F910C941E210C941D210C9463210E94CB
:1042D00065216093E4017093E5018093E60190937A
:1042E000E7010C945D1D60E070E0CB010C94672148
:1042F0000F931F9341E050E060E070E08A019B0162
:1043000004C0000F111F221F331F8A95D2F7C90165
:10431000B8011F910F910C9467210F931F9341E0F7
:1043200050E060E070E004C0440F551F661F771F27
:104330008A95D2F78091E4019091E501A091E60180
:10434000B091E7018A019B01082B192B2A2B3B2BEB
:10435000C901B8011F910F910C9467210F931F930E
:1043600041E050E060E070E004C0440F551F661F5C
:10437000771F8A95D2F7CB01BA0160957095809529
:1043800090950091E4011091E5012091E6013091B2
:10439000E70160237123822393231F910F910C94D3
:1043A00067210F931F9341E050E060E070E004C08C
:1043B000440F551F661F771F8A95D2F78091E4013D
:1043C0009091E501A091E601B091E7018A019B017E
:1043D000082719272A273B27C901B8011F910F91E8
:1043E0000C9467210F931F930091E4011091E50154
:1043F0002091E6013091E701602B712B822B932BEA
:104400001F910F910C9467210F931F930091E4016A
:104410001091E5012091E6013091E70160237123BD
:10442000822393231F910F910C9467210F931F9365
:104430000091E4011091E5012091E6013091E7013E
:1044400060277127822793271F910F910C94672172
:1044500008952FE0929F800D1124982F977041E0CE
:1044600001C0440F9A95EAF786958695869595E062
:10447000899FF0011124E756FE4F90E080E070E044
:104480005191DF0111979B01082E02C036952795A7
:104490000A94E2F7217021952527242325272C93C0
:1044A00001968530910561F708952FE0929F800D68
:1044B0001124982F977086958695869525E0829F82
:1044C000F0011124E756FE4F50E040E080E02191DA
:1044D00030E0092E02C0369527950A94E2F7217044
:1044E0003327042E01C0220F0A94EAF7822B4F5F74
:1044F0005F4F4530510559F70895BF92CF92DF9233
:10450000EF92FF920F931F93CF93DF938C01C09094
:10451000E401D090E501E090E601F090E7018091A0
:10452000E8019091E901A091EA01B091EB01C82A5C
:10453000D92AEA2AFB2ACFE1D0E0BC2ED701C60156
:104540000C2E04C0B695A795979587950A94D2F737
:1045500080FD0EC0219788F7B12C8B2DDF91CF9174
:104560001F910F91FF90EF90DF90CF90BF90089533
:10457000B8018C2F0E94DE0B019761F3EECFCF9331
:10458000DF93EC010E947D22BE01DF91CF910C945C
:10459000DE0B1F93CF93DF93EB0190916001992382
:1045A00031F0CB01DF91CF911F910C94BF22882372
:1045B00079F0CB010E947D22182F682FCE010E9436
:1045C0002922BE01812FDF91CF911F910C94DE0B28
:1045D000CB010E945522182FF4CF682F8091C40080
:1045E0009091C5000C946F24682F8091C400909125
:1045F000C5000C9471248091C4009091C5000C9466
:1046000073248091EC018595859585950895809119
:10461000EC018770089598E0899F90011124622B26
:104620006093EC010C948D219091EC01809589238D
:104630008093EC01282F277061F4282F082E000C9E
:10464000330B9217130629F08595859585950C9463
:10465000AE2108959091EC01977081E009F480E01B
:104660000895E091C400F091C5008091F801808325
:10467000E091C400F091C50080819091F701892BF1
:104680008083E091C400F091C50080819091F60193
:10469000892B80839091ED01992381F0E091C400F2
:1046A000F091C5008081892B80838091C400909116
:1046B000C5000E943B2481111092ED018091C4003D
:1046C0009091C5000C94FC188091F8010895909188
:1046D000F801892B8093F801089580959091F80155
:1046E00098239093F80108951092F801089580910D
:1046F000F70108959091F701892B8093F7010895B0
:1047000080959091F70198239093F7010895109266
:10471000F70108959091F601892B8093F601089591
:1047200080959091F60198239093F6010895109248
:10473000F60108958093ED0108951092ED0108951A
:104740008091ED010895CF92DF92EF92FF926C017C
:10475000EE24FF2420E0C114D104E104F10419F097
:10476000C701B60120E1C72ED82EE92EFF24C114BF
:10477000D104E104F10419F0285FC701B6016B010F
:104780007C0154E0F694E794D794C7945A95D1F7F6
:10479000C114D104E104F10419F02C5FC701B60182
:1047A0006B017C0142E0F694E794D794C7944A9554
:1047B000D1F7C114D104E104F10419F02E5FC7014F
:1047C000B6019695879577956795672B682B692B2A
:1047D00009F02F5F822FFF90EF90DF90CF90089528
:1047E0006DEE7EEF90E080E00E94292D60E082E097
:1047F00090E00E940C2D60E083E090E00E940C2D80
:1048000060E084E090E00E940C2D60E085E090E0A4
:104810000E940C2D60E086E090E00E940C2D40E0AC
:1048200050E0BA0188E090E00C941D2D90E080E00B
:104830000E94062D21E08D3E9E4F09F020E0822F40
:10484000089582E090E00C94F82C83E090E00C94C2
:10485000F82C84E090E00C94F82C682F84E090E031
:104860000C940C2D86E090E00C94F82C682F86E0D8
:1048700090E00C940C2DFC0131969C01285F3F4F79
:1048800080E0919191118F5FE217F307D1F70895BE
:104890009C01FC0132969FEF80E04191461751F058
:1048A0009F3F19F4411101C0982F8F5F8630A9F7FF
:1048B0009F3F09F40895290F311D97FD3A95F9019D
:1048C00062830895FC01329608962191261303C055
:1048D000DF0111971C92E817F907B9F708950C94B6
:1048E00048240C946224FC011182128213821482E7
:1048F00015821682178208958BE083BF8BEB8CBFE5
:1049000082E089BF08952FB7F8948091A302909117
:10491000A402A091A502B091A6022FBF0895CF9244
:10492000DF92EF92FF920F931F932FB7F89440916D
:10493000A3025091A4026091A5027091A6022FBF1C
:104940006A017B01EE24FF248C0130E020E0C016D8
:10495000D106E206F30650F0481B590BCA011F911D
:104960000F91FF90EF90DF90CF9008954150510943
:10497000F3CF78941F921FB61F9211248F939F93A9
:10498000AF93BF938091A3029091A402A091A5023E
:10499000B091A6020196A11DB11D8093A302909330
:1049A000A402A093A502B093A602BF91AF919F91DC
:1049B0008F911F901FBE1F90189560E081E090E0DE
:1049C0000E942F2D87E090EBDC018093ED02909305
:1049D000EE02A093EF02B093F00288E19CE00FB6E4
:1049E000F894A89581BD0FBE91BDFFCF0E941624FB
:1049F000811102C00E94F0230E9421248093F901BA
:104A00000E94292490E09093A8028093A7020E941C
:104A10002524682F70E090E080E00C942B210F9308
:104A20001F9341E050E060E070E08A019B0104C008
:104A3000000F111F221F331F8A95D2F7C901B80139
:104A40000E942B211F910F910C946D1D8732A8F5A8
:104A50008E3108F079C08E3009F46BC058F487307D
:104A600009F459C08B3009F44BC0863009F44AC0B0
:104A700080E00895863109F443C068F48031C1F7BD
:104A80009091F901892F877F93FF88608093F901C6
:104A900083FD0FC035C0893199F18B3149F7909171
:104AA000F901892F8D7F91FF82608093F90181FF49
:104AB00027C08091F901816039C0883309F150F431
:104AC000893221F0853311F0873291F680E00E941F
:104AD0000F2516C08334D1F320F48A3348F289536A
:104AE000F6CF883429F60E946D1D2FEF8EE994E2EF
:104AF000215080409040E1F700C000000E94DD247A
:104B000081E008958091F901807F8093F90181E02F
:104B10008093FA0108959091F901892F8E7F90FF7B
:104B200081608093F90180FDEBCF817F8093F90153
:104B3000E7CF9091F901892F8B7F92FF846080935A
:104B4000F90182FDB6CFDCCF8D51C1CF80E0089551
:104B50000C94A625CF93C82F8091FA01882331F0B9
:104B60008130B1F01092FA0180E010C0E091C400F1
:104B7000F091C50080818232B9F78C2F0E94A62562
:104B8000811119C08C2F0E9426258170CF91089524
:104B9000E091C400F091C5008081823271F38C2FC6
:104BA0000E94A825811105C0C43171F038F4CB30C2
:104BB00061F781E0EACF81E090E0E7CFC93221F0F0
:104BC000C833B9F380E0E1CF1092FA01FBCF0E9425
:104BD0001624811102C00E94F0230E943224809387
:104BE000A9028A3120F0817088618093A9028091A6
:104BF000A90280FF03C086950C94690780E0FCCF72
:104C00008091A902982F96959C3030F49F5F990F60
:104C10008170892B8093A9028091A9028160809381
:104C2000A9020E9436248091A90286950C946907F6
:104C30008091A902982F9E7F79F082508093A902DB
:104C40008E7F91E009F490E08091A90290FB80F9B9
:104C50008093A9020E9436248091A90286950C9423
:104C600069079091A902892F8E7F90FF81608093C0
:104C7000A902813019F483E08093A9028091A902EE
:104C80000E9436248091A90280FF03C086950C946F
:104C9000690780E0FCCF9091A902892F86958F5FEC
:104CA0008F7791708D30B8F4880F892B8093A9028B
:104CB0008091A9028E7F91E009F490E08091A90291
:104CC00090FB80F98093A9020E9436248091A9026A
:104CD00086950C9469079093A902EACF8D3008F06D
:104CE0008CE0982F990F8091A9028170892B809375
:104CF000A9028E7F91E009F490E08091A90290FBD7
:104D000080F98093A9020E9436248091A902869599
:104D10000C9469070E9483248C010E9435190E941B
:104D20006E270E94EB180E9445298B9A80E08150E3
:104D300021F48B987894C0E009C0A895E7EBFBE0DC
:104D40003197F1F700C00000F2CFC1E08091C402BA
:104D5000882399F01092C4020E9483248C010E943F
:104D600031288091CA02882329F08091B50284FD00
:104D70000E943F190E943327DECFC8010E948F2472
:104D8000069718F7CC2359F3E1CF80918D0208954F
:104D9000CF93DF9300D00F92CDB7DEB72091FD0106
:104DA0003091FE012817390789F09093FE01809316
:104DB000FD0123E029839B838A838091E10284FFA4
:104DC00005C063E0CE0101960E942D280F900F9040
:104DD0000F90DF91CF910895CF93DF9300D00F9282
:104DE000CDB7DEB72091FB013091FC0128173907C0
:104DF00089F09093FC018093FB0122E029839B833F
:104E00008A838091E10284FF05C063E0CE010196B0
:104E10000E942D280F900F900F90DF91CF91089551
:104E2000CF93DF9300D000D000D0CDB7DEB7FC0128
:104E300081E0898395E0DE01129601900D929A95AA
:104E4000E1F78091E10284FF05C066E0CE010196A2
:104E50000E942D2826960FB6F894DEBF0FBECDBF58
:104E6000DF91CF9108958091B50284FF17C08091A2
:104E70000A0290910B02981789F028E0829FC001E6
:104E8000112468E0845F9D4F0E94292880910A02C6
:104E900090E001968F70992780930A020895FC0193
:104EA000A0910B02B0E09D012F5F3F4F2F70332781
:104EB00080910A02821771F083E0AA0FBB1F8A95C6
:104EC000E1F7A45FBD4F98E001900D929A95E1F74C
:104ED00020930B020E9431280C94332786EC90E03B
:104EE0000895FC01808180768032D1F48181813007
:104EF00041F482E092E09093C6028093C50288E07C
:104F00000895823041F48CE892E09093C602809339
:104F1000C50281E008958A3029F4838180938C0250
:104F200080E008958930E1F782819381811522E044
:104F3000920779F484819581892B49F482E08093EA
:104F4000010286819781909300028093FF018FEF89
:104F5000089581309340D9F781E0F1CFFC01809131
:104F6000FF0190910002892B99F0909101029130FC
:104F700059F0923069F4808180938D021092000282
:104F80001092FF0181E008958B9A0E94DD24FACFF0
:104F90008FEF0895FC018381813261F08232E1F06C
:104FA000823069F488E797E09093C6028093C50247
:104FB0008BE308958281882321F0813051F080E0D5
:104FC00008958AE897E09093C6028093C50289E02D
:104FD000089583EA97E0F7CF84819581009751F097
:104FE000019769F783EB97E09093C6028093C5021F
:104FF00084E8089587E398E09093C6028093C50201
:1050000080E408951F93CF93DF93E82F792F162F15
:10501000EA01888184FF1AC0298188E8282729832A
:10502000CE010296DC012E2F372F412F4E0FF901B2
:1050300021912D939F014E13FACF612F0E94B50449
:105040001C5F1883DF91CF911F9108958AE58883B3
:10505000E7CF45EB52E00C94022841EE52E00C946D
:105060000228CF93DF936091C702635067FD2BC086
:105070008091C302CCE0D0E0C81BD109C553DD4FFD
:105080008091C2028D3209F0E0C06830D1F483EC27
:105090008093AA028AE58093D10010928E028881C3
:1050A000807609F45FC0CE010E9471278F3F09F01E
:1050B00068C0988197FD8E8190E890938E028093CE
:1050C000D0001092C7028091D10084FF3EC0809131
:1050D000D0008F3FD1F1C82F893008F0C8E0982F59
:1050E0009C1B9093D0009091AA0228E8922790935D
:1050F000AA028823E9F08091C5029091C60220910E
:105100008E023C2F380F26FFB3C0FC01ABEAB2E0A1
:1051100024912D9331963E13FBCF2FEF2C0F30E0CF
:105120002F5F3F4F820F931F9093C6028093C5025B
:105130006C2F8BEA92E00E94B504CC5FCC3019F062
:105140008FEF8093D000C093D10084E190B39C7026
:1051500031F48150D9F71092C8021092C102DF9148
:10516000CF9108952A811092B3029981911112C0B2
:105170001092B40223EB32E082E03093C602209317
:10518000C5029F8191119BCF9E81981708F097CF00
:10519000892F95CF953029F42093C80223EB32E074
:1051A000ECCF9630C9F59B81913059F487E798E0B0
:1051B0009093C6028093C50282E190E490938E02A0
:1051C00075CF923021F4CE010E94CA27F6CF9330DA
:1051D000F1F4211108C08FEA98E09093C602809301
:1051E000C50284E0EACF213041F483E998E090934E
:1051F000C6028093C5028CE1E0CF2230F1F689E847
:1052000098E09093C6028093C5028AE0D6CF91328F
:10521000D1F2923291F6D7CF983081F0993019F4CB
:105220002093CA02BBCF9A3069F09B3009F0B6CF09
:105230009BE49093B6029093E202B0CF2AEC32E066
:1052400081E09BCF23EB32E0FBCF80918E0287FF82
:1052500038CFCE010E94AE278F3F21F48EE180939C
:10526000D1002FCF882309F42CCF1092D00029CF62
:10527000ABEAB2E0282F492FE22FF42F21912D9392
:105280002E2F4F2F3E13F8CF48CF85B7886085BFAC
:105290008BB780688BBFA5EBB2E08BE411968C9343
:1052A0001197E1EEF2E081838AE58C938083089583
:1052B0005058BB27AA270E9470290C94222B0E94C9
:1052C000142B38F00E941B2B20F039F49F3F19F467
:1052D00026F40C94EA2A0EF4E095E7FB0C94E42AF9
:1052E000E92F0E94332B58F3BA176207730784071C
:1052F000950720F079F4A6F50C94552B0EF4E09563
:105300000B2EBA2FA02D0B01B90190010C01CA017F
:10531000A0011124FF27591B99F0593F50F4503E2A
:1053200068F11A16F040A22F232F342F4427585F1C
:10533000F3CF469537952795A795F0405395C9F734
:105340007EF41F16BA0B620B730B840BBAF09150EC
:10535000A1F0FF0FBB1F661F771F881FC2F70EC08B
:10536000BA0F621F731F841F48F48795779567955E
:10537000B795F7959E3F08F0B0CF9395880F08F04A
:105380009927EE0F9795879508950E94D9290C9437
:10539000222B0E941B2B58F00E94142B40F029F462
:1053A0005F3F29F00C94E42A51110C94562B0C9475
:1053B000EA2A0E94332B68F39923B1F3552391F322
:1053C000951B550BBB27AA2762177307840738F074
:1053D0009F5F5F4F220F331F441FAA1FA9F335D0D1
:1053E0000E2E3AF0E0E832D091505040E695001C85
:1053F000CAF72BD0FE2F29D0660F771F881FBB1F3F
:10540000261737074807AB07B0E809F0BB0B802D1C
:10541000BF01FF2793585F4F3AF09E3F510578F048
:105420000C94E42A0C94562B5F3FE4F3983ED4F39B
:10543000869577956795B795F7959F5FC9F7880F1C
:10544000911D9695879597F90895E1E0660F771F6E
:10545000881FBB1F621773078407BA0720F0621BFF
:10546000730B840BBA0BEE1F88F7E095089529F4AF
:1054700016F00C94E42A0C94552B0C94EA2A0E9402
:105480003B2BA8F39638A0F707F80F92E8942BE38C
:105490003AEA48EB5FE70E94E82B0F920F920F92D7
:1054A0004DB75EB70F920E949E2BE4E5F0E00E949C
:1054B000ED2A4F915F91EF91FF91E595EE1FFF1F50
:1054C00049F0FE57E0684427EE0F441FFA95E1F7D4
:1054D0004195550B0E94682B0F9007FE0C945C2B96
:1054E00008950E94782A6894B1110C94562B08955F
:1054F0000E943B2B88F09F5798F0B92F9927B751FE
:10550000B0F0E1F0660F771F881F991F1AF0BA9567
:10551000C9F714C0B13091F00E94552BB1E0089545
:105520000C94552B672F782F8827B85F39F0B93F37
:10553000CCF3869577956795B395D9F73EF490951A
:105540008095709561957F4F8F4F9F4F0895E89498
:1055500009C097FB3EF490958095709561957F4FBB
:105560008F4F9F4F9923A9F0F92F96E9BB27939569
:10557000F695879577956795B795F111F8CFFAF479
:10558000BB0F11F460FF1BC06F5F7F4F8F4F9F4FAA
:1055900016C0882311F096E911C0772321F09EE808
:1055A000872F762F05C0662371F096E8862F70E06E
:1055B00060E02AF09A95660F771F881FDAF7880F48
:1055C0009695879597F9089597F99F6780E870E019
:1055D00060E008959FEF80EC0895DF93CF931F93D1
:1055E0000F93FF92EF92DF927B018C01689406C0CB
:1055F000DA2EEF010E94E52BFE01E894A59125919A
:10560000359145915591A6F3EF010E947029FE0155
:105610009701A801DA9469F7DF90EF90FF900F915E
:105620001F91CF91DF91089500240A941616170652
:1056300018060906089500240A9412161306140683
:1056400005060895092E0394000C11F4882352F0E6
:10565000BB0F40F4BF2B11F460FF04C06F5F7F4F9E
:105660008F4F9F4F089557FD9058440F551F59F085
:105670005F3F71F04795880F97FB991F61F09F3F3F
:1056800079F087950895121613061406551FF2CF68
:105690004695F1DF08C0161617061806991FF1CFB8
:1056A00086957105610508940895E894BB276627DF
:1056B0007727CB0197F908959B01AC0160E070E07A
:1056C00080E89FE30C94C5290C94E42A0C94472CA1
:1056D0000E943B2BD8F39923C9F3940F511DA3F3D8
:1056E0009150504094F059F0882332F0660F771FA4
:1056F000881F91505040C1F79E3F51052CF7880FED
:10570000911D9695879597F908955F3FACF0983E67
:105710009CF0BB27869577956795B79508F4B1609F
:105720009395C1F7BB0F58F711F460FFE8CF6F5F97
:105730007F4F8F4F9F4FE3CF0C94562BFA01DC0124
:10574000AA0FBB1F9B01AC01BF5728F422273327A8
:105750004427507820C0B75190F4AB2F00244695D1
:1057600037952795011CA395D2F3002071F0220FE5
:10577000331F441FB395DAF30ED00C9458296130CF
:105780007105A0E88A07B94630F49B01AC01662791
:10579000772788279078309621F0208331834283C1
:1057A000538308950E94E52B0C94222B0E94142B06
:1057B00038F00E941B2B20F0952311F00C94E42A62
:1057C0000C94EA2A11240C94562B0E94332B70F36C
:1057D000959FC1F3950F50E0551F629FF001729F96
:1057E000BB27F00DB11D639FAA27F00DB11DAA1FA5
:1057F000649F6627B00DA11D661F829F2227B00DF2
:10580000A11D621F739FB00DA11D621F839FA00D7C
:10581000611D221F749F3327A00D611D231F849FCC
:10582000600D211D822F762F6A2F11249F57504023
:105830009AF0F1F088234AF0EE0FFF1FBB1F661F9E
:10584000771F881F91505040A9F79E3F510580F067
:105850000C94E42A0C94562B5F3FE4F3983ED4F367
:10586000869577956795B795F795E7959F5FC1F70B
:10587000FE2B880F911D9695879597F908959F9314
:105880000E94572C0F9007FCEE5F0C94802C9F3FDA
:1058900031F0915020F4879577956795B795880FEB
:1058A000911D9695879597F908950C94EA2A0E9480
:1058B0003B2BD8F3E894E0E0BB279F57F0F02AEDAC
:1058C0003FE049EC06C0EE0FBB0F661F771F881F35
:1058D00028F0B23A62077307840728F0B25A620BC5
:1058E000730B840BE3959A9572F7803830F49A9590
:1058F000BB0F661F771F881FD2F790480C94492C66
:10590000EF93E0FF07C0A2EA2AED3FE049EC5FEB2E
:105910000E9470290E94222B0F90039401FC905842
:10592000ECE7F0E00C94942C9F938F937F936F930C
:10593000FF93EF939B01AC010E94D22BEF91FF915B
:105940000E94ED2A2F913F914F915F910C94D22BA1
:10595000AA1BBB1B51E107C0AA1FBB1FA617B70795
:1059600010F0A61BB70B881F991F5A95A9F78095B1
:105970009095BC01CD01089597FB072E16F4009475
:1059800007D077FD09D00E94A82C07FC05D03EF473
:10599000909581959F4F0895709561957F4F0895DB
:1059A000EE0FFF1F0590F491E02D0994002E0830B2
:1059B00090F0982F872F762F652F542F432F322F5B
:1059C00022270850F4CF220F331F441F551F661F94
:1059D000771F881F991F0A95B2F7002D08952A1581
:1059E0003B054C055D056E057F0580079107089511
:1059F000E199FECF9FBB8EBBE09A99278DB30895A6
:105A0000A6E1B0E044E050E00C943E2DA8E1B0E007
:105A100042E050E00C943E2D262FE199FECF9FBB33
:105A20008EBBE09A01970DB2021631F02DBB0FB676
:105A3000F894E29AE19A0FBE08950396272F0E94E8
:105A40000D2D0E940C2D252F0E940D2D242F0C941E
:105A50000D2D0196272F0E940D2D0C940C2D262F15
:105A6000E199FECF9FBB8EBB2DBB0FB6F894E29A97
:105A7000E19A0FBE01960895DC01CB01FC01E1998A
:105A8000FECF06C0FFBBEEBBE09A31960DB20D9281
:105A900041505040B8F70895F894FFCF940AA00AF7
:105AA000A40AA80AAC0AB00AB40AB80ABC0AC00A16
:105AB000C40AC80ACC0AD00AD40AD80ADC0AE00A06
:105AC000E40A2E1B2E1B8D1B8D1BD41B5B1B5B1B2B
:105AD0005B1BF01B5B1B881C881CF31CFC1C5B1BEA
