:100000000C94A6030C94EA030C9405040C94EA03E4
:100010000C94EA030C94EA030C94EA030C94EA03AC
:100020000C94EA030C9441140C9418250C94EA03E4
:100030000C94EA030C94EA030C94EA030C94EA038C
:100040000C94EA030C94EA030C94EA030C94EA037C
:100050000C94EA0362696E676F36303540676D61F4
:10006000696C2E636F6D006C69616E672E79756EB9
:10007000676873696E407A75756F6E6C696E652E10
:10008000636F6D00290014001A00080015001700A6
:100090001C0018000C00120013002A00E0000400ED
:1000A0001600070009000A000B000D000E000F00EB
:1000B00003572800E1001D001B0006001900050081
:1000C000110010003600370052003800E300E20053
:1000D0002B00065701512C002C00025100575000F4
:1000E00051004F0035021E021F022002210222028F
:1000F000230224022502260227022A00E0003A00F9
:100100003B003C003D003E003F002E022E002F022F
:1001100030022800E100400041004200430044005A
:10012000450031023400340202574B00E300E20084
:100130002900055701000100010001002D025000B7
:100140004F004E0035001E001F002000210022003D
:10015000230024002500260027002A004C003A0036
:100160003B003C003D003E003F002D002E002F00D4
:1001700030002800E10040004100420043004400FC
:1001800045002D023400340233023100E300E00068
:10019000010001000100010001000100AB00AA0004
:1001A000A900AE00290014001A000800150017006D
:1001B0001C0018000C00120013002A00E3000400C9
:1001C0001600070009000A000B000D000E000F00CA
:1001D00004572800E1001D001B000600190005005F
:1001E000110010003600370052003800E000E20035
:1001F0002B00045101512C002C00025135005000FD
:1002000051004F002E021E022F0020022102220266
:100210002E0023023402270226022A002F020100A8
:1002200050004F004B004E002D002D0233023002D3
:1002300031022800E100010001000100890289006B
:100240003000320024021F0201008700E000E200BB
:100250002B00E30001512C002C000251015701003A
:10026000010001003A003B003C003D003E003F0021
:100270004000005142004300440045000100C25CC0
:10028000C55CC75CC95CBF5CC15CBE5CCF5CD05C5C
:10029000D35C010001000651C65CC85CCA5C045115
:1002A0000351BD5C01000100460001000100010096
:1002B000C35C010001000100010001000100010018
:1002C0000100010001000100510052000100010085
:1002D000010000515F00600061002A000100010080
:1002E00050004F004E004B00010038005C005D00E4
:1002F0005E00560001000100010001000100010044
:1003000001002E0059005A005B0057000100010057
:10031000010001000100010001000100620025024E
:100320006300580000000000000000002A2B280095
:100330000000000000000000000000000000002994
:10034000000000002C1E3420212224342627252ED4
:10035000362D3738271E1F2021222324252633330C
:10036000362E37381F0405060708090A0B0C0D0E38
:100370000F101112131415161718191A1B1C1D2F04
:100380003130232D350405060708090A0B0C0D0E24
:100390000F101112131415161718191A1B1C1D2FE4
:1003A0003130354C0000000000000000000000006B
:1003B00000000000000000007E0F00D4FFFFFFC718
:1003C0000000007832190A00047F3F1F6432146471
:1003D0003214783C1E1E140A052223252628292AB9
:1003E0002C2D2F3032333536383A3B3D3E40424398
:1003F0004547494A4C4E5051535557595A5C5E60D7
:1004000062646668696B6D6F71737577797B7D7FE8
:1004100081838587898A8C8E90929496989A9C9EE7
:100420009FA1A3A5A7A8AAACAEAFB1B3B4B6B8B903
:10043000BBBCBEBFC1C2C3C5C6C7C9CACBCCCDCE6B
:10044000D0D1D2D2D3D4D5D6D7D7D8D9D9DADADB4E
:10045000DBDBDCDCDCDCDCDDDDDDDDDCDCDCDCDCDA
:10046000DBDBDBDADAD9D9D8D7D7D6D5D4D3D2D219
:10047000D1D0CECDCCCBCAC9C7C6C5C3C2C1BFBE01
:10048000BCBBB9B8B6B4B3B1AFAEACAAA8A7A5A36C
:10049000A19F9E9C9A98969492908E8C8A8987852B
:1004A00083817F7D7B79777573716F6D6B6968660A
:1004B0006462605E5C5A5957555351504E4C4A49DC
:1004C00047454342403E3D3B3A3836353332302F84
:1004D0002D2C2A292826252322FFAA7F55400000FB
:1004E00000000000000000000001010203040506F6
:1004F000080A0C0F1114181C2024292E33393F46EA
:100500004C535B626A7179818A929AA2AAB2B9C18C
:10051000C8CFD5DCE1E7EBF0F4F7FAFCFDFEFFFE17
:10052000FDFCFAF7F4F0EBE7E1DCD5CFC8C1B9B2D6
:10053000AAA29A928A8179716A625B534C463F39CA
:10054000332E2924201C1814110F0C0A0806050448
:100550000302010100000000000000000000000193
:100560000101010101010101020202020202020273
:100570000203030303030303030404040404040445
:100580000505050505060606060607070707070809
:10059000080808090909090A0A0A0B0B0B0C0C0CBC
:1005A0000D0D0D0E0E0E0F0F0F1010111111121256
:1005B00013131414151516161717181819191A1AD3
:1005C0001B1B1C1D1D1E1E1F202021222223242434
:1005D000252626272829292A2B2C2D2D2E2F303170
:1005E0003232333435363738393A3B3C3D3E3F4082
:1005F0004142434445464748494A4C4D4E4F50516D
:100600005354555658595A5B5D5E5F616264656626
:1006100068696B6C6D6F7072737577787A7B7D7EAD
:100620008082838587888A8C8E8F91939596989AFD
:100630009C9EA0A2A3A5A7A9ABADAFB1B3B5B7BA15
:10064000BCBEC0C2C4C6C9CBCDCFD1D4D6D8DBDDE9
:10065000DFE2E4E7E9EBEEF0F3F5F8FAFDFF09027B
:100660003B00020100A03209040000010301010067
:100670000921010100012240000705810308000152
:100680000904010001030000000921010100012209
:100690003200070583030800011201100100000069
:1006A00008A0202D420002010203010403300000D3
:1006B000000A034A004A0034003000000016034BD1
:1006C000005000720065007000750062006C0069E7
:1006D00000630000000403090405010980A10185ED
:1006E0000319012AB700150126B70095017510817D
:1006F00000C0050C0901A101850419012AA00215F9
:100700000126A002950175108100C005010906A10E
:1007100001050719E029E7150025019508750181F4
:10072000029501750881030507190029FF150026A8
:10073000FF00950675088100050819012905950532
:1007400075019102950175039103C00011241FBE2C
:10075000CFE5D8E0DEBFCDBF04B603FE24C0809154
:10076000810390918203A0918303B0918403873029
:10077000904BA740B04BB9F41092810310928203C2
:10078000109283031092840314BE84B7877F84BFC2
:100790000FB6F894A89581B5886181BD11BC0FBED4
:1007A000E0E0F8E3099511E0A0E6B0E0EEE8F3E55B
:1007B00002C005900D92A23DB107D9F723E0A2ED4A
:1007C000B1E001C01D92A138B207E1F70E946F2588
:1007D0000C94C5290C940000A82FB92F80E090E05C
:1007E00041E050EA609530E009C02D91822797954D
:1007F000879510F084279527305EC8F36F5FA8F3C4
:100800000895EADF8D939D930895CF93CFB7CF934B
:10081000C395839BE9F7839B0EC0839B0CC0839B8E
:100820000AC0839B08C0839B06C0C0915803C39530
:10083000C0935803A6C0DF93C0915703DD27C15A68
:10084000DC4F839B02C0DF91E6CF2F930F931F9362
:1008500000B32FEF03FB20F94F933F9310B34FEFFB
:10086000012703FB21F93BE031C04E7F012F10B37C
:10087000216028C0102F4D7F2260000000B329C0E6
:100880004B7F2460012F000010B32BC010B3477FB3
:1008900028602AC04F7E00B320612CC04F7D10B36A
:1008A00020622FC04F7B00B3206432C0422700B3C8
:1008B00049934FEF0000102713FB20F910B31C7071
:1008C000C9F1297F91F2012703FB21F900B3237FAE
:1008D00089F2315058F1102713FB22F910B3277E0B
:1008E00079F2012703FB23F92F7C81F200B3102753
:1008F00013FB24F92F7971F200C010B3012703FB19
:1009000025F92F7359F200C000B3102713FB26F905
:10091000223040F200C010B3012703FB27F9243036
:1009200028F64F77206810B30000F9CF10E81ABFFF
:1009300000271CC03B503195C31BD04010E81ABFA4
:100940000881033C11F10B3401F12091540319810A
:10095000110F1213EDCF4A81441F093659F10D32A0
:1009600011F0013E29F74F7009F0042F00935D0349
:100970003F914F911F910F912F91DF91CAB7C7FD02
:1009800047CFCF91CFBFCF91189520915D03222300
:1009900079F310915B031123C1F53430C2F1309328
:1009A0005B0320935603109157033BE0311B3093B8
:1009B00057032DC000915B0301303CF50AE54F70F1
:1009C00049F43091330134FD24C000933301CDE369
:1009D000D3E023C0433049F03091480334FD19C0BF
:1009E00000934803C9E4D3E018C03091750334FD87
:1009F00010C000937503C6E7D3E00FC02795A8F495
:100A00005150A9F4220F0000F9CF4AE503C042ED8E
:100A100001C0432FC4E1D0E032E011B31C60939ACF
:100A200011BB02B320E41CE05F93012756E002BB38
:100A3000279520F4515021F4220FF9CF012756E0D9
:100A400000003B5A02BBD0F2279528F4515029F4FC
:100A5000220F0000F9CF012756E0279502BB20F4B2
:100A6000515021F4220FF9CF012756E02991332369
:100A700002BB21F6037F10915C03110FC651D040D9
:100A800002BB11F01093540310E81ABF086011B3B1
:100A9000137F402F437F5F9100C000C002BB11BB9A
:100AA00042BB66CFCF93DF93EC018881823048F060
:100AB00087E690E00E944C07CE01DF91CF910C9425
:100AC0002B1784E590E0F6CFCF93DF93EC0188817C
:100AD000823040F080E90E94C31ACE01DF91CF91AD
:100AE0000C942B1781E9F7CF0E94151189E00E9421
:100AF000121180E00C944F070F9305E022E041E0D3
:100B00000E9462070F910895CF93DF93EB0183302A
:100B100021E5920751F138F481159145C1F081E04A
:100B2000DF91CF910895843021E5920709F440C008
:100B300086309145A1F70E9415114BE968E78FE0D7
:100B40000E949B0C8A81882351F386E00BC00E948F
:100B50008F100E94A31281110E943A148A81882367
:100B6000F1F280E00E944F07DACF0E94151181E078
:100B70000E94121120E04FEF65EF89E90E941C0EE0
:100B800021E04FEF65EF89E90E941C0E22E04FEF54
:100B900065EF89E90E941C0E23E04FEF65EF89E9BC
:100BA0000E941C0E8A81882309F4B9CF83E0DACF32
:100BB0000E9415114FE06BE988E70E949B0C8A8127
:100BC000882309F4ACCF84E0CDCFCF93DF939C0191
:100BD0003A9521153F4168F5EC01CC27D170DC0135
:100BE000AA27B270AC01442754709C0122273870A8
:100BF00094FF11C080E0CD2B09F080E1AB2B09F010
:100C00008062452B09F08064232B09F08068FB018A
:100C1000DF91CF91099481E0CD2B09F480E0AB2BDB
:100C200009F08260452B09F08460232B81F38860F2
:100C3000EECFDF91CF910895CF93DF93EC01805EEB
:100C40009109089720F060E57DE1209711F466EDA9
:100C50007AE1CE010E94E5058C2FDF91CF910C94B3
:100C6000551ACF93DF93EC010E949B1ACE01805E50
:100C70009109089720F067E57DE1209711F46DED6B
:100C80007AE1CE01DF91CF910C94E50581E00895E2
:100C90000C94840508950C944A061F93CF93DF9318
:100CA00000D000D01F92CDB7DEB749835A836B8343
:100CB0003091130289819A8131111DC06623B9F0E8
:100CC0002223A9F00E949622182F682F89819A81E9
:100CD0000E943C2269817A81812F0F900F900F90A2
:100CE0000F900F90DF91CF911F910C9439080E94C3
:100CF0006B22182FEFCF0E94962269817A81EDCF67
:100D0000FC01262F408151816281738184810C9482
:100D10004D06CF93DF93EC0160E00E948006BE0198
:100D2000DF91CF910C944B06FF920F931F93CF93BB
:100D3000DF93E82FF0E0EC5DFC4FF490C82FC695F0
:100D4000C695C695D0E0FE01EC54FC4F0491877027
:100D500010E0082E02C0159507950A94E2F701707D
:100D60001127CC55DC4FFE01C491D0E002C0D595CF
:100D7000C7958A95E2F7C170DD270115110519F0B5
:100D800081EE0E94551A209719F086EE0E94551A9E
:100D90008F2D0E94C31ACD2B19F086EE0E949B1A4C
:100DA000012B41F081EEDF91CF911F910F91FF90C8
:100DB0000C949B1ADF91CF911F910F91FF90089592
:100DC000EF92FF920F931F93CF93DF938C01F62E38
:100DD0008AE0E82EF8018491882309F456C0813016
:100DE00009F04FC0E8012196FE018491813051F451
:100DF0002196FE011491812F0E94551A812F0E9485
:100E00009B1A08C0823099F4E8012296FE01849171
:100E10000E94551A8E010F5F1F4F8F2D8150D0F207
:100E2000E7EBFBE03197F1F700C00000F7CF83302C
:100E300029F4E8012296FE018491E1CF843051F734
:100E4000E8012296FE01249190E080E0FE013196B7
:100E50002053330B2A30310548F00197D8F2E7EBE5
:100E6000FBE03197F1F700C00000F7CFE89EA0014A
:100E7000E99E500D1124C901840F951F2491EF01A3
:100E8000E5CF0E949406E801C5CFDF91CF911F9175
:100E90000F91FF90EF90089560E00C94E006CF93DF
:100EA000DF93C1E0D0E002C0CC0FDD1F8A95E2F7EE
:100EB0008C2F0E94F323BE0190E080E0DF91CF9160
:100EC0000C9440218F929F92AF92BF92CF92DF926B
:100ED000EF92FF920F931F936B017C0181E090E0F2
:100EE000A0E0B0E04C015D0104C0880C991CAA1C74
:100EF000BB1C4A95D2F7B501A4014C015D0104C0A9
:100F0000880C991CAA1CBB1C2A95D2F74829592980
:100F10006A297B2904C0880F991FAA1FBB1F0A9545
:100F2000D2F78A019B010C211D212E213F2104179C
:100F300015072607370789F48C299D29AE29BF2973
:100F4000BC01CD011F910F91FF90EF90DF90CF90EA
:100F5000BF90AF909F908F90089580959095A095A9
:100F6000B0958C219D21AE21BF21EACF0E94E023C4
:100F7000811102C00E948B240E94AC140C94440A7C
:100F80000E9410180C94470A08950C94C40781E03D
:100F900008950C94C707CF93C82F0E94C5078C2FC4
:100FA000CF910C94C90708950E94701D0E94D30729
:100FB0002FEB87E299E0215080409040E1F700C09C
:100FC00000000C943E250F931F93CF93DF93EC0109
:100FD00061E00E9480068C01BE010E947017BE0174
:100FE000C8010E9448068823B9F1BE01C8010E94C9
:100FF0009C13882389F1BE01C8010E94B61788237B
:1010000059F1BE01C8010E945015882329F1BE0183
:10101000C8010E9491158823F9F0BE01C8010E9401
:10102000B6168823C9F0BE01C8010E941F1288238A
:1010300099F08A81882339F001158CE5180751F061
:101040000E3D1C4579F0CE01DF91CF911F910F919C
:101050000C9446060E94D40780E0DF91CF911F9147
:101060000F9108950E948B24F7CF90E080E00895BF
:101070000895972F70E02CE0929F600D711D112450
:10108000FB0190E3899FE00DF11D1124EE0FFF1F7E
:10109000EC57FF4F859194910895FC01EE0FFF1FCF
:1010A000EC53FC4F859194910895CF93DF930E9468
:1010B00039080E946509EC018115904508F042C08D
:1010C000C11580E4D80708F0B8C0C03ED10518F5B6
:1010D000C03CD10508F0A0C0C83AD10570F4C53AAB
:1010E000D10508F091C0C130D10501F118F0C4302C
:1010F000D105E0F4D0E0C0E019C0CF3BD105D0F776
:10110000C85AD0E0CC0FDD1FCC5CDE4F0990D881EF
:10111000C02DD4640BC0C11520E2D20758F4C1150C
:1011200081E0D80718F4C83ED10520F7CE01DF9141
:10113000CF910895C11520E3D20708F074C0CE0105
:101140009F706DC0C11585E5D80760F5C11524E510
:10115000D20708F0A0C0C11582E5D80750F4C11528
:1011600021E5D20708F46CC0DC2FCC27C16FD06A10
:10117000DDCF9C2F969596959E0123703327C11540
:10118000D34508F079C0C1E0D0E002C0CC0FDD1F2C
:101190002A95E2F720E2929FC0011124C82BD92B97
:1011A000DC68C4CFC11529E5D207A8F4C11588E5CC
:1011B000D80708F075C0C11526E5D20708F09ACF08
:1011C0008C2F0E94000AC82FD0E0DC2FCC27CC2720
:1011D000DF71D062ABCFC1158AE5D80708F465C0CE
:1011E000CE0190568115904208F084CF8D2F8F71DB
:1011F0000E94000ADD27D06290E0982F8827882778
:101200009F71C82BD92B92CFC55AD0E0CE59DE4F53
:10121000C881D0E0D0648ACFCE01805C91090E9461
:101220004D08EC0183CFCE019927D3FF03C0EC0119
:10123000D86C7CCFEC01D06C79CFDF70D06A76CFE0
:10124000CE01F4E096958795FA95E1F783709C2F8F
:10125000937021E030E002C0220F331F9A95E2F72D
:101260003C68382BC695C695C37080E2C89FE001E4
:101270001124C22BD32B5ACFC1E0D0E002C0CC0F37
:10128000DD1F2A95E2F720E2929FC0011124C82BAE
:10129000D92BDA684BCFDC2FCC27C46FD06A46CF6E
:1012A000DC2FCC27C06FD06A41CF8C2F8F700E946B
:1012B000000A34E0D695C7953A95E1F7CF70D0E0B3
:1012C000DC2FCC27D069C82B31CF82389105B1F102
:1012D000B0F48133910509F471C048F48932910565
:1012E00009F467C08A32910509F46DC00895853309
:1012F000910509F459C08933910501F10895833EA0
:101300009105A9F138F4803E9105F9F0823E9105EE
:1013100049F10895863E9105A9F1873E9105C9F1ED
:10132000843E910519F520913C0321FF1FC0809157
:101330003B0384FD14C087EE90E0089520913B03A9
:101340002370A1F080EE90E0089520913B0320FDF2
:101350003FC030913C0330FF09C024FF3CC090E007
:1013600080E0089520913B0322FDF7CF089520915E
:101370003B0322FD33C030913C0330FDE3CF24FD1D
:10138000EECFF4CF20913B0323FFF0CF24FDE7CF36
:10139000D2CF20913B0323FD24C030913C0331FF89
:1013A000EECF84EE90E0089520913B0325FD1CC014
:1013B000089520913B0325FD1AC0089520913B0319
:1013C00026FD18C0089520913B0326FD16C0089500
:1013D00089E390E0089583EE90E0089582EE90E036
:1013E000089586EE90E0089589E290E0089585E3FF
:1013F00090E008958AE290E0089581E390E0B6CF0E
:1014000090913B0392FF06C0282F28712830F9F4F1
:10141000877F846093FF06C0282F28712831F1F45C
:10142000877E846120913C0320FF06C0382F3871ED
:101430003830D9F4877F816021FF06C0282F2871BA
:101440002831D1F4877E816194FD877E0895282F0D
:1014500024712430F9F68B7F8860DCCF282F24712B
:10146000243101F78B7E8861DDCF382F3171313027
:1014700019F78E7F8860E0CF282F2171213121F765
:101480008E7E8861E1CF08950C94430A08950C94F0
:10149000460AE82FF0E0EE0FFF1FE65EFC4F80816A
:1014A00091810895089588E78A95F1F70895CF937B
:1014B000DF93A1E7B1E045E751E0C1E0D0E08D91D5
:1014C000E82FE295EF70F0E061A98F709E0101C0F6
:1014D000220F8A95EAF7922F9095962391AB82A9D5
:1014E000822B82AB4A175B0751F7A5E6B1E041E7D3
:1014F00051E0C1E0D0E08D91E82FE295EF70F0E08F
:1015000061A98F709E0101C0220F8A95EAF7922F80
:101510009095962391AB82A9822B82AB4A175B07E9
:1015200051F7109213031092120310921B031092A2
:101530001A03109215031092140310921D031092B7
:101540001C03109217031092160310921F0310929F
:101550001E03109219031092180310922103109287
:10156000200384E00E943E0BDF91CF910C94B607DC
:101570008F929F92AF92BF92CF92DF92EF92FF92A3
:101580000F931F93CF93DF9301E711E082E1E82EE1
:1015900083E0F82E912CAA24A394B12CF801819118
:1015A0008F01C82FC295CF70D0E099A98F706501C7
:1015B00001C0CC0C8A95EAF7892F8C2989AB8AA9BE
:1015C0008C2C809488218AAB0E94530AE5E6F1E0D6
:1015D00050E040E030E020E06191A62FA295AF708E
:1015E000B0E0D0968C9190E06F7002C09595879591
:1015F0006A95E2F780FD3DC0C501042E02C0880F48
:10160000991F0A94E2F7282B392B4F5F5F4F4C301C
:10161000510511F789A9882289AA8AA9C82ACAAAC4
:10162000F701819191917F012817390729F13297AC
:101630003183208381E0982AF1E005371F0709F004
:10164000ADCF292D44E06AE173E082E193E00E948E
:101650003F0B0E94C007892DDF91CF911F910F9101
:10166000FF90EF90DF90CF90BF90AF909F908F90C2
:10167000089590E080E0C7CF80E0DDCF0895FF922D
:101680000F931F93CF93DF93F82E092F162FD72F89
:10169000C42F222349F081E08093D4010E94FD24CD
:1016A0009093D3018093D2018091D4018823A1F03B
:1016B0008091D2019091D3010E940925069760F094
:1016C000EF2DF02FA12FBD2F90E080E0D0E08C1700
:1016D0009D0744F01092D401DF91CF911F910F919B
:1016E000FF900895219131912D933D930196EFCF75
:1016F000AF92BF92CF92DF92EF92FF920F931F9320
:10170000CF93DF939B01E82FF0E0E25AFA4F3111BB
:101710000EC06491762F862FDF91CF911F910F918C
:10172000FF90EF90DF90CF90BF90AF900895C32FC0
:10173000D0E0E491FE2FEE2EF12C46E0649FC00134
:1017400011240FEF10E0B8010E947728AB01822F1F
:1017500090E0880F991F25E5249FB001259F700D0B
:101760001124861B970B982F990F980FB8016C1BAB
:101770007D0B6E9DD0016F9DB00D7E9DB00D11242F
:101780008B2F939F90011124232F3327B801621BC5
:10179000730B6E9D90016F9D300D7E9D300D112459
:1017A000732F5801A91AB108AC9E6001AD9ED00CF0
:1017B000BC9ED00C1124CD2CDD240C191D090E9DCE
:1017C000E0010F9DD00D1E9DD00D1124423051051A
:1017D000B1F050F44115510571F04130510569F0F7
:1017E0007E2FEB2F832F09C04430510579F050F044
:1017F00046305105A9F77E2FED2F6E2F8DCF7B2F11
:101800008D2FFBCFE32F7B2F8F2FF7CF7D2FEB2F4C
:10181000FBCF0895CF93DF93762FE901682F842FB4
:101820000E94780B798368838A83DF91CF91089532
:1018300080912203982F9E7F29F48170826080938B
:10184000220308958635E8F381708465F8CF88E037
:1018500090E00C945229CF92DF92EF92FF926B01AD
:101860007C010E94180CB701A60188E090E0FF906F
:10187000EF90DF90CF900C946F29E2E2F3E083E0E9
:10188000808311828FEF82838383148260817181D0
:10189000828193810C942B0C8091220380FF02C0E3
:1018A0008695089580E0089580912603833018F48A
:1018B0008F5F8093260360912203709123038091B0
:1018C0002403909125030C942B0C809126038823EC
:1018D00019F08150809326036091220370912303B5
:1018E00080912403909125030C942B0C70E00C94B0
:1018F000BE14609115018091220380FF0AC080917F
:10190000140123E0829FC0011124895D9C4F0C9437
:10191000760C809116019091170123E0829FF001CF
:101920001124E95DFC4F891750F711821082128251
:101930008F5F3396F8CF9091220390FF14C090915F
:1019400016012091170133E0939FF0011124E95D06
:10195000FC4F921710F00C94790C818360834283C2
:101960009F5F3396F6CF0895CF93DF9300D01F92F9
:10197000CDB7DEB79091220390FF0AC09E012F5F82
:101980003F4F0E940A0C4B8169818A810E949B0C07
:101990000F900F900F90DF91CF910895CF93DF9329
:1019A000EC01EC81F0E0E752FC4F4491E2E2F3E01D
:1019B000628181810E94B40C8C818F5F8C83DF9166
:1019C000CF910895CF93DF93EC01E2E2F3E04381FE
:1019D00062818C810E94B40C8C818F5F8C83DF913B
:1019E000CF9108950F931F93CF93DF9300D01F9251
:1019F000CDB7DEB78C018091D50181110AC09E015F
:101A00002F5F3F4F4FEF6FEF0E940A0C8A81809348
:101A1000D501F8018481813069F038F04091D50119
:101A2000823009F040E080E003C08091D50140E0C1
:101A300060E004C06091D50140E080E00E949B0C12
:101A4000F801848190E0019663E070E00E948B28A9
:101A500084830F900F900F90DF91CF911F910F9182
:101A60000895AF92BF92CF92DF92EF92FF920F93C1
:101A70001F93CF93DF9300D01F92CDB7DEB7182FFF
:101A8000F62E042FE22E9091220390FF29C0E92F19
:101A9000E695AE2FB0E0AB58BE4F8C918093F80125
:101AA0009E7F923059F59E012F5F3F4F812F0E94FC
:101AB0000A0C4B8169818A810E949B0C109323033D
:101AC000F092240300932503EE2051F0609122034D
:101AD0007091230380912403909125030E942B0C85
:101AE0000F900F900F90DF91CF911F910F91FF906A
:101AF000EF90DF90CF90BF90AF900895823019F4AF
:101B000000912503DBCF863019F410912303D6CF43
:101B10008930D9F3893191F6E9518E2F8170D82E11
:101B2000E695F0E0E752FB4FA590B490C12CBB24A2
:101B300060911801C61618F00E94790CBFCF2C2DA9
:101B400030E0A29EC001A39E900DB29E900D112484
:101B500070E00E947728812FD11013C0860F40912A
:101B60001601420F532F511D9A01220F331F240FCC
:101B7000351F295D3C4F402F6F2D0E940A0CC394E6
:101B8000D7CF861BECCFE2E2F3E09181282F43818F
:101B9000628188E0890F0C94310D81E00C94C30DB3
:101BA000E2E2F3E09181282F4381628188EF890F7F
:101BB0000C94310D81E00C94D00DE2E2F3E06281EF
:101BC00021E1620F08F46FEF282F438181810C948B
:101BD000310D81E00C94DD0DE2E2F3E0628121E160
:101BE000621B08F460E0282F438181810C94310D41
:101BF00081E00C94EC0DE2E2F3E0438121E1420F3D
:101C000008F44FEF282F628181810C94310D81E01F
:101C10000C94FB0DE2E2F3E0438121E1421B08F466
:101C200040E0282F628181810C94310D81E00C9479
:101C30000A0E20E00C94310D9091220390FF0FC00A
:101C4000253068F430E0F901EE0FFF1FE20FF31FBB
:101C5000E95DFC4F8183608342830C94790C089585
:101C6000EF92FF921F93CF93DF93EC0110E0EE24ED
:101C7000EA94F12C60911801161770F00E94790C0B
:101C80009A818C8190FF27C08F5F8C83DF91CF91E9
:101C90001F91FF90EF90089520911601422F410F60
:101CA0005527551FCA019A01220F331F280F391FCC
:101CB000295D3C4F70E0C7010E948B28962F8C81D4
:101CC0004091250360912403199F800D11240E94E7
:101CD0000A0C1F5FCFCF8150D8CFAF92BF92CF9267
:101CE000DF92EF92FF920F931F93CF93DF93FC014C
:101CF000828101E080FD0FEF10E045E0A42E80918D
:101D000018011817C8F00E94790C8091D701013092
:101D100009F055C0811102C0809118018150809353
:101D2000D701DF91CF911F910F91FF90EF90DF903E
:101D3000CF90BF90AF900895C0911601C12ED12CC5
:101D4000CC0DDD2DD11DCE01880F991FC80FD91FD5
:101D5000C95DDC4F198218821A8234E0E32EF12C1F
:101D6000B12C8091D7018B0D86301CF16A2D0E9419
:101D70006928892F082E000C990BC816D90691F4F2
:101D8000809125038E9DA0018F9D500D11245595A6
:101D90004795559547959E016091240380912303B3
:101DA0000E940A0CB00EF1E0EF1AF108D1F61F5FA5
:101DB000A6CF87FFDFCF90911801890FDBCF90E08E
:101DC00001966091180170E00E948B28A8CF0F93B4
:101DD0001F93CF93DF93809116019091170123E019
:101DE000829FF0011124E95DFC4F891740F1C0E0AA
:101DF000D3E060911801C61740F10E94790C209140
:101E000012018091D601820F8093D6019091130127
:101E1000920F90931301191654F4082E000C990B8D
:101E2000409118014150550B841795071CF02195DE
:101E300020931201DF91CF911F910F91089511828C
:101E4000108212828F5F3396D0CF0C2F10E070E09B
:101E5000C8010E948B2820911601820F482F50E064
:101E60002091D601022E000C330B02171307BCF091
:101E700020911301022E000C330B201731077CF048
:101E80008D9F90011124295D3C4F40912503609165
:101E90002403809123030E940A0CCF5FAACFFA018A
:101EA000EE0FFF1FE40FF51FE95DFC4F118210825A
:101EB0001282F3CF0F931F93CF93DF938C01FC011A
:101EC0008481958101968170992795838483C0E0F0
:101ED000D5E580911801C81730F0DF91CF911F919F
:101EE0000F910C94790C20911601422F4C0F55271D
:101EF000551FCA019A01220F331F280F391F295D70
:101F00003C4F8C2F8695F80144815581840F952F85
:101F1000911D817040912503609124038D9F802D38
:101F200011240E940A0CCF5FD4CF0F931F93CF933D
:101F3000DF93EC0110E000E090911801901711067A
:101F400009F06CF40E94790C8C8190E0019681700C
:101F500099278C83DF91CF911F910F910895209144
:101F60001601A801420F511D9A01220F331F240FA1
:101F7000351F295D3C4F4C816091240380912303E0
:101F800096959017110651F04CF0442349F040917A
:101F900025030E940A0C0F5F1F4FCECF4423B9F3D5
:101FA00040E0F7CF8F929F92AF92BF92CF92DF9295
:101FB000EF92FF920F931F93CF93DF93FC01B280B8
:101FC000948081E0848300E015E05BE4A52E882402
:101FD0008394EE24EA94F12C7BE4C72ED12C8091DB
:101FE0001801081770F0DF91CF911F910F91FF90AA
:101FF000EF90DF90CF90BF90AF909F908F900C9418
:10200000790CC02FD0E01C9FF0011D9FF00D112412
:10201000E852FE4F91101CC01382128220911601CB
:10202000CE01820F911D9C01220F331F280F391FF3
:10203000295D3C4F1C9FF0011D9FF00D1124E852BB
:10204000FE4F4281618180810E940A0C0F5FC7CFE1
:102050002381222379F12150238334818A2D821B0D
:10206000311101C0822F1C9FF0011D9FF00D112422
:10207000E852FE4F90912503899FC0011124B601BB
:102080000E9477286283211104C0332311F0148247
:10209000A38222E02B1510F21C9FF0011D9FF00D72
:1020A0001124E852FE4F8091230380838091240302
:1020B0008183B4CF0E942D29823091400CF0AECFA5
:1020C00082E08B1530F50E942D29B7010E948B28E4
:1020D0001C9FF0011D9FF00D1124E852FE4F8083DC
:1020E00022E02B15C8F40E942D2920912403269567
:1020F000622F70E00E948B28280F1C9FF0011D9F0B
:10210000F00D1124E852FE4F21831282A3828482B3
:1021100085CF80912303DCCF20912403EECFE2E230
:10212000F3E080818E7F80836081718182819381E1
:102130000E942B0C1092F9012FEB84ED91E02150BD
:1021400080409040E1F700C000000C94790C609151
:102150002203669570E04BE050E089E191E00E9437
:102160003D29892B19F481E08093F9010E94FD2417
:102170009093F2018093F10108959091220390FFD2
:1021800035C09170811128C092609093220366231C
:1021900051F0609122037091230380912403909168
:1021A00025030E942B0C60912203669570E04BE0A2
:1021B00050E089E191E00E943D29892BA1F0109225
:1021C000F90181E08093F40140912503609124039B
:1021D000809123030C94190E8B3210F09465D5CFA7
:1021E000880F982BD2CF0E94A710EBCF0895682FAD
:1021F00090912203969581E0890F8B3208F081E05F
:102200000C94BD1081E00C94F710682F909122037C
:1022100096958FEF890F09F48AE20C94BD1081E046
:102220000C94051161E00C94BD10E2E2F3E08081B2
:102230008160808386950C9412118091220380FD29
:102240000C948F100C94151160E00C94BD108091CB
:10225000F70181112EC00E94E023811104C00E9469
:102260008B240E943D0C0E94270C609322037093E4
:10227000230380932403909325036E7F61F40E94CF
:102280003D0C0E94270C60932203709323038093DC
:102290002403909325030E94180C1092F901809159
:1022A000220380FF03C086950E94241181E0809361
:1022B000F70108950F931F93CF93DF938091F90156
:1022C000882309F49DC08091F801E0912203E695EE
:1022D000E81BE093F3018230C9F5F0E0EB52FC4FCC
:1022E000E491CE2FD0E00EEC1CE08091F401882325
:1022F00089F01092F4010E94FD249E0120953095F2
:10230000820F931F9093F2018093F1011092F601D6
:102310001092F5018091F1019091F2010E9409253E
:102320008C179D0708F46CC0E091F101F091F20167
:10233000CE0FDF1FD093F201C093F10181EF91E046
:10234000F801DF91CF911F910F910994863049F4E4
:10235000F0E0EE52FC4FE491CE2FD0E002EE1CE014
:10236000C4CF893051F4E695F0E0E153FC4FE4919D
:10237000CE2FD0E000E31EE0B8CF8F3051F4E695C9
:10238000F0E0E453FC4FE491CE2FD0E00DE61EE0E8
:10239000ACCF853149F4F0E0E753FC4FE491CE2F08
:1023A000D0E007EE1EE0A1CFC8EED3E00AE51FE0C3
:1023B000883109F49ACF833239F4E7ECF3E0C59120
:1023C000D49102EF1CE091CFC4EFD1E005E91FE00A
:1023D000843209F48ACFC0EDD7E009E01CE08532F1
:1023E00009F083CF8E2F63E00E945D28E92FF0E093
:1023F000EC53FC4FE491CE2FD0E002ED1FE075CFFF
:10240000DF91CF911F910F910895FA01811101C0C1
:10241000FB010994CF93DF93C82FD62F0E944C0C59
:102420008C1740F00E944C0C8D1720F4DF91CF9157
:102430000C9402118C2FDF91CF910C9412110F93F9
:102440001F93CF938C01FB01C281CC2309F479C087
:102450000E942B238272F801E25CFC45E431F10515
:10246000D8F4EB5CFD4E0C94C1284912511258125D
:102470005D12621267126C12711276127B12801258
:10248000851289128E129112941297129A129C122E
:102490009F120E941D11C0E08C2FCF911F910F91B0
:1024A00008954FE051E162E071E10E940512F3CF1F
:1024B00042E051E16FE071E1F8CF4AED5DE06DEC93
:1024C0007DE0F3CF4DEC5DE06AED7DE0EECF48EFCF
:1024D0005DE069EE7DE0E9CF49EE5DE068EF7DE02B
:1024E000E4CF46E15EE067E07EE0DFCF47E05EE01C
:1024F00066E17EE0DACF45E65CE064E57CE0D5CFDE
:1025000044E55CE065E67CE0D0CF81E00E941211FA
:10251000C2CF65E082E00E940A12BDCF68E086E08B
:10252000FACF6EE089E0F7CF64E18FE0F4CF67E1A6
:1025300085E1F1CF88E1EACF62E289E1ECCF83E285
:10254000E5CFC1E0A9CF80913603817008958091D5
:10255000360386958695869508958091360381FD8C
:1025600007C08260809336030E9417240C943014B5
:1025700008958091360381FF07C08D7F80933603D5
:102580000E9417240C943A1408958091360381FD1B
:102590000C94B9120C94AD1280913603869581701B
:1025A00008958091240108950E94E023811102C0C2
:1025B0000E948B240E94132480933603883620F0D7
:1025C00087708066809336038091360380FF05C054
:1025D0008695869586950C940C1480E0FCCF8091AE
:1025E0003603982F9695969596959C3040F49F5F6C
:1025F000990F990F990F8770892B809336038091DB
:1026000036038160809336030E941724809136033D
:102610008695869586950C940C1480913603982F98
:10262000987F79F0885080933603887F91E009F491
:1026300090E08091360390FB80F9809336030E94EE
:102640001724809136038695869586950C940C14F4
:102650008091360380FD13C0816080933603813002
:1026600019F489E080933603809136030E94172481
:10267000809136038695869586950C940C14089562
:102680008091360380FF08C08E7F809336030E94BE
:10269000172480E00C940C1408958091360380FD7B
:1026A0000C9440130C94281390913603892F86952F
:1026B000869586958F5F8F7197708D30D8F4880FCF
:1026C000880F880F892B8093360380913603887F8B
:1026D00091E009F490E08091360390FB80F98093BB
:1026E00036030E9417248091360386958695869539
:1026F0000C940C1490933603E8CF8D3008F08CE0E6
:10270000909136039770282F220F220F220F922BC1
:1027100090933603987F21E009F420E090913603EE
:1027200020FB90F9909336030C940C140E947D13B7
:10273000809136030C941724FC01DB0112968C91D6
:10274000882331F1EB5BFC45E730F10510F5E555E9
:10275000FC4E0C94C128B213B713B913BC13BF13AA
:10276000C213C5138CE00E94961380E0089580E0A8
:10277000FACF0E940D13F9CF0E94EF12F6CF0E94FC
:102780004D13F3CF0E945413F0CF0E94C512EDCF2A
:1027900081E008958C9A9498089594980895CF9222
:1027A000DF92EF92FF928C3724E1920750F469E0B8
:1027B00070E00E947728CB01FF90EF90DF90CF90E0
:1027C0000895B0E0A0E0BC01CD016A50774D8F4F75
:1027D0009F4F982F872F762F662725EF38E241E00D
:1027E00050E00E949F2869017A01CA01B9010E9444
:1027F0004D289B01AC01C701B6010E944D28672FEF
:10280000782F892F99276115710521E0820791059D
:1028100091F66FEF7FEFCFCFCF93C82F8D30D0F4ED
:10282000811119C08FB58F7D8FBD0E94CD132C2FC4
:1028300030E0AFEFBFEF0E94C7282CE030E040E06F
:1028400050E00E949F28C9010E94CF1399BD88BD06
:10285000CF910895CCE08FB580628FBDE8CF089509
:102860001092FB011092FA011092FC0189B784606A
:1028700089BF089589B78B7F89BF0E94A7120C94E6
:102880000C141F920F920FB60F9211242F933F93A7
:102890004F935F936F937F938F939F93AF93BF9368
:1028A000CF93EF93FF930E94D1124091FA01509180
:1028B000FB014F5F5F4F94EF899F90011124CA0184
:1028C000B9010E9477289093FB018093FA01B90126
:1028D000660F672F661F770B71950E9477286F77B9
:1028E0008091FC01823031F4603441F489B78B7FF0
:1028F00089BF04C0813011F46F37C1F3E62FF0E0D7
:10290000E252FB4FC4910E94A712282F41E051E0F0
:10291000C49FC001C59F900D11246CE070E00E941F
:102920007728269FC001279F900D11240E94CF1366
:1029300099BD88BDFF91EF91CF91BF91AF919F91CC
:102940008F917F916F915F914F913F912F910F9058
:102950000FBE0F901F9018950E94CA1382E28FBD80
:1029600089E18EBD8FEF9FEF97BD86BD0E94D41287
:102970000E94CC1281110C94301408950F931F9370
:10298000CF93DF938C01EB018091FD01811105C094
:102990000E945F1881E08093FD01AE01440F551F36
:1029A0004C0F5D1F24E630E0B80180EBDF91CF9142
:1029B0001F910F910C94E6180F931F93CF93DF9301
:1029C000C62FD42F022FFC0182818823C9F0609387
:1029D00000020E94FD249093FF018093FE0180E29B
:1029E0008C0F883008F057C0C77081E001C0880F95
:1029F000CA95EAF7DF91CF911F910F910C94D61AE7
:102A000010910002161335C08091FE019091FF01D4
:102A10000E940925883C910560F5C0E2CD0F1D1785
:102A2000B9F080E2810F883040F4177081E001C076
:102A3000880F1A95EAF70E94DD1AC83028F581E060
:102A40009D2F977001C0880F9A95EAF70E94D61AB9
:102A5000802F0E94C31AC830F0F4D77081E001C003
:102A6000880FDA95EAF7DF91CF911F910F910C94BF
:102A7000DD1A80E28C0F883070F4C77081E001C0ED
:102A8000880FCA95EAF7EFCF802FDF91CF911F9182
:102A90000F910C94C31ADF91CF911F910F9108955C
:102AA0009C01CB01233F4CE5340731F190F4283DE4
:102AB000FCE53F07E9F0293D4CE5340769F1273D86
:102AC0003C4579F426E241EE61EE0E94DC1480E0A0
:102AD0000895253FFCE53F07B9F090F0263F3C45BF
:102AE000B9F0FC0182818823D1F010920002089590
:102AF00027E245EE65EEE9CF26E241EE60EEE5CF56
:102B000027E245EE64EEE1CF26E241EE62EEDDCF54
:102B100027E245EE66EED9CF28E241E0EBCF81E037
:102B20000895CF93DF93EC01FB018281882309F4A0
:102B30001BC1C230FCE5DF07C0F1C6319CE5D907F7
:102B400030F09E012A5F3C452930310570F50E9426
:102B5000F82390933C0380933B03C031ECE5DE0700
:102B600009F4CFC008F057C0C8308CE5D80709F485
:102B7000B2C088F5C430ECE5DE0709F4A2C0C0F4A9
:102B8000C2308CE5D80709F496C080913B0382607F
:102B9000C330DC4509F492C080913B0390913C0323
:102BA0000E9406240E94701D80E0DF91CF9108955D
:102BB00080913B038061C630ECE5DE0709F47EC0FE
:102BC00080913B038860C730DC4508F477C0809172
:102BD0003B03806273C0CC308CE5D80709F489C010
:102BE00058F4CA30ECE5DE0709F47FC008F477C07A
:102BF00080913B038E7F62C0CE308CE5D80709F40C
:102C00007CC080913B03CF30DC4508F485C08091C7
:102C10003B038F7E53C0CB3FECE5DE0709F455C084
:102C200020F5C3318CE5D80709F473C078F4C131BD
:102C3000ECE5DE0709F469C0C231DC4509F0ACCF30
:102C40000E94701D80913B038F7738C0C5318CE5A1
:102C5000D80709F468C008F47CC080913C03CA3FDF
:102C6000DC4509F099CF816033C0CF3FFCE5DF0739
:102C700009F454C088F480913C038D7FCD3F9CE5DE
:102C8000D90731F180913C03CE3FDC4508F449C0BF
:102C900080913C038260E7CFC130FDE5DF0709F496
:102CA00061C008F44CC080E0C230DD4509F074CF4B
:102CB0000E948D2471CF80913B03816080933B0300
:102CC0006BCF80913B038460F9CF80913C0382609D
:102CD00080933C0361CF80913B038064EFCF0E94DF
:102CE000701D80913B038068E9CF80913B03886031
:102CF000EACF80913B038D7FE1CF80913B03877FBB
:102D0000DDCF80913B038F7DD9CF80913B038F7BBB
:102D1000D5CF80913B03877F8B7FD0CF80913C03C1
:102D20008D7F8E7FD5CF80913B0382FB992790F9D1
:102D300021E0922790FB82F990FB83F9BFCF80912D
:102D40003C03982F909591708E7F892B90FB81F991
:102D5000BFCF0E94701D90913B03892F97FB87F98D
:102D60008058ACCF81E0A4CF81E01FCFCF93DF9319
:102D7000EB0186319C4511F50E942B239A81992302
:102D800099F08A7A91E009F490E090930102811120
:102D900009C089E20E9406230E947D2380E0DF9122
:102DA000CF91089585E3F6CF80910102811104C08F
:102DB00089E20E940D23F0CF85E3FBCF81E0EFCFC6
:102DC000CF93DF93EC0181E0898B8F810E942E23CA
:102DD00088850E9442230E947D23EA81FB816C89C1
:102DE0007D89CE010696309719F0DF91CF91099435
:102DF000DF91CF910895CF93DF93EC0188818230EA
:102E000039F4FB01828193810E941C0681E08B874B
:102E1000DF91CF910895FC018081813029F4FB017D
:102E2000808191810C941C06823021F4FB01828107
:102E30009381F8CF0895FC018081813029F4FB0152
:102E4000808191810C943106823021F4FB018281D2
:102E50009381F8CF0895EF92FF920F931F93CF9332
:102E6000DF93EC018A85811134C0EB80FC8087E51B
:102E7000F81A26E12E9DC0012F9D900D1124DC0132
:102E8000AC59BF4F1496ED91FC91159754966D91E6
:102E90007C9186599F4F309709F0099586E18E9D68
:102EA00080018F9D100D11240C591F4FF80187814F
:102EB0000E943423F80180850E9448230E947D23CC
:102EC000188219861B861E821D82109203021092A0
:102ED0000202DF91CF911F910F91FF90EF90089523
:102EE000DF92EF92FF920F931F93CF93DF937C01BA
:102EF000FB018281882391F0809125018F3F71F041
:102F0000C4E6D0E010E000E0DD24D39480912501F8
:102F1000082E000C990B8017910744F4DF91CF9194
:102F20001F910F91FF90EF90DF9008958E8188237D
:102F3000C9F089859A858E159F0539F48091020222
:102F4000909103028E159F0569F0DF86FC86EB8663
:102F50008989811103C0CE010E94E016CE01069638
:102F60000E942B170F5F1F4F6696D0CFEF92FF92F4
:102F70000F931F93CF93DF937C0197558F3F91055C
:102F800009F0D8F520912501022E000C330B2817EB
:102F9000390714F480932501FB01228136E1389F23
:102FA0008001399F100D1124E801CC59DF4F288B87
:102FB00092818E81992349F1FA86E9868F5F8E830B
:102FC0000E94FD249E878D870E9464238F830E9428
:102FD0002B2388870E943F239885892B8887E88147
:102FE000F9816C897D89C80186599F4F309709F016
:102FF0000995F0920302E092020281E0DF91CF9105
:103000001F910F91FF90EF9008958823B1F3898964
:10301000882399F3C80186599F4F0E942B17EDCF43
:10302000EF92FF920F931F93CF93DF93809125012F
:1030300010E006E18F3FC1F5DF91CF911F910F9115
:10304000FF90EF900895029FF001039FF00D11246F
:10305000EC59FF4FE288F388E114F10419F488EC8D
:10306000E82EF12C029FE001039FD00D1124CC59D2
:10307000DF4F8E818823B9F08D859E850E940925BA
:10308000E816F90680F4109F7001112489898111D6
:1030900005C0C7018C599F4F0E94E016C701865991
:1030A0009F4F0E942B171F5F212F30E08091250139
:1030B000082E000C990B821793072CF6BDCF11B880
:1030C00087E080B985B3836085BB86B7846086BF9F
:1030D00086B7816086BF86B7806486BF0895EF9209
:1030E000FF920F931F93CF93DF93182FEB0116BE20
:1030F00084EA86BF0E94FD247C0106B607FE0BC051
:1031000081B1887F8830D1F081B1887F8031B1F082
:103110008FEF9FEF0CC0CF3FDC0779F30E94FD24B7
:103120008E199F098C179D0740F38EEF9FEFDF915B
:10313000CF911F910F91FF90EF90089513B984E8FC
:1031400086BF0E94FD248C0106B607FE09C081B12E
:10315000887F883111F08034D9F690E080E0E7CFA5
:10316000CF3FDC0789F30E94FD24801B910B8C1755
:103170009D0750F3DACF0F931F93CF93DF93EB01AB
:1031800083B984E886BF0E94FD248C0106B607FE41
:1031900010C021B1287F81E090E0283211F490E046
:1031A00080E0919581959109DF91CF911F910F91C9
:1031B0000895CF3FDC0751F30E94FD24801B910B43
:1031C0008C179D0718F38EEF9FEFEECFCF92DF9213
:1031D000EF92FF920F931F93CF93DF936B018A01BE
:1031E0007901B9010E946F18E6010C0D1D1DC01771
:1031F000D10759F424E926BFDF91CF911F910F9198
:10320000FF90EF90DF90CF90089597FDF3CFB70137
:1032100089910E94BB18EBCF90930902809308021A
:103220000895E0910802F0910902309721F0019091
:10323000F081E02D099480E00895E0910802F0917A
:103240000902309721F00280F381E02D099408955E
:1032500020910602309107022817390771F09093E8
:10326000070280930602E0910802F091090230976C
:1032700021F00680F781E02D099408952091040241
:10328000309105022817390771F090930502809359
:103290000402E0910802F0910902309721F00084C5
:1032A000F185E02D0994089584B7806884BF84B7C0
:1032B000806884BF0895089508950C945B190C9458
:1032C00074050E9454190E945C190C945D1981E0E8
:1032D00008950C9467190E94F6240E94570A0E94D0
:1032E00057250E94D4120E9427110C945F199F92B7
:1032F000AF92BF92CF92DF92EF92FF920F931F9304
:10330000CF93DF93CDB7DEB72A970FB6F894DEBF21
:103310000FBECDBF0E94B80A0E946919882309F424
:1033200072C05BE0A52E52E0B52E10E000E0902EBA
:10333000802F0E94490A6C01F501E190F1905F0134
:10334000E816F90609F459C080917F0281FD0E94B8
:10335000520A97012C253D2580E0EE24E394F12CC0
:10336000A9014E215F21452B09F441C08E839F8224
:10337000CE20DF2081E0CD2809F480E088870E94FC
:10338000FD248160782F9A8789874E815F816885C7
:103390008A850E94261A000F111FF801E55FFD4F74
:1033A00080819181E826F926F182E0820E945A11FB
:1033B0000E942F140E94111990910A028917A1F1FD
:1033C0000E94111980930A022A960FB6F894DEBF64
:1033D0000FBECDBFDF91CF911F910F91FF90EF9066
:1033E000DF90CF90BF90AF909F900C94CB078F5FF2
:1033F000EE0CFF1C8C3009F0B3CF0F5F1F4F043071
:10340000110509F094CF8FEF89838A831B820E9474
:10341000FD248160782F9D838C8349815A816B8143
:103420008D810E94261AC2CF2A960FB6F894DEBF6D
:103430000FBECDBFDF91CF911F910F91FF90EF9005
:10344000DF90CF90BF90AF909F900895CF93DF9380
:10345000CDB7DEB72B970FB6F894DEBF0FBECDBF4A
:103460004F83588769877A878B871E821D8285E004
:10347000FE013796DE01119601900D928A95E1F7D3
:1034800049815A816B817C818D819E812B960FB6FB
:10349000F894DEBF0FBECDBFDF91CF910C940F200B
:1034A000FC01808191810C94D822CF93C82F88236E
:1034B00009F43FC08CEF8C0F813AA0F46C2F8091FF
:1034C0002601909127010E949E24882329F08C2FA9
:1034D0000E940D230E947D238C2F0E940623CF91F2
:1034E0000C947D2380E28C0F883048F4C77081E013
:1034F00001C0880FCA95EAF70E942E23F0CFEBE5B2
:10350000EC0FE33040F4F0E0E253FE4F808190E0B6
:10351000CF910C942819C85AC73158F4EC2FF0E019
:10352000EE0FFF1FE056FE4F80819181CF910C94EA
:103530003E19CF910895882329F19CEF980F913A75
:1035400020F40E940D230C947D2390E2980F983074
:1035500050F4877091E001C0990F8A95EAF7892F9E
:103560000E943423F0CF9BE5980F933020F490E035
:1035700080E00C942819885A873120F490E080E08C
:103580000C943E190895CF93C82F0E94551AC93341
:1035900049F42FEF8DEE92E0215080409040E1F70A
:1035A00000C000008C2FCF910C949B1A882321F02F
:1035B0000E942E230C947D230895882321F00E94DD
:1035C00034230C947D230895CF92DF92EF92FF92E3
:1035D0000F931F93CF93DF936C01D62FC72FFC015E
:1035E000058102950F70128111110E9450230E94D3
:1035F0002423E82E882391F0112351F18C2F807F12
:10360000803421F080E28D0F883010F182E00E943A
:10361000C8230E94242391E0E82EE926FC2EF29490
:103620009FE0F922EF2DF0E0E85EF44E0C94C12803
:103630002A1B2A1B771B771BC91B571B571B571BA2
:10364000EA1B791C8A1C8A1CF11C571B571BFA1C8D
:10365000E12CE4CF0C2F0F70C07F11F00295007F9A
:103660001123A9F0002359F080E28D0F883010F06B
:10367000D11109C0802F0E942E230E947D238D2FFF
:103680000E94551A14C0802F0E944223F6CF8D2F1E
:103690000E949B1A002359F080E28D0F883010F0B1
:1036A000D11121C0802F0E9434230E947D23EE205F
:1036B00009F4A7C10E94202380FDA3C1F601128254
:1036C0000E941A230E94A021C6010E94211D0E946F
:1036D0001A23DF91CF911F910F91FF90EF90DF9010
:1036E000CF900C94C121802F0E944823DECFFC2F65
:1036F000FF70FF2EC07FC03219F0F29480EFF822E5
:10370000DD2369F0D13049F1112391F1002351F10A
:10371000F601858180FFB3CF8F70858323C011238D
:1037200081F0011106C00E9464238F290E94D61ADD
:10373000BECF0130C1F70E9464238F290E946A2303
:10374000B6CF011106C00E9473238F2D0E94DD1A8F
:10375000AECF013009F4ABCFF6CF112329F00330FF
:1037600008F0A5CF8F2DE2CF023008F0A0CFEDCF2B
:10377000002359F3D93349F4FFEF2DEE82E0F150E5
:1037800020408040E1F700C000008D2F0E949B1A6E
:103790008ECF8C2F86958695837041F0813081F095
:1037A00088EF8F0D843008F450C081CF8D2F9C2F6F
:1037B0009370111102C090E080E00E94281977CF29
:1037C0008D2F9C2F9370111102C090E080E00E9419
:1037D0003E196DCF8C2F837009F045C0111135C093
:1037E0004D2F429546954770440F440F0D2F0F7093
:1037F00010E030E020E0042E04C0000F111F221F53
:10380000331F0A94D2F760E070E0CB01D4FF0FC001
:103810006FE070E080E090E004C0660F771F881FC3
:10382000991F4A95D2F76095709580959095602B79
:10383000712B822B932BC695C695C370C23069F04D
:1038400078F4C13039F00E9454210E9411190E946D
:10385000CB072DCF0E944221F8CF0E946621F5CFE1
:103860000E944021F2CF8695112311F08C2F817098
:10387000882359F34D2F429546954770440F440FC6
:103880000D2F0F7010E030E020E0042E04C0000F78
:10389000111F221F331F0A94D2F760E070E0CB01A2
:1038A000D4FF0FC06FE070E080E090E004C0660FCE
:1038B000771F881F991F4A95D2F76095709580955C
:1038C0009095602B712B822B932BC695C695C37058
:1038D000C23049F058F4C13019F00E941722B5CF18
:1038E0000E940522B2CF0E942922AFCF0E947A21E6
:1038F000ACCFCF70112339F08C2F0E94A0218D2FD7
:103900000E94D61AA2CF8D2F0E94DD1A8C2F0E9402
:10391000C1219BCFD23F99F170F4D03FD9F0D13F74
:1039200039F1112309F449C0002309F443C08D2F54
:103930000E94551A35CFD33F49F1D43F91F7112357
:1039400079F1CF718C2F0E94A02163E08C2F0E940F
:10395000B32326CF112341F0023008F021CF8C2F62
:103960008F710E94E4211CCF033008F019CFF7CFEC
:103970008C2F8F71112339F00E94A02111CF8C2F31
:103980008F711123C9F30E94C1210ACF112329F09D
:103990008C2F8F710E948B2103CF0E94862100CF34
:1039A00081E00E94C823023008F4FACE82E00E942F
:1039B000C823F6CE8C2F8F71DFCF002379F0D93357
:1039C00049F49FEFEDEEF2E09150E040F040E1F776
:1039D00000C000008D2F0E949B1AE2CE8C2F8F71A9
:1039E000D2CF4C2F4F706D2FC6010E9435080E9418
:1039F000B8205DCE4C2F4F706D2FC6010E94380845
:103A000056CEDF91CF911F910F91FF90EF90DF90F5
:103A1000CF9008950F931F93CF93DF93EC016881AC
:103A200079818A810E94E2228C010E943B220E94BD
:103A30003F21B801CE01DF91CF911F910F910C94DE
:103A4000E41ACF93DF93EC01988189812B813C812B
:103A5000232B39F08F3F19F481E09F3F19F080E06C
:103A600001C081E080FD19C0CE010E94E3078111F1
:103A70000CC00E942423882381F08A81882369F066
:103A800082E0DF91CF910C94C823CE010E940A1DE1
:103A9000CE01DF91CF910C948906DF91CF910895EB
:103AA000882321F00E9442230C947D2308958823CB
:103AB00021F00E9448230C947D2308950E945023F6
:103AC0000E9461230E947D2390E080E00E942819DB
:103AD00090E080E00C943E190E9414230C945E1D2B
:103AE0000E943C230C946C1DE92FE295EF70E2508C
:103AF000EE30E0F4F0E0E158F24E0C94C1288D1D58
:103B00008D1D961D961D981D961D961D961D8D1D2D
:103B10008D1D9D1D961D961D9D1D803F19F020F445
:103B2000883E20F481E00895843FE1F380E0089529
:103B3000883EC0F3813FD1F7F5CF93FB882780F90A
:103B400008950E94D8220C94741DCF93DF9300D067
:103B500000D01F92CDB7DEB70F900F900F900F904F
:103B60000F90DF91CF910895CF93DF9300D000D0D5
:103B700000D0CDB7DEB726960FB6F894DEBF0FBEE5
:103B8000CDBFDF91CF9108951F93CF93DF93C09165
:103B9000140216E0809115028C1304C0DF91CF91BE
:103BA0001F910895D0E01C9FF0011D9FF00D11247E
:103BB000EA5EFD4F408151816281738184819581EC
:103BC0000E94B41D2196C770E5CF409146025091E6
:103BD0004702609148027091490280914A02909197
:103BE0004B020C94B41D0F931F93CF93DF938091DE
:103BF0004B02807FB9F480914802882399F080912C
:103C00001402109115026091460270914702C09112
:103C10004902D0914A0221E06F3F09F020E006E01E
:103C2000181305C0DF91CF911F910F91089531E0D6
:103C3000209721F0322F7F3F09F030E090E030FDF7
:103C400033C0089FF001099FF00D1124DF01AA5E27
:103C5000BD4F11963C911197371326C03C913613F6
:103C600023C012963C91129731111EC013964D91AC
:103C70005C914C1B5D0B483C5105B0F480914B02AC
:103C80008F70806180934B02E55EFD4F80818F7065
:103C90008061808386E492E00E94211DDF91CF91B4
:103CA0001F910F910C94C41D01968770B9CF9F92FC
:103CB000AF92BF92CF92DF92EF92FF920F931F933A
:103CC000CF93DF93CDB7DEB761970FB6F894DEBF21
:103CD0000FBECDBF8C0185E0F801DE011D9601907D
:103CE0000D928A95E1F7F80140815181E28090912F
:103CF0004602609147022091490230914A0281E0D8
:103D00002115310531F06F3F19F481E09F3F09F033
:103D100080E0F82FF1709F2E80FD65C1F801A3802F
:103D2000B48086E4C82E82E0D82EF0904802F501D7
:103D3000E21BF30BFF2009F404C180914B02782FA2
:103D4000707FE83CF10508F0BAC0711181C0FE2C0B
:103D5000651324C0941322C0E11020C08F708061CD
:103D600080934B020E94E51DC6010E94211D809197
:103D70004B02F80185838F2D61960FB6F894DEBF54
:103D80000FBECDBFDF91CF911F910F91FF90EF90AC
:103D9000DF90CF90BF90AF909F90089581E0AB28C7
:103DA00031F05F3F19F481E04F3F09F080E080FD82
:103DB00023C081E08E25F82FF170DF2E80FF3EC0FA
:103DC000809114022091150236E0821317C04D87AE
:103DD0005E878D859E850E94D822292F22952F707F
:103DE000223000F1243028F59F7001F1F80195810F
:103DF000907FE1F4F92CBFCF80E0DDCF90E0389FD9
:103E0000F001399FF00D1124EA5EFD4F61815613D8
:103E100006C06081461303C062816E110FC0019617
:103E20008770D3CF9F7011F0882321F3805E883094
:103E300008F3C8010E94211D9D2CDCCFEE2009F45F
:103E40009ACF80914B02816080934B02F12C93CFEB
:103E5000651306C0941304C0F801EE2009F48DC068
:103E60004D875E878D859E850E94A11D882319F14F
:103E7000EE2009F180914B02803270F020914602D1
:103E80003091470238872F831986BB86AA868C8794
:103E9000CE0107960E94211D86E0F801A6E4B2E05B
:103EA00001900D928A95E1F70E94F31D0E94E51D95
:103EB000FF24F39460CFC8010E94211DF9CF711136
:103EC00013C07A2DB98AA88A6E2D89890E94A51DF2
:103ED00086E492E00E94211D86E0F60111928A9507
:103EE000E9F70E94E51DB2CF65130FC094130DC012
:103EF000E1100BC0F8018583C8010E94211D86E0F6
:103F0000F60111928A95E9F736CF4D875E878D8548
:103F10009E850E94A11D882371F2EE2061F280919E
:103F20004B02803208F4B8CF20914602309147020C
:103F30003A8329831B82BD82AC828E83CE01019697
:103F4000A9CFE83CF10508F041C0FE2CEE2009F4B1
:103F5000B2CF65132AC0941328C080914B0280FD14
:103F60001BC0982F907FC1F0F8018583903F31F0FE
:103F7000982F907F905F8F70892B8583C8010E9456
:103F8000211D86E0F801A6E4B2E001900D928A9529
:103F9000E1F70E94E51DEFCE86E0F801A6E4B2E06D
:103FA00001900D928A95E1F7E6CE4D875E878D856B
:103FB0009E850E94A11D81116FCF80914B0281606F
:103FC00080934B02C8010E94211DD5CE7A2DB98A5B
:103FD000A88A6E2D89890E94A51D86E0F60111929E
:103FE0008A95E9F7D6CFEE2009F465CF4D875E8735
:103FF0008D859E850E94A11DF82E882309F45BCF34
:1040000086E0F801A6E4B2E001900D928A95E1F70E
:1040100086E492E00E94501A0E94F31DBACF1F93CB
:10402000CF93DF93CDB7DEB72C970FB6F894DEBFF2
:104030000FBECDBF4F83588769877A878B879C8750
:10404000CE0107960E94571E882309F442C09F8123
:1040500088852A853B85232B39F08F3F19F481E031
:104060009F3F19F080E001C081E080FD08C04F81D2
:10407000588569857A858B859C850E94B41D16E0DC
:104080008091140290911502891709F467C0819FED
:10409000C00111248A5E9D4F0E94571E882309F497
:1040A0005DC0E09114021E9FF0011124EA5EFD4FF5
:1040B0004081518162817381848195810E94B41D08
:1040C0008091140290E001968770992780931402E2
:1040D000D7CF86E0FE013796DE01119601900D9252
:1040E0008A95E1F79F8188852A853B85232B39F0C6
:1040F0008F3F19F481E09F3F19F080E001C081E01B
:1041000080FDBDCF2091150230E0C9010196877076
:104110009927409114024817190699F096E0929F4A
:10412000D001939FB00D1124AA5EBD4FFE013196C0
:1041300001900D929A95E1F7809315020E94C41D9B
:104140009ECF0E94701D109215021092140286E0FC
:10415000E6E4F2E0DF011D928A95E9F72C960FB6AE
:10416000F894DEBF0FBECDBFDF91CF911F910895B0
:10417000EF92FF920F931F93CF93DF938C01892BC4
:1041800081F0F12CEE24E394E8012196F80184916A
:10419000843770F4843008F05FC08130B1F0823031
:1041A000A1F1DF91CF911F910F91FF90EF900895B2
:1041B000853709F44CC008F43DC09CE7980F903750
:1041C00080F78F770E949B1A49C00E5F1F4FFE0138
:1041D000849190E2980F983060F48770FE2D01C0B2
:1041E000FF0F8A95EAF78F2F0E9453230E947D23A9
:1041F00002C00E94551A8F2D815030F2E7EBFBE090
:104200003197F1F700C00000F7CF0E5F1F4FFE019E
:10421000849190E2980F983050F48770FE2D01C081
:10422000FF0F8A95EAF78F2F0E945923DFCF0E9454
:104230009B1AE1CF0E5F1F4FFE01C491C150D8F20F
:1042400087EB9BE00197F1F700C00000F7CF0E5F0E
:104250001F4FFE01F490CFCF0E94551A8E01CBCF95
:1042600008950C9430210E94312160936E02709366
:104270006F0280937002909371020C945E1D0895FA
:104280000C9433210F931F9300916E0210916F02D3
:104290002091700230917102602B712B822B932B35
:1042A0001F910F910C9433210F931F9300916E0275
:1042B00010916F022091700230917102602371237E
:1042C000822393231F910F910C9433210F931F93FB
:1042D00000916E0210916F02209170023091710274
:1042E00060277127822793271F910F910C94332108
:1042F0000C947C050E94782160936A0270936B0293
:1043000080936C0290936D020C945E1D60E070E0EF
:10431000CB010C947A210F931F9341E050E060E0B1
:1043200070E08A019B0104C0000F111F221F331F80
:104330008A95D2F7C901B8011F910F910C947A2187
:104340000F931F9341E050E060E070E004C0440F21
:10435000551F661F771F8A95D2F780916A02909148
:104360006B02A0916C02B0916D028A019B01082B37
:10437000192B2A2B3B2BC901B8011F910F910C94CB
:104380007A210F931F9341E050E060E070E004C099
:10439000440F551F661F771F8A95D2F7CB01BA01CC
:1043A000609570958095909500916A0210916B02CE
:1043B00020916C0230916D0260237123822393233C
:1043C0001F910F910C947A210F931F9341E050E0BD
:1043D00060E070E004C0440F551F661F771F8A9588
:1043E000D2F780916A0290916B02A0916C02B09119
:1043F0006D028A019B01082719272A273B27C9013B
:10440000B8011F910F910C947A210F931F93009183
:104410006A0210916B0220916C0230916D02602B48
:10442000712B822B932B1F910F910C947A210F9358
:104430001F9300916A0210916B0220916C023091DF
:104440006D0260237123822393231F910F910C949B
:104450007A210F931F9300916A0210916B022091B1
:104460006C0230916D0260277127822793271F917C
:104470000F910C947A2108952CE0929F800D1124C5
:10448000982F977071E001C0770F9A95EAF786959B
:104490008695869525E0829FC001112450E040E07A
:1044A000A62FB0E0FC01E40FF51FE45BFD4F608137
:1044B0009D01042E02C0369527950A94E2F72170DB
:1044C000219526272723262720834F5F5F4F4530DE
:1044D000510541F708952CE0929F800D1124982FEB
:1044E000977086958695869525E0829FA001112478
:1044F00070E060E080E0FA01E60FF71FE45BFD4F3B
:10450000208130E0092E02C0369527950A94E2F703
:1045100021703327062E01C0220F0A94EAF7822B5E
:104520006F5F7F4F6530710531F70895BF92CF926D
:10453000DF92EF92FF920F931F93CF93DF938C0143
:10454000C0906A02D0906B02E0906C02F0906D0215
:1045500080916E0290916F02A0917002B0917102F1
:10456000C82AD92AEA2AFB2ACFE1D0E0BC2ED701FB
:10457000C6010C2E04C0B695A795979587950A9409
:10458000D2F780FD0EC0219788F7B12C8B2DDF91DB
:10459000CF911F910F91FF90EF90DF90CF90BF9040
:1045A0000895B8018C2F0E945508019761F3EECF52
:1045B000CF93DF93EC010E949622BE01DF91CF9151
:1045C0000C9455081F93CF93DF93EB019091130246
:1045D000992331F0CB01DF91CF911F910C94D82218
:1045E000882379F0CB010E949622182F682FCE01E4
:1045F0000E943C22BE01812FDF91CF911F910C942C
:104600005508CB010E946B22182FF4CF682F8091A0
:104610002601909127010C94D424682F80912601C3
:10462000909127010C94D624809126019091270126
:104630000C94D8248091720285958595859508956E
:10464000809172028770089590917202977081E054
:1046500009F480E0089580917E02089590917E0291
:10466000892B80937E020895982F909580917E02E9
:10467000892380937E02089510927E02089580918E
:104680007D02089590917D02892B80937D0208958B
:10469000982F909580917D02892380937D020895C3
:1046A00010927D02089590917C02892B80937C0268
:1046B0000895982F909580917C02892380937C02A5
:1046C000089510927C0208958091730208950895D0
:1046D0000C94672390917302981721F080937302D2
:1046E0000C946823089580917302882329F0109216
:1046F000730280E00C9468230895E0912601F09104
:10470000270180917E028083E0912601F0912701AC
:10471000808190917D02892B8083E0912601F09128
:104720002701808190917C02892B80839091730274
:10473000992381F0E0912601F09127018081892B56
:10474000808380912601909127010E9492248111FB
:104750000E94732380912601909127010C941D19CA
:1047600008950C94B02398E0899F90011124622B46
:10477000609372020E94A0218091720285958595B6
:1047800085950C94B1231092720280E00C94B123B1
:10479000909172028095892380937202282F27704E
:1047A00071F4282F082E000C330B9217130639F0E2
:1047B0008595859585950E94C1210C94C323089504
:1047C00090E080E00E94582921E08C3E9E4F09F045
:1047D00020E0822F089582E090E00C944A2983E043
:1047E00090E00C944A29682F83E090E00C945E29B5
:1047F000CF9384E090E00E944A29C82F81E290E0A4
:104800000E944A29982F8C2FCF910895CF93C92FBA
:10481000682F84E090E00E945E296C2F81E290E096
:10482000CF910C945E2986E090E00C944A29682F81
:1048300086E090E00C945E29AB01BC018FE090E033
:104840000C946F29AB01BC0183E190E00C946F29BB
:1048500060E070E0CB010C94222460E070E0CB01BA
:104860000E941C240C9428246CEE7EEF90E080E0E3
:104870000E947B2960E082E090E00E945E2960E077
:1048800083E090E00E945E2910926E0210926F0207
:10489000109270021092710260E084E090E00E9439
:1048A0005E2960E081E290E00E945E2960E085E0A0
:1048B00090E00E945E2960E086E090E00E945E2920
:1048C0006FEF87E090E00E945E2940E050E0BA017F
:1048D00088E090E00E946F2960E08DE090E00E9407
:1048E0005E2940E050E0BA0188E190E00E946F2923
:1048F00060E087E190E00E945E2940E050E0BA016C
:104900008CE190E00E946F2960E080E290E00E94DC
:104910005E290C942D240C943424682F8EE090E0B2
:104920000C945E29FC01329697E080E0915009F4E6
:10493000089521912223D1F38F5FF8CF662349F0A8
:10494000FC01329608962191261729F0E817F907FD
:10495000D1F780E0089581E008959C01FC01329632
:104960009FEF80E04191461751F09F3F19F44111AC
:1049700001C0982F8F5F8630A9F79F3F09F40895F3
:10498000290F311D97FD3A95F90162830895FC01C5
:10499000329608962191261303C0DF0111971C92CD
:1049A000E817F907B9F708950C94AD240C94C724BF
:1049B000029626E0FC0111922A95E9F708950895E0
:1049C0000895CF930E94DF240E94B80A0E94E02439
:1049D000C0E08C2F0E94490A892B31F4CF5FC4308C
:1049E000C1F780E0CF91089581E0FCCF8BE083BFD9
:1049F0008BEB8CBF82E089BF08952FB7F89480912C
:104A0000370390913803A0913903B0913A032FBF37
:104A100008959C014FB7F894809137039091380323
:104A2000A0913903B0913A034FBF821B930B0895B5
:104A300078941F920F920FB60F9211248F939F9329
:104A4000AF93BF938091370390913803A0913903BE
:104A5000B0913A030196A11DB11D80933703909345
:104A60003803A0933903B0933A03BF91AF919F915C
:104A70008F910F900FBE0F901F90189560E081E00E
:104A800090E00E94812987E090EBDC018093810314
:104A900090938203A0938303B093840388E19CE006
:104AA0000FB6F894A89581BD0FBE91BDFFCF0E94AF
:104AB000E023811102C00E948B240E94EB2380938B
:104AC0007F020E94F82390933C0380933B030E9453
:104AD000EF23682F70E090E080E00C9440210F936A
:104AE0001F93CF93DF930E94FD248C010E946119D4
:104AF0000E9459260E940C190E943A288B9A80E045
:104B0000815039F58B987894FFEB24ED31E0F1502A
:104B100020403040E1F700C000000E946B19C0E067
:104B2000DCE0809158038823F1F0109258030E9432
:104B3000FD248C010E943F2780915E03882329F089
:104B40008091480384FD0E9477190E940D26C0E0E1
:104B5000E8CFA895E7EBFBE03197F1F700C0000044
:104B6000CFCFC1E0DECFC8010E940925069710F41F
:104B7000CC2301F30E94E124C82F882391F3F894F9
:104B800091B3939A892F8C6081BB82B38D2782BBAE
:104B90008FE5EAEEF0E08150E040F040E1F700C040
:104BA000000082B38D2782BB91BB93987894B9CFD4
:104BB0008091110308950895CF93DF9300D01F9241
:104BC000CDB7DEB790918202981307C02091800282
:104BD000309181022617370791F0809382027093FB
:104BE00081026093800289837B836A83809175034D
:104BF00084FF05C063E0CE0101960E943B270F9021
:104C00000F900F90DF91CF910895BC0184E00C9438
:104C1000DC25BC0183E00C94DC25CF93DF93CAE054
:104C2000D0E08091480384FF1AC080918E02909159
:104C30008F02981789F028E0829FC001112468E054
:104C400080579D4F0E94372780918E0290E00196F9
:104C50008F70992780938E02DF91CF9108950E94E3
:104C60003F2787EB9BE00197F1F700C000002197F9
:104C7000C1F6F2CFFC01A0918F02B0E09D012F5F41
:104C80003F4F2F70332780918E02821771F083E09F
:104C9000AA0FBB1F8A95E1F7A057BD4F98E001907E
:104CA0000D929A95E1F720938F020E943F270C9472
:104CB0000D2688E291E00895FC01808180768032A3
:104CC000D1F48181813041F486E892E090935A03D7
:104CD0008093590388E00895823041F480E193E0A5
:104CE00090935A038093590381E008958A3029F400
:104CF00083818093100380E008958930E1F78281F9
:104D000093818115924069F484819581892B49F4BE
:104D100081E08093850286819781909384028093BD
:104D200083028FEF08952091830230918402232B18
:104D300071F020918502213051F4FC018081809333
:104D40001103109284021092830281E008958FEF84
:104D500008950895FC019381933059F130F4913016
:104D6000C1F09230F1F080E00895913209F444C02E
:104D70009232C9F784819581009709F44EC001975A
:104D800091F789ED96E090935A038093590382E35B
:104D9000089589E996E090935A038093590382E13C
:104DA00008958EE596E090935A03809359038BE320
:104DB00008958281813081F038F08230A9F083300B
:104DC00091F68BEA96E002C085ED96E090935A0347
:104DD0008093590384E008958DEB96E090935A03F5
:104DE0008093590386E1089581EB96E090935A03EE
:104DF000809359038AE008958281882331F08130BD
:104E000009F0B1CF89E896E002C080E796E0909380
:104E10005A038093590389E008958BE097E09093BB
:104E20005A038093590380E408951F93CF93DF932F
:104E3000162FEA01288124FF17C0298138E823278B
:104E40002983212FFC01CE010296DC0131913D9393
:104E500021501216DCF3612F0E9401041C5F18839D
:104E6000DF91CF911F9108952AE52883EACF48E486
:104E700053E00C94152745E753E00C941527CF9386
:104E8000DF9360915B03635067FD12C0809157030D
:104E9000CCE0D0E0C81BD109C15ADC4F8091560349
:104EA000803108F05DC0CE010E94A92610925B03FC
:104EB0008091330184FF47C0809132018F3F09F414
:104EC00042C0C82F893008F0C8E0982F9C1B9093EF
:104ED000320190913D0328E8922790933D03882367
:104EE00029F18091590390915A0320915503AC0107
:104EF0004D53534026FFB1C0ADE3B3E02C2FFA0170
:104F0000EA0FFB1FE4911196EC9311972150119633
:104F10002111F5CF9C012F5F3F4F8FEF8C0F820F38
:104F2000932F911D90935A03809359036C2F8EE316
:104F300093E00E940104CC5FCC3019F08FEF809396
:104F40003201C093330184E190B39C7031F48150FD
:104F5000D9F710925C0310925403DF91CF9108951A
:104F60008D3209F067C0683009F0A0CF83EC8093E0
:104F70003D038AE580933301109255038881807642
:104F800071F0CE010E945C268F3FC1F4988197FD9D
:104F90008E8190E8909355038093320187CF2A81C8
:104FA000109246039981911111C01092470326E493
:104FB00033E082E030935A03209359039F8191118B
:104FC000EBCF9E81981740F7892FE6CF953029F4D3
:104FD00020935C0326E433E0EDCF963099F49B8177
:104FE000913021F4CE010E94AA2608C09230D1F35C
:104FF0009330C1F39132B1F39232A1F390E49093E4
:105000005503C2CF983079F0993019F420935E039C
:10501000E1CF9A3061F09B30E9F69BE4909349032D
:1050200090937603D7CF2EE533E081E0C3CF26E41B
:1050300033E0FBCF8091550387FF38CFCE010E942C
:1050400093268F3F21F48EE1809333012FCF882365
:1050500009F42CCF1092320129CFEDE3F3E02C2F8D
:10506000DA01AE0FBF1F3C913183215031962111DF
:10507000F7CF50CF85B7886085BF8BB780688BBF6F
:10508000A8E4B3E08BE411968C931197E5E7F3E085
:1050900081838AE58C9380830895DB018F939F93AE
:1050A0000E94D628BF91AF91A29F800D911DA39F12
:1050B000900DB29F900D11240895991B79E004C0C2
:1050C000991F961708F0961B881F7A95C9F7809547
:1050D000089587FB082E062687FD819567FD61955B
:1050E0000E945D280EF4919507FC81950895AA1BF6
:1050F000BB1B51E107C0AA1FBB1FA617B70710F0C3
:10510000A61BB70B881F991F5A95A9F780959095F4
:10511000BC01CD01089597FB072E16F4009407D02B
:1051200077FD09D00E94772807FC05D03EF49095C2
:1051300081959F4F0895709561957F4F0895A1E2E5
:105140001A2EAA1BBB1BFD010DC0AA1FBB1FEE1F01
:10515000FF1FA217B307E407F50720F0A21BB30B4C
:10516000E40BF50B661F771F881F991F1A9469F7C8
:1051700060957095809590959B01AC01BD01CF0124
:105180000895EE0FFF1F0590F491E02D0994A29F62
:10519000B001B39FC001A39F700D811D1124911D0B
:1051A000B29F700D811D1124911D08950E94C72882
:1051B000A59F900DB49F900DA49F800D911D11246B
:1051C00008958F929F92AF92BF92CF92DF92EF920B
:1051D000FF92CF93DF93EC01688179818A819B8173
:1051E000611571058105910521F464E279ED8BE586
:1051F00097E02DE133EF41E050E00E949E29490104
:105200005A019B01AC01A7EAB1E40E94D6286B01C8
:105210007C01ACEEB4EFA50194010E94C029DC0131
:10522000CB018C0D9D1DAE1DBF1DB7FF03C00197A7
:10523000A109B04888839983AA83BB839F77DF91B4
:10524000CF91FF90EF90DF90CF90BF90AF909F9065
:105250008F9008950E94E128089580E690E00E94D2
:10526000E1280895B0E0A0E0809360009093610091
:10527000A0936200B09363000895FC014150504038
:1052800030F001900616D1F73197CF0108958827A5
:1052900099270895E199FECF9FBB8EBBE09A99278D
:1052A0008DB30895A6E1B0E044E050E00C9490295D
:1052B000A8E1B0E042E050E00C949029262FE1995B
:1052C000FECF9FBB8EBBE09A01970DB2021631F064
:1052D0002DBB0FB6F894E29AE19A0FBE089503969B
:1052E000272F0E945F290E945E29252F0E945F2997
:1052F000242F0C945F290196272F0E945F290C947C
:105300005E29262FE199FECF9FBB8EBB2DBB0FB62A
:10531000F894E29AE19A0FBE01960895DC01CB0160
:10532000FC01E199FECF06C0FFBBEEBBE09A3196CF
:105330000DB20D9241505040B8F70895052E97FBDD
:105340001EF400940E94B52957FD07D00E949F28A3
:1053500007FC03D04EF40C94B52950954095309538
:1053600021953F4F4F4F5F4F0895909580957095D1
:1053700061957F4F8F4F9F4F0895B7FF0C94D628AC
:0E5380000E94D628821B930B0895F894FFCF4D
:10538E0001000000FB160B171B17000000000000A9
:10539E0000000000000000000A01FB160B171B178F
:1053AE0000000000000000000000000000000E01E0
:1053BE00FB160B171B17000000000000000000007A
:1053CE00000000000601FB160B171B170000000063
:1053DE00000000000000000000000201FB160B1789
:1053EE001B1700000000000000000000000000007D
:1053FE00FE0000005205000000000000000000004A
:10540E000000000000000000000064050000000025
:10541E00000000000000000000000000000033004B
:10542E00340033003302340034022D022D00870283
:10543E002D000102000500050501191A1B1C1D1E79
:10544E001F20212206FF7402D8253A26DB250926C5
:10545E000526FF5AE200E900EA00B500B600B700E3
:10546E00CD008301CC008A01920194012102230216
:10547E0024022502260227022A02B300B4006F007E
:10548E007000818283343536379495969793929136
:10549E0090606163640001020202020606060909B9
:1054AE00090909090F0F0F0F0F0F151515181919E7
:1054BE0019191919191919192324252525252525F1
:1054CE00E200E900EA00B500B600B700CD008301A6
:1054DE00CC008A01920194012102230224022502AA
:1054EE00260227022A02B300B4006F0070008182E8
:0254FE00830029
:00000001FF
